:020000040000FA
:10000000B00B0020E5010000F9610000EF010000E5
:1000100000000000000000000000000000000000E0
:10002000000000000000000000000000F7010000D8
:100030000000000000000000FB010000A54D0000D2
:10004000FF0100007160000089600000A9600000ED
:10005000C9600000090200000B0200000D02000050
:100060000F02000011020000C16100008561000064
:1000700017020000190200001B0200001D02000010
:10008000015E00000D2200004D22000089220000C8
:10009000C522000005590000416100000161000017
:1000A000455900005D5900003302000001230000A3
:1000B0003D23000079230000B52300009D6200006D
:1000C000EFFFF0FF00F002F800F044F80CA030C899
:1000D000083824182D18A246671EAB4654465D46C4
:1000E000AC4201D100F036F87E460F3E0FCCB6464A
:1000F0000126334200D0FB1AA246AB4633431847D1
:10010000E4680000046900000023002400250026A4
:10011000103A01D378C1FBD8520700D330C100D5C3
:100120000B60704710B5642902D100F0F9F810BDDA
:10013000782902D100F02AF910BD732902D100F00C
:1001400087FB10BD002010BD1FB500F0FDF91FBDDD
:1001500010B510BD00F0C0FB1146FFF7F5FF05F02C
:10016000DBFF00F0D8FB03B4FFF7F2FF03BC05F0A0
:10017000A9FB000030B40C490C684A682368106879
:10018000C0181060241D121D8C4207D28A4208D26A
:100190000C604A6030BC4000400870470C00DC3CFA
:1001A000F6E70A00DC3AF3E74806002070B505469A
:1001B0000C46164602E00FCC0FC5103E102EFAD2A8
:1001C000082E02D303CC03C5083E042E07D301CC6E
:1001D00001C5361F03E021782970641C6D1C761E52
:1001E000F9D270BD1948804719480047FEE7FEE77D
:1001F000FEE7FEE7FEE7FEE7FEE7FEE7FEE7FEE7D7
:10020000FEE7FEE7FEE7FEE7FEE7FEE7FEE7FEE7C6
:10021000FEE7FEE7FEE7FEE7FEE7FEE7FEE7FEE7B6
:10022000FEE7FEE7FEE7FEE7FEE7FEE7FEE7FEE7A6
:10023000FEE7FEE7FEE7FEE7FEE7FEE7FEE700007B
:1002400004480549054A064B70470000C94D0000A7
:10025000C5000000B0060020B00B0020B007002051
:10026000B00700200FB4054910B503AA029800F0AA
:10027000F3FA10BC08BC04B01847000000010020CD
:1002800070B5044685690068C10601D5302600E0D6
:100290002026C00707D070BD62683046A16890472D
:1002A000206A401C20626D1EF6D570BD70B50446F4
:1002B00085690078C00707D170BD6268A1682020F9
:1002C0009047206A401C20626D1EF6D570BD70B547
:1002D0000C460546012A05D02878800600D5EA6933
:1002E000002302E0012305E05B1C934202D2E05CA4
:1002F0000028F9D1A869E618C01AA861286AC018B0
:1003000028622846FFF7BCFF04E06A682078A968E5
:10031000641C9047B442F8D32846FFF7C7FF70BD6E
:10032000F7B5002575291068009914A611D0C046AC
:10033000C046002802DA404211A608E00099096888
:100340008A0701D50FA602E0490704D50EA60125AC
:1003500001E0C046C046009F0024243704E000F0BE
:100360008FFA30313955641C0028F8D12B463246BB
:100370002146009800F001FAFEBD000000000000D8
:100380002D0000002B0000002000000070B5044686
:100390000D4621461068C046C0462188090502D591
:1003A0000F4A7A4402E00E4A7A440E322346002174
:1003B000243305E006070009360F965D5E54491C9C
:1003C0000028F7D120780023000705D5702D03D031
:1003D000002901D002231132204600F0CEF970BD71
:1003E00004660000F3B50446002081B02062204678
:1003F000E168884700287DD0252802D06268A1687E
:1004000083E0454F00257F442046E1688847202847
:10041000064608DB312E06D2B819203800780028AD
:1004200001D00543F0E7A80701D50420854300204B
:10043000E0610746A0612A2E0AD0304605F03AFA5C
:10044000002827D0B8000019303E0090866119E0DE
:100450000298BA00121902C8916102902046E16820
:100460008847012F064617D1E06900281FDA2020AF
:1004700085431CE000980A2180694843009980194F
:10048000303888612046E1688847064605F012FA50
:100490000028EFD1012F0AD02E2E08D12046E16886
:1004A00088470646202005437F1C022FC3DBA06936
:1004B000002803DA4042A06101200543E80701D08B
:1004C00010208543002E24D030464138192803D807
:1004D0000120C00205432036204625603146029A9D
:1004E0001546FFF71FFE00280CD0012807D0ED1D90
:1004F000E80800E00DE0C0000830029077E72D1D0D
:10050000029574E762683046A1689047206A401CF3
:100510006CE7206AFEBD0000C86500000B4A30B5DC
:1005200011460B4C60310B46DC3B0CC1372106E019
:10053000020C8D0012185A51064A504300190A46FF
:10054000491E002AF4DC30BD0120E7E7E805002061
:10055000E119D666CD0D0100F8B5042A2CD3830726
:1005600012D00B78491C0370401C521E83070BD01D
:100570000B78491C0370401C521E830704D00B7873
:10058000491C0370401C521E8B079B0F05D0C91AD3
:10059000DF002023DE1B08C90AE0FFF707FEF8BDD5
:1005A0001D4608C9FD401C46B4402C4310C0121F14
:1005B000042AF5D2F308C91A521EF0D40B78491C4C
:1005C0000370401C521EEAD40B78491C0370401C77
:1005D000012AE4D409780170F8BD01E004C0091FC4
:1005E0000429FBD28B0701D50280801CC90700D0EB
:1005F0000270704700290BD0C30702D00270401C64
:10060000491E022904D3830702D50280801C891E5B
:10061000E3E70022EEE70022DFE7002203098B4236
:100620002CD3030A8B4211D300239C464EE0034691
:100630000B433CD4002243088B4231D303098B4245
:100640001CD3030A8B4201D394463FE0C3098B427B
:1006500001D3CB01C01A524183098B4201D38B01D4
:10066000C01A524143098B4201D34B01C01A524177
:1006700003098B4201D30B01C01A5241C3088B42BC
:1006800001D3CB00C01A524183088B4201D38B00A7
:10069000C01A524143088B4201D34B00C01A524149
:1006A000411A00D201465241104670475DE0CA0F20
:1006B00000D04942031000D34042534000229C46E0
:1006C00003098B422DD3030A8B4212D3FC228901EA
:1006D00012BA030A8B420CD3890192118B4208D3C0
:1006E000890192118B4204D389013AD0921100E022
:1006F0008909C3098B4201D3CB01C01A5241830936
:100700008B4201D38B01C01A524143098B4201D362
:100710004B01C01A524103098B4201D30B01C01A8D
:100720005241C3088B4201D3CB00C01A5241830807
:100730008B4201D38B00C01A5241D9D243088B425D
:1007400001D34B00C01A5241411A00D20146634600
:1007500052415B10104601D34042002B00D5494264
:10076000704763465B1000D3404201B50020C0468D
:10077000C04602BD704770477047FFB504460D463E
:1007800081B0243000902168880604D51022E069E9
:100790009143216000E00120A84201DD471B00E0F9
:1007A00000270498A1697A191018081AA061207806
:1007B000C00602D42046FFF763FD002608E0039838
:1007C0006268A168805D9047206A401C761C2062A8
:1007D00004988642F3DB2078C0060AD52046FFF74E
:1007E0004FFD06E06268A16830209047206A401CF7
:1007F000206238467F1E0028F4DC07E0009862681B
:10080000A168405D9047206A401C206228466D1E0A
:100810000028F3DC2046FFF749FD2078000602D5CA
:10082000022005B0F0BD0120FBE710B54369002BA5
:1008300002D0C046C04601E0FFF749FD012010BDCF
:100840001278014624310A7000224A700122ECE736
:1008500011680022D243E8E7084B70B50D467B448F
:1008600000F027F80446284605F078FA002802D060
:100870000020C04370BD204670BD0000015500003F
:1008800001468008081A02091018020A1018020C02
:100890001018C008820012185200891A01E0401C8A
:1008A0000A390A29FBD2704701694A1C026108789B
:1008B000704700B58FB00291002105910549019361
:1008C00079440391114604906846FFF78BFD0FB001
:1008D00000BD0000E5FFFFFF754600F025F8AE46BD
:1008E000050069465346C008C000854618B020B5CB
:1008F000FFF7A6FC60BC00274908B6460026C0C525
:10090000C0C5C0C5C0C5C0C5C0C5C0C5C0C5403DC7
:1009100049008D46704710B50446C046C046204683
:10092000FFF721FC10BD0000004870475006002072
:1009300070B58C180578401C6B075B0F01D10378EC
:10094000401C2A1106D10278401C03E00678401CA6
:100950000E70491C5B1EF9D12B0705D40023521ED3
:100960000DD40B70491CFAE70378401CCB1A921C7B
:1009700003E01D780D70491C5B1C521EF9D5A14285
:10098000D8D3002070BD000010B503F081FA0249F1
:10099000024803F009FB10BD694D00005805002016
:1009A00010B504F009FA00F071FC4B21C9010020D8
:1009B00000F0DEFD012000F0CFFD00F08BFD00F027
:1009C000A9FD10BD00B5C0218978CA081549D2001B
:1009D00009781143E0390B0004F03AFF13171B1F8D
:1009E000210C0C0C0C0D1115191D0C0C0C0B0F13FC
:1009F0000C000D4800BD0D4800BD0D4800BD0D4860
:100A000000BD0D4800BD0D4800BD0D4800BD0D489E
:100A100000BD0D4800BD0D4800BD0D4800BD0D488E
:100A200000BD0000201C02400090D003006CDC02DE
:100A30000048E80100366E010024F400001BB700F6
:100A400000127A00808D5B0000093D00C0C62D00B9
:100A500080841E0040420F0008B50022012800D10A
:100A60004122012901D112231A43022801D1C023B6
:100A70001A43022901D130231A430F4B1A705A78B6
:100A80005206520E5A70012804D1FF209A78024073
:100A90008242FBD15878BF2210405870012909D1F9
:100AA00000200090FF20693000BF0099491C009190
:100AB0008142F9D908BD00000004024070B5054626
:100AC00000F09EFC0646102D0CD006DC022D0BD04B
:100AD000042D0FD0082D10D10EE0202D06D0402D72
:100AE0000BD105E0012408E0022406E0042404E020
:100AF000062402E0032400E005242946602000F0DB
:100B000075F91EE0642000F075FC00F0FBF8A042CF
:100B100015D0402D02D0082D13D108E0642000F03C
:100B200069FC6A2000F032F900070AD507E064206A
:100B300000F060FC6D2000F029F9C00701D0012011
:100B400070BD00F05DFC801B0A28DBD3002070BD67
:100B5000F8B500273D463C46662000F017F98006B0
:100B6000C10F6D20009100F011F906466A2000F0D7
:100B70000DF90099002903D0F143C043CEB2C0B2B1
:100B8000F10900D0202572060121002A00DA0D4368
:100B9000B20600D50D43F20602D5102215431446C5
:100BA000320702D5082215431443720702D50422E6
:100BB00015431443B3070222002B01DA15431443F3
:100BC000F20701D00D430C43820602D50227802292
:100BD0001443C20602D50F4340210C43000703D53E
:100BE000042007432020044339466A2000F0FEF821
:100BF00029466B2000F0FAF80098002801D0E04365
:100C0000C4B22046F8BD10B56E2000F0BFF804460F
:100C100002216C2000F0EAF8204610BD10B56E20CD
:100C200000F0B4F8044601216C2000F0DFF8204603
:100C300010BD10B50146652000F0D8F810BD10B504
:100C40000446672000F0A2F84109490121436720CA
:100C500000F0CCF810BDF8B515460E460746002446
:100C600006E0E019315DC0B200F0C0F8641CE4B2E7
:100C7000AC42F6D30120F8BD10B50446662000F062
:100C800085F80146002C02D0012C05D008E0802018
:100C90000143BF20014003E04106490E40200143CB
:100CA000662000F0A3F810BD10B50146682000F0E2
:100CB0009DF810BD10B504460D2000F067F8002C1B
:100CC00002D0E021014303E04106490E9F2001408C
:100CD0000D2000F08BF810BD10B5692000F056F81B
:100CE00041084900FB200140692000F07FF810BD59
:100CF00010B5692000F04AF805210143692000F091
:100D000075F810BD10B5612000F040F80007000F25
:100D100010BD10B50820FFF7D1FE10BD10B5102092
:100D2000FFF7CCFE10BD10B50220FFF7C7FE10BDC7
:100D300010B54020FFF7C2FE10BD10B500F04CF812
:100D4000022000F047FB0220FFF7B8FE612000F010
:100D50001DF810210843DF210140612000F046F812
:100D6000622000F013F820210143622000F03EF8D9
:100D70000020FFF79FFFFFF7EBFE10BD10B504F05A
:100D800007FE10BD10B504F08FFE10BD08B5FF21A1
:100D90006A461170694604F033FE6A46107808BD51
:100DA00010B504466620FFF7F1FF002C02D0DF21CA
:100DB000014001E020210143662000F017F810BD3A
:100DC00010B55120FFF7E2FF81088900022001439E
:100DD000512000F00BF810BD10B5FF217F2000F06E
:100DE00005F810BD10B504F055FF10BD10B504F0A6
:100DF00002FF10BD10B50920FFF7C8FFC108C900E8
:100E0000022001430920FFF7F1FF10BD70B5054630
:100E10000146B1A0FFF726FAB24C6570FFF7AEFFAE
:100E2000FFF78BFF06220F202B0004F011FD0906AF
:100E3000284F7294B7DAFDFCFB0020700C22AA49FF
:100E40000020FFF708FFA8490C220C311046FFF7DD
:100E500002FFA549082248391820FFF7FCFEA249E5
:100E6000182218312020FFF7F6FE9F491D2230314D
:100E70003820FFF7F0FE9C490B224D3121E09A49C2
:100E800020700C2258310020FFF7E5FE96490C2215
:100E900064311046FFF7DFFE9349082240391820DD
:100EA000FFF7D9FE9049182270312020FFF7D3FEBA
:100EB0008D491D2288313820FFF7CDFE8A490B224B
:100EC000A5315520FFF7C7FE012001E186492270B8
:100ED0000C22B0310020FFF7BEFE83490C22BC314A
:100EE0001046FFF7B8FE8049082238391820FFF76E
:100EF000B2FE7D491822C8312020FFF7ACFE7A49A6
:100F00001D22E0313820FFF7A6FE77490B22FD3184
:100F1000D7E722700C2275490020FFF79CFE734929
:100F20000C220C311046FFF796FE6F49082230392B
:100F30001820FFF790FE6D49182218312020FFF786
:100F40008AFE6A491D2230313820FFF784FE674946
:100F50000B224D31B5E7654922700C225831002033
:100F6000FFF779FE61490C2264311046FFF773FEEA
:100F70005D49082228391820FFF76DFE5B491822C9
:100F800070312020FFF767FE58491D228831382034
:100F9000FFF761FE55490B22A53192E753492270B4
:100FA0000C22B0310020FFF756FE50490C22BC3114
:100FB0001046FFF750FE4C49082220391820FFF751
:100FC0004AFE4A491822C8312020FFF744FE47490B
:100FD0001D22E0313820FFF73EFE44490B22FD314F
:100FE0006FE722700C2242490020FFF734FE40498F
:100FF0000C220C311046FFF72EFE3B49082218390F
:101000001820FFF728FE3A49182218312020FFF750
:1010100022FE37491D2230313820FFF71CFE0B22FB
:10102000334902E056E02DE005E04D315520FFF751
:1010300012FE02204CE02E4922700C225831002072
:10104000FFF709FE2A490C2264311046FFF703FE20
:101050002549082210391820FFF7FDFD24491822E0
:1010600070312020FFF7F7FD21491D2288313820FB
:10107000FFF7F1FD1E490B22A5315520FFF7EBFDCF
:10108000032025E01A4922700C22B0310020FFF71E
:10109000E2FD17490C22BC311046FFF7DCFD124976
:1010A000082208391820FFF7D6FD11491822C83147
:1010B0002020FFF7D0FD0E491D22E0313820FFF738
:1010C000CAFD0B490B22FD315520FFF7C4FD04205A
:1010D00003F058F870BD00005246206D6F64653D06
:1010E00025640A00900100207E66000086670000EB
:1010F0008E68000001490020087070470000002041
:1011000070B50023012407E0C55CCE5CB54201D078
:10111000002403E05B1CDBB29342F5D3204670BD94
:1011200010B500F08FF8002805D100F091F80028E4
:1011300001D102F029FD10BD70B50346002007263D
:1011400011E01D788022040603D54006000E704091
:1011500001E04006000E154200D07040D40FA218E6
:101160005210F0D15B1C0A46491EC9B2002AE8D1D0
:1011700070BD000001484068807870475C01002025
:1011800070B505460024012000F040F90646FFF73F
:10119000C5F9022D06D0012D0DD0042D14D0032D3C
:1011A0002BD033E0FEF7E6FF2321FFF740FA64205F
:1011B0004143194828E0FEF7DDFF3221FFF737FAF7
:1011C0003220414315481FE0FEF7D4FFFF21913143
:1011D000FFF72DFA4C1C304600F00CF9012000F00E
:1011E00015F9FEF7C7FFFF212D31FFF720FA481C44
:1011F000A200A1180A22504306E0FEF7BBFFC82157
:10120000FFF715FA491C8800081884B2214604A08B
:10121000FFF728F8204670BD44160000CA080000F9
:101220005427203D2025640A000000000148406941
:10123000704700000000002001484069407B704773
:10124000000000200148006870470000BC01002039
:101250000148807A704700005805002070B50025CD
:1012600003F064FC064A1168884201D3441A01E085
:10127000441A641E002C01D025461060284670BD1B
:10128000A400002000487047E004002010B50021B1
:101290000522084602F096FC05220121002002F0FA
:1012A00091FC05220221002002F08CFC002108465E
:1012B00002F074FC0121002002F070FC02210020E9
:1012C00002F06CFC05220021012002F07BFC0121D0
:1012D0000522084602F076FC05220221012002F0D8
:1012E00071FC05220321012002F06CFC0021012089
:1012F00002F054FC0121084602F050FC02210120BA
:1013000002F04CFC0321012002F048FC05220021E0
:10131000022002F057FC05220121022002F052FCBB
:1013200005220421022002F04DFC05221146022074
:1013300002F048FC05220621022002F043FC0021B5
:10134000022002F02BFC0121022002F027FC0421E4
:10135000022002F023FC0521022002F01FFC0621DE
:10136000022002F01BFC05220021032002F02AFCCF
:1013700005220121032002F025FC05220221032081
:1013800002F020FC05221146032002F01BFC05227E
:101390000621032002F016FC05220721032002F09B
:1013A00011FC0021032002F0F9FB0121032002F0CF
:1013B000F5FB0221032002F0F1FB0521032002F0DE
:1013C000EDFB0621032002F0E9FB0721032002F0D8
:1013D000E5FB10BD10B5020008D0054C236821685C
:1013E0000120C91A00F006F89142F8D310BD0000A0
:1013F000C0000020002802D000BF401EFCD1704772
:101400000148006870470000C000002000207047BD
:101410004100064A10B5401881184978105C02F066
:10142000C7FB002800D0012010BD0000AD00002047
:10143000F8B50E4641000A4F4518EC19A07800F0A7
:10144000BFFE012E06D0002E03D16178785D02F038
:10145000A5FBF8BD6178785D02F010FCF8BD0000D6
:10146000AD00002010B5094A4300C01884180229B5
:1014700009D0032906D1A078012100F0C7FDA0788A
:1014800000F078FE10BDA0780221F6E7AD00002044
:101490000F4B4200801810B5C218002909D001294D
:1014A0000BD002290FD004290CD15178185C0122ED
:1014B00006E05178185C042202E05178185C0022A2
:1014C00002F080FB10BD5178185C0522F8E700009F
:1014D000AD00002010B501210020FFF7BDFA01206A
:1014E00002F0AAFF03F01EF80948192181710821B2
:1014F0004171062202713122C27081703021417027
:101500000021017002F0EEFF032002F0C7FF10BDC2
:101510000401002010B50C487D21C9000068FFF7C8
:101520007CF80A49401E88420CD80949486109489C
:101530000722C3691B021B0A4C042343C36100201A
:1015400088610A6110BD0000C0010020FFFFFF009C
:1015500000E000E004ED00E010B51421012003F0EC
:1015600075FC0249012003F0F5FC10BDFFFF0000EF
:1015700010B50448006803F0D9FD802800D1FEE7CB
:1015800010BD0000C001002070B515460E460024B5
:1015900004E0305D03F046FE641CA4B2AC42F8D314
:1015A00070BD0000F8B50C4605460B78294A2A495B
:1015B0002AA0FEF757FE207801262D4F132836D09B
:1015C00007DC2C49012812D002281FD005280DD194
:1015D0000AE0142836D0192822D0302806D1A27863
:1015E0006178032003F066FE2E712F60F8BD084677
:1015F00003F078FA0520A872FFF744FE00231E4A84
:101600001E4903F03EFD1E498862F8BD084603F0FE
:1016100071F90020A8721A48806A03F00FFDF8BD26
:10162000E378A2786178082000F0ACFBF8BD6E7218
:10163000E378A2786178082000F0A4FB2E711148AD
:101640002860F8BDE378A2786178082000F09AFB62
:10165000CAE700000F050000C66300005B495D2576
:1016600073282564293A7369673D25640A0A0000D6
:10167000394B0000000000020D3D000080EE3600F6
:101680000000002089160000F8B50C4605460B78CE
:10169000284F294A29492AA0FEF7E4FD207801268F
:1016A000142836D007DC2B49012813D0022820D07B
:1016B00005280ED133E0284F152834D0192821D021
:1016C000312806D100220221032003F0F3FD2E7100
:1016D0002F60F8BD084603F005FA0520A8726E7267
:1016E000FFF7D0FD00231D4A1D4903F0CAFC7862B4
:1016F000F8BD084603F0FEF80020A872786A03F0EF
:101700009DFCF8BDE378A2786178082000F03AFBF0
:10171000F8BDE378A2786178082000F033FB2E71E1
:1017200010482860F8BDE378A2786178082000F0BE
:1017300029FBCCE700000020D4040000B2630000C5
:101740005B495D2573282564293A7369673D2564E3
:101750000A0A000000000002691700000D3D0000A9
:1017600080EE3600394B0000F8B50C4605460B7884
:10177000304F314A314932A0FEF774FD20780126FE
:10178000152826D01EDC052818D00DDC314901288B
:1017900030D0022807D1084603F0ACF80020A87228
:1017A000386A03F04BFCF8BD132831D01428FAD165
:1017B000E378A2786178082000F0E4FA26482E71D8
:1017C0002860F8BD2F282DD00ADC162801D0192852
:1017D000F7D1E378A2786178082000F0D3FAF8BD59
:1017E000312801D03228FAD1A2786178032003F0A1
:1017F00061FDF8BD084603F075F90520A872FFF7F2
:1018000041FD0023154A164903F03BFC3862F8BD40
:101810006E72E378A2786178082000F0B3FA2E7136
:101820001048CDE7A2786178032003F043FD2E71C4
:101830000D48C5E7000000208B0400009A630000FB
:101840005B495D2573282564293A7369673D2564E2
:101850000A0A000000000002394B00000D3D0000A4
:1018600080EE360089160000A5150000F0B53D4E4B
:10187000054685B0002074690290039004900F46DD
:101880000B78394A39493AA0FEF7ECFC3878012741
:101890000A284AD018DC012827D0022840D009287D
:1018A00021D1F06A03F0CAFB002003230146019016
:1018B0001A46009702A803F0FDF8E079019700901E
:1018C000A3796279217944E00B2834D00C2801D027
:1018D000402808D1F06A03F0B1FB306B03F0AEFB97
:1018E0002F712848286005B0F0BD274841680120C5
:1018F00088470120400503F0F5F80220A872FFF7A1
:10190000C1FC0023214A224903F0BBFBF062FFF730
:10191000B9FC00231F4A204903F0B3FB3063E2E720
:101920000120400502F0E6FFDDE70022072101204B
:1019300003F0C0FCD7E7002505230322294602A8AF
:101940000097019503F0B6F801970095A17A00235E
:101950001A4602A803F0B7F8012102A800F0DCFA49
:10196000C1E700000000002076050000D3630000FE
:101970005B495D2573282564293A7369673D2564B1
:101980000A0A0000394B000090010020593D000078
:10199000B80B0000A93D000060EA0000FEB5047A23
:1019A00005461A480026476900960196012C05D085
:1019B000287923460122052100F07EFA13492046AA
:1019C0008031032401280BD0022808D1052048705B
:1019D0002D20694608704C70684602F0F7FAFEBD8B
:1019E0000B488278A87A8242F9D10D46486803F004
:1019F00025FB6E606C70A1220021384602F0A6FF24
:101A00000028ECD003F084F8FEBD000000000020A8
:101A1000C4010020FEB5077A054600263848009626
:101A200001964469A87A012801D1042F15D0012F0D
:101A300008D0687AC00705D028793B4601220821E2
:101A400000F03AFA2F203B0003F002FF0C1D102A91
:101A50002C1E1D1D333A41484F1D2A484168012064
:101A60008847FF202D30FFF7B5FCE2E72648A97A2A
:101A70008078884207D1224C8034606803F0DEFA17
:101A8000032066606070FEBD607BA12806D12E2019
:101A9000694608700420487001208870684605E097
:101AA000312000E032206946087026E002F08EFA0C
:101AB000FEBD617BA129FBD16946087007201BE0B0
:101AC000617BA129F4D169460870082014E0617B8C
:101AD000A129EDD16946087009200DE0617BA1299B
:101AE000E6D1694608700A2006E0607BA128DFD1B4
:101AF0003020694608700B2048700846D6E7000081
:101B00000000002090010020C40100207FB50146A4
:101B1000002000900190029003901E480F2245691A
:101B20001D4841186846FEF717FD6846C4791B48F2
:101B3000817A022916D0042269462846FFF7E0FA86
:101B4000002812D068464179E87A814201D0FD2907
:101B50000BD1230003F07CFE09090A0909090E12C2
:101B6000161A0900684600F035F87FBD684600F097
:101B70004BF97FBD6846FFF711FF7FBD684600F057
:101B8000B1F87FBD684600F00BF87FBD6846FFF7EF
:101B900041FF7FBD000000200E02002058050020FC
:101BA00010B5037A012B05D000790122072100F03E
:101BB00083F910BD807A0228FBD1054C606803F0E0
:101BC0003DFA00206060032060700120207010BD8D
:101BD00080000020FEB504460F4600203B490290DD
:101BE000267A4D69009001902078002808D160780D
:101BF000002805D1A078002802D1E07800282CD058
:101C0000214604220A3102A8FEF7A6FC012E28D0A4
:101C1000032E43D0052E1FD1022F1DD104222146B1
:101C20002846FFF76DFA002816D0042202A9281DC5
:101C3000FFF766FA00280FD0334601220321002067
:101C400000F03AF920792873012068720A20694669
:101C50000870684602F0BAF9FEBD1DA0FEF702FB4F
:101C6000FEBD1F48A17A80788842F9D1174D803592
:101C7000686803F0E3F90020686003206870A07AC8
:101C80000528EDD1022FEBD1A1220121204602F03F
:101C90005DFE0028E4D002F03BFFFEBD022FFCD128
:101CA000042202A9281DFFF72BFA0028F5D00422F0
:101CB00021462846FEF750FC6079E872334601223F
:101CC0000321002000F0F8F80920C0E70000002000
:101CD00048756220494420697320300A00000000E2
:101CE000C4010020FEB50446067A24480027456951
:101CF00000970197A079012801D002281CD1012E5C
:101D000005D0207933460122062100F0D5F8012EB6
:101D100005D0042E11D0052E0ED129201BE0184825
:101D2000A17A8078884207D1144C8034606803F02F
:101D300085F9032067606070FEBD2079002810D00F
:101D4000287302206872A1220121204602F0FEFDC4
:101D50000028F1D0282069460870684602F036F95C
:101D6000FEBD01202F7368720146A122204602F0B9
:101D7000EDFD0028F4D02720EDE700000000002052
:101D8000C4010020FFB51E460B461D4985B0002446
:101D900049690294039404944F7A01222546022F44
:101DA00001D1CC7A0322009201950246097B02A858
:101DB00002F080FE0120019023463246009502A8E1
:101DC000079902F080FE012102A800F0A5F80C4C52
:101DD00080340BE003F022F802F00EFD03F080FCEB
:101DE000084802F0D1F86078052804D0606800281F
:101DF000F0D109B0F0BD606803F020F96560F8E744
:101E000000000020580500207CB5144A017A002407
:101E1000526900940194012916D0022913D1407906
:101E2000FD2810D1107A032803D0042801D00728F8
:101E300009D10B484168012088472C206946087069
:101E4000684602F0C3F87CBD044D8035686803F035
:101E5000F5F803206C6068707CBD00000000002075
:101E600090010020F7B506460F4600240DA0FEF7AE
:101E7000F9F90D4D05E0315D0CA0FEF7F3F9641C96
:101E8000E4B22878A042F6D809A0FEF7EBF9696819
:101E900038468847AC692978064B3046029AA047F5
:101EA000FEBD000054783A00900100202578200003
:101EB0000A00000070170000FFB5154885B045699D
:101EC000002416460F4600940194029404222946E9
:101ED00068460394FEF740FBE87A69460871059866
:101EE0004871287A8871CF710E72089888720948F3
:101EF0004C720078401EC1B26846FFF71DF9694672
:101F00008873002201216846FFF7ACFF09B0F0BDDD
:101F10000000002090010020F0B50446304885B054
:101F2000456900200E4600900190029007460390FC
:101F3000042229466846FEF70FFBE87A69460871D5
:101F400020784871287A88716078C871A078087202
:101F5000E0784872207988726079C872A079087335
:101F6000E079204D48732878401EC1B26846FFF7DB
:101F7000E3F8694688730A2221461B48FEF7ECFA0B
:101F8000627A217A6846FFF76DFFE8698047207A18
:101F9000002802D0012802D002E0022700E0012739
:101FA000012E19D16846407AC00715D00C4D8035F6
:101FB0006868002810D13846FFF7E2F80446FFF7BA
:101FC00061F90646002C09D0204601460023074A45
:101FD000304603F056F8686005B0F0BD0120F4E724
:101FE0000000002090010020C4010020C53D000039
:101FF0000548417C4906490E417400BF00BF00BF3F
:1020000000BF00BF70470000201A0440F8B5CA079F
:10201000C6070225514F524BD20F0024002E1FD06D
:10202000504E35747D78012635437D704E4D6E7867
:10203000760876006E704D4E012535704C4D2C7033
:102040005D7E6D086D005D761D7E6D086D001D76F0
:102050005D7E15435D761D7E8E07F60F35431D763A
:10206000022685073140002D21DA3E4D032620351A
:10207000AE77FD7880263543FD703B4DEE787606D1
:10208000760EEE70394E0125361D3570384D2D1DFA
:102090002C705E7EFD252E405E761E7E2E401E76C6
:1020A0005D7E560035435D761D7E0D431D764507EA
:1020B00023D52C4E042520363573BD784026354374
:1020C000BD70294DAD78BF263540274EB570274EDF
:1020D000012508363570264D08352C705E7EFB25AF
:1020E0002E405E761E7E2E401E765D7E9600354327
:1020F0005D761D7E4E0035431D76000720D51948BC
:10210000052520300570B87801252843B870164899
:102110008678AE43867015480C30057014480C3034
:102120000470587EF72528405876187E2840187687
:10213000587ED20010435876187E890008431876DE
:102140006846047004E000BF69460878401C0870C7
:10215000684600780128F6D9F8BD00002003044045
:10216000205B04400008044060000440046100401B
:1021700004600040C2070021002A03D00E4A1170FB
:102180000E4A1170820705D50B4A121D11700B4AB9
:10219000121D1170420705D5074A08321170074A0F
:1021A00008321170000705D503480C300170034850
:1021B0000C30017070470000046000400461004072
:1021C000C30700220121002B03D00E4B19700E4BC8
:1021D0001A70830705D50B4B1B1D19700A4B1B1D6D
:1021E0001A70430705D5074B08331970064B08339F
:1021F0001A70000705D503480C30017002480C30F6
:1022000002707047046100400460004010B502F0A5
:10221000C1FD09490020087008480169491C016195
:1022200007490988CA070749098B02D0064A891855
:1022300000E0491C016010BD446000401C0100200A
:10224000A01D0440001F04400100010009490020B6
:10225000087009484169491C416108494988CA0711
:102260000749498B02D0074A891800E0491C4160A0
:1022700070470000486000401C010020A01D044081
:10228000001F0440010001000949002008700948AE
:102290008169491C816108498988CA070749898879
:1022A00002D0074A891800E0491C8160704700008D
:1022B0004C6000401C010020A01D0440601F044031
:1022C000010001000949002008700948C169491C42
:1022D000C1610849C988CA070749C98802D0074AA5
:1022E000891800E0491CC160704700005060004040
:1022F0001C010020A01D0440601F044001000100DB
:102300000949002008700948016B491C016308490C
:102310000988CA070749098B02D0074A891800E0D3
:10232000491C0162704700006C6000401C010020E5
:10233000A0210440002304400100010009490020BD
:1023400008700948416B491C416308494988CA071C
:102350000749498B02D0074A891800E0491C4162AD
:1023600070470000706000401C010020A021044064
:1023700000230440010001000949002008700948B9
:10238000816B491C816308498988CA070749898884
:1023900002D0074A891800E0491C8162704700009A
:1023A000746000401C010020A02104406023044010
:1023B000010001000949002008700948C16B491C4F
:1023C000C1630849C988CA070749C98802D0074AB2
:1023D000891800E0491CC162704700007860004025
:1023E0001C010020A02104406023044001000100E2
:1023F00070B50E4604460B781B4D1C4A1C491DA0A7
:10240000FDF730FF3078012147282AD009DC1E4A29
:1024100001280ED002281AD0352809D121711B4875
:1024200005E048281DD0512802D1194821712060AB
:1024300070BD104602F056FB0520A072FEF722FF89
:102440000023144A144902F01CFE686670BD104651
:1024500002F050FA0026A672686E02F0EFFD6E667A
:1024600070BD21710D48E2E700000020FD09000069
:102470001E6500005B495D2573282564293A736950
:10248000673D25640A0A000000000002394B000085
:10249000B92900009534000080EE3600A124000028
:1024A000F8B5002700970D4604460B78364A3749A1
:1024B00037A0FDF7D7FE28783A4E012543285BD098
:1024C00009DC394901282CD0022849D0412846D1BD
:1024D0002571364855E0442851D04C2849D05A2817
:1024E0003DD10B226B4603215A709970197001215E
:1024F000684601F0A5F90220FEF76CFF02226B4648
:1025000003215A700120997018700146684601F045
:1025100097F9B07A411CB172022820D9257124485C
:102520002FE0084602F0DEFA0820A072B7720220FF
:102530006B465870032207219A7019700121684672
:1025400001F07EF90320FEF71BFE0446FEF79AFE1B
:1025500019490023174A611802F093FDF065F8BD90
:10256000084602F0C7F9A772F06D02F067FDF76543
:10257000F8BD2571114804E02571114801E01148AA
:1025800025712060F8BD000051090000D5640000ED
:102590005B495D2573282564293A7369673D256485
:1025A0000A0A00000000002000000008D5280000F2
:1025B000394B00006134000050140000852F0000EA
:1025C0000128000029270000F8B5002700970D46D4
:1025D00004460B78444A454945A0FDF743FE287858
:1025E000484E0125412853D00BDC474901281DD016
:1025F000022844D0382872D039283FD12571434869
:102600006FE0434F4B284CD04C2844D0572835D14D
:1026100006226B4603215A70997019700121684691
:1026200001F00EF9307A411C317254E03772777242
:10263000084602F057FA0420A0720B216B4659702D
:1026400003221F209A7018700121684601F0F8F8E3
:102650000220FEF7BFFE06226B4603205A709870D8
:102660000F2119700121684601F0EAF8FEF70AFE11
:102670000023284A284902F004FDB064F8BD08464A
:1026800002F038F9A772B06C02F0D8FCB764F8BD5C
:102690002571224825E02571214822E02571276017
:1026A000F8BD0B226B4603215A70997019700121F5
:1026B000684601F0C5F80220FEF78CFE06226B4644
:1026C00003215A70997019700121684601F0B8F819
:1026D000707A411C71720228E0D8F8BDFFE71148FA
:1026E00025712060F9E7000091080000696400008E
:1026F0005B495D2573282564293A7369673D256424
:102700000A0A000000000020000000080D3200004E
:10271000394B00007B34000088130000D5280000EE
:10272000852F000089330000F8B5002600960D467D
:1027300004460B78244A254925A0FDF793FD287807
:102740000127284D352836D00DDC2749012811D026
:10275000022807D1084602F0CDF8A672686D02F093
:102760006DFC6E65F8BD472801D04828FAD1277165
:102770001E4826E0084602F0B5F90520A072812225
:102780006B4602215A70997000201870012168462A
:1027900001F056F8FEF776FD0223154AC82102F033
:1027A00070FC6865FEF76EFD0023124A124902F0C4
:1027B00068FCA865F8BDA86D02F040FCAE650F4846
:1027C00027712060F8BD00001B090000B364000001
:1027D0005B495D2573282564293A7369673D256443
:1027E0000A0A00000000002000000002A1240000EE
:1027F000B53500009534000080EE3600394B0000FE
:10280000F8B5002600960D4604460B78234A244965
:1028100024A0FDF727FD28780127274D352835D03E
:102820000CDC2649012810D0022806D1084602F007
:1028300061F8A672E86C02F001FCF8BD472801D0EF
:102840004828FAD127711E4826E0084602F04AF9C6
:102850000520A07241226B4602205A709870002118
:1028600019700121684600F0EBFFFEF70BFD012314
:10287000144AC82102F005FCE864FEF703FD0023BA
:10288000114A124902F0FDFB2865F8BD286D02F0DF
:10289000D5FB2E650E4827712060F8BDE5080000C5
:1028A0008E6400005B495D2573282564293A7369AD
:1028B000673D25640A0A00000000002000000002B5
:1028C000A1240000B53500009534000080EE3600EC
:1028D000394B0000F8B5002600960D4604460B78EB
:1028E000274A284928A0FDF7BDFC28787D27FF004E
:1028F0002A4D0121422825D009DC294A01280ED081
:10290000022816D0412809D12171264805E04E2819
:102910001BD0552802D1244821712060F8BD1046F3
:1029200002F0E0F80320A0722048416803208847A5
:102930001DE0104601F0DEFFA672686C02F07EFB1F
:102940006E64F8BD21711A48E7E70C226B4603213B
:102950005A7099701F2018700121684600F070FFAE
:102960003846FEF737FD686C02F068FB6E64FEF7D0
:1029700089FC00230F4A394602F083FB6864F8BDE6
:10298000530800004A6400005B495D2573282564F4
:10299000293A7369673D25640A0A00000000002097
:1029A00000000004D52800008D38000090010020B0
:1029B000C925000049360000F8B5002700970D46EC
:1029C00004460B78474E484A484949A0FDF74AFC5F
:1029D00028780125442855D00BDC4A49012837D0F6
:1029E000022840D0412847D0432830D1257146489D
:1029F0002CE04A2849D04B2859D04C283FD05A289F
:102A000025D1F06E02F01AFB0B216A46F766517071
:102A10000320907017700121684600F011FF022317
:102A20006A46032153700120917010700146684678
:102A300000F006FF0C236A460320537090700121BA
:102A40001170684600F0FCFE304825712060F8BD2A
:102A5000084602F047F80820A07200220B2103204C
:102A600002F028FC15E0084601F044FFA772F06E62
:102A700002F0E4FAF766F8BD25712548E6E725710E
:102A80002448E3E725712448E0E7F06E02F0D6FA27
:102A9000F7660420FEF774FB0446FEF7F3FB2146BD
:102AA00000231E4A193102F0ECFAF066F8BD03204B
:102AB000FEF766FBFEF78EFC0B226B4603215A7075
:102AC000997019700121684600F0BAFE0220FEF7E5
:102AD00081FC022203206B465A7098701870012105
:102AE0006846AFE700000020960A00005565000028
:102AF0005B495D2573282564293A7369673D256420
:102B00000A0A00000000000801280000394B0000FC
:102B1000D5280000852F000029270000613400001F
:102B2000F8B5002700970D4604460B784C4E4D4AE9
:102B30004D494EA0FDF796FB287801254A2863D021
:102B40000BDC4F4901282AD0022847D0352852D023
:102B5000412823D125714B481FE04B2866D04C28D3
:102B60004FD057281AD10B226B4603215A70997007
:102B7000002018700121684600F062FE0220FEF776
:102B800029FC06226B4603215A70997019700121A5
:102B9000184600F055FE3C4825712060F8BD0846F7
:102BA00001F0A0FF0320A0720222042102F082FBA8
:102BB0000420FEF7E5FA0446FEF764FB21460023F5
:102BC000324A193102F05DFA3067FEF75BFB0023F1
:102BD0002F4A304902F055FA7067F8BD084601F0F7
:102BE00089FEA772306F02F029FA3767706F02F022
:102BF00025FA7767F8BD02220421032002F05AFB70
:102C0000C9E725712448C8E7306F02F017FA04209D
:102C10003767FEF7B5FA0446FEF734FB214600237A
:102C20001A4A193102F02DFA3067F8BD0320FEF779
:102C3000A7FAFEF7CFFB0B226B4603205A70987061
:102C400018700121684600F0FBFD0220FEF7C2FB70
:102C500006226B4603205A709870187097E70000A0
:102C600000000020F80A0000796500005B495D253E
:102C700073282564293A7369673D25640A0A0000B0
:102C800000000008D5280000394B00007B3400000C
:102C90009534000020BF0200852F0000F3B581B0FD
:102CA00004460026029800960378484D484A494950
:102CB00049A0FDF7D7FA029801270078482815D0D7
:102CC00017DC43285FD00DDC484901284BD002288F
:102CD00007D1084601F00EFEA672A86E02F0AEF90A
:102CE000AE66FEBD442851D04728FAD1277140482E
:102CF00037E04A2850D051284BD054285ED059286C
:102D0000EFD1A86E02F09AF90B216A46AE665170B7
:102D10000320907016700121684600F091FD81211A
:102D20006A4651700220907016700121684600F0CA
:102D300087FD0C236A4603215370012091701070A7
:102D40000146684600F07CFD2B7B6A4603215370E8
:102D50000120917010700146684600F071FD254811
:102D600027712060FEBD2E73084601F0BBFE0520D2
:102D7000A0722148416803208847002208210320CF
:102D800002F098FA0CE027711C48EAE727711C480A
:102D9000E7E727711B48E4E7A86E02F04FF9AE663B
:102DA0000420FEF7EDF90446FEF76CFA17490023FC
:102DB000154A611802F065F9A866FEBD0298072160
:102DC00042782A73032002F075FAFEBD000000204D
:102DD000330A0000356500005B495D2573282564D2
:102DE000293A7369673D25640A0A00000000000261
:102DF000A1240000F1230000900100200128000020
:102E000029270000B9290000AF3400005014000049
:102E1000F3B581B004460026029800960378484D29
:102E2000484A494949A0FDF71DFA02980127007850
:102E3000482815D017DC43285FD00DDC484901280D
:102E40004BD0022807D1084601F054FDA672286E27
:102E500002F0F4F82E66FEBD442851D04728FAD17E
:102E60002771404837E04A2850D051284BD0542889
:102E70005ED05928EFD1286E02F0E0F80B216A46A7
:102E80002E6651700320907016700121684600F084
:102E9000D7FC41216A4651700220907016700121C2
:102EA000684600F0CDFC0C236A46032153700120D4
:102EB000917010700146684600F0C2FCEB7A6A46D9
:102EC000032153700120917010700146684600F094
:102ED000B7FC254827712060FEBDEE72084601F060
:102EE00001FE0520A0722148416803208847002286
:102EF0000721032002F0DEF90CE027711C48EAE705
:102F000027711C48E7E727711B48E4E7286E02F0A9
:102F100095F82E660420FEF733F90446FEF7B2F961
:102F200017490023154A611802F0ABF82866FEBD68
:102F3000029807214278EA72032002F0BBF9FEBD35
:102F4000000000209C090000FB6400005B495D2537
:102F500073282564293A7369673D25640A0A0000CD
:102F600000000002A1240000F123000090010020D5
:102F70000128000029270000B9290000AF34000013
:102F800050140000F8B5002700970D4604460B7852
:102F9000544E554A554956A0FDF764F92878012545
:102FA0004A2877D00BDC5749012841D0022864D049
:102FB000352870D041283AD12571534890E04C28EB
:102FC0006FD04E286AD0562831D1A07A03282ED14E
:102FD0007773B06F02F032F80B226B46B7670321AC
:102FE0005A709970022018700121684600F028FC80
:102FF00005216B465970032098701F7001216846A7
:1030000000F01EFC05216B465970022098701F705D
:103010000121684600F014FC0C226B4603215A7013
:103020000120997018700146684600F009FCF8BD4F
:10303000084601F057FD0320A072344875734168BB
:103040000320884701220421032002F033F90420E1
:10305000FEF796F80446FEF715F92E4900232C4A90
:10306000611802F00EF8B067FEF70CF900232A4A47
:103070002A4902F006F8F067F8BD084601F03AFC6C
:10308000A772B06F01F0DAFFB767F06F01F0D6FFFB
:10309000F767F8BD08E01CE003E0FFE72571204872
:1030A0001EE025711F481BE0707B0128F1D1B06F35
:1030B00001F0C4FF0420B767FEF762F80446FEF78C
:1030C000E1F814490023124A611801F0DAFFB067F1
:1030D000DFE702220421032002F0ECF812482571F8
:1030E0002060D6E7000000205A0B00009C6500001D
:1030F0005B495D2573282564293A7369673D25641A
:103100000A0A000000000004D528000090010020F9
:10311000C9340000501400009534000020BF0200A4
:10312000212B0000852F0000394B0000FEB52B4DF0
:10313000044668690026019000960F460B78284ADD
:10314000284929A0FDF78EF839780B292ED008DC04
:103150002A48012912D0022902D101F0CBFBA67224
:10316000FEBD3D291CD04029FAD1686B01F066FFF5
:1031700001206E63207122482060FEBD01F0B2FC88
:103180000220A0721F48416805208847FEF77AF8A0
:103190007D2100231C4AC90001F073FF6863FEBD56
:1031A00000220721012002F085F8FEBDC222012184
:1031B000019801F0CBFB0128F7D10E226B460521C7
:1031C0005A709970002018700121684600F038FB91
:1031D0003220FEF7FFF801F09BFCFEBD000000204E
:1031E00054070000DF6300005B495D2573282564F8
:1031F000293A7369673D25640A0A0000000020002F
:10320000394B000090010020E5340000F3B52F4E4B
:1032100081B00446002775690298009703782C4A0C
:103220002C492DA0FDF71EF80298012100784905D0
:1032300001280ED002281FD03C2822D0402807D1D8
:10324000B06B01F0FBFE0120B763207127482060BE
:10325000FEBD084601F046FC0220A07224484168E9
:1032600003208847FEF70EF87D210023214AC9007C
:1032700001F007FFB063FEBD084601F03BFBA772FB
:10328000FEBD687B002804D10422291D2846FDF7D5
:1032900063F912226B4603215A709970002018704E
:1032A0000121684600F0CCFAC2220121284601F033
:1032B0004DFB012806D10022072101F0FBFF32203F
:1032C000FEF788F801F024FCFEBD0000000000209D
:1032D0008E070000FC6300005B495D2573282564B0
:1032E000293A7369673D25640A0A0000394B0000DA
:1032F00090010020253500001CB5002100910191AE
:1033000019494B69017908290ED012290CD00E29D0
:103310000AD0112921D007291ED1014604221846BE
:10332000FDF71AF93B2019E00178002908D141780E
:10333000002905D18178002902D1C178002906D061
:10334000014604221846FDF707F93D2006E0074A2A
:10335000074908A0FCF786FF1CBD3C2069460870A1
:10336000684600F033FE1CBD00000020C60B0000C4
:10337000B96500005B495D2573282564293A4944F5
:1033800020697320300A0A00FEB52A4D0446686998
:103390000026019000960F460B78274A274928A05F
:1033A000FCF760FF39783B293ED01EDC2948012913
:1033B00028D0022934D00B2916D1C222012101982C
:1033C00001F0C4FA01280FD108226B4603215A707C
:1033D0009970002018700121684600F031FA3220FF
:1033E000FDF7F8FF01F094FBFEBD3D291CD04029FC
:1033F000FAD1E86B01F022FE0120EE63207116483D
:103400002060FEBD01F06EFB0220A072FDF73AFFC6
:103410007D210023114AC90001F033FEE863FEBD9F
:1034200001F068FAA672FEBD00220721012001F01A
:1034300041FFFEBD00000020CA0700001864000024
:103440005B495D2573282564293A7369673D2564C6
:103450000A0A000000002000394B00004D35000032
:103460001CB5002000900190002905D15A20694622
:103470000870684600F0AAFD1CBD1CB50020009035
:103480000190002905D1572069460870684600F070
:103490009DFD1CBD1CB5002000900190002905D1A8
:1034A000352069460870684600F090FD1CBD1CB5CB
:1034B000002000900190002905D15920694608702C
:1034C000684600F083FD1CBD1CB5002000900190F3
:1034D000002905D1562069460870684600F076FD3F
:1034E0001CBD000008B500200D4A0090002903D043
:1034F000012900D1D07008BDD078411CD1700A28B4
:1035000002D901F005FB08BD0D216B46597005205D
:10351000987000221A700121684600F091F908BDE8
:103520000000002010B5084A002904D0012901D16B
:103530000020107110BD1079401CC0B210713C28E1
:10354000F8D901F0E5FA10BD0000002038B50022DE
:10355000164C0092002904D0012901D16271A27198
:1035600038BD6079401CC0B260710A280BD21120AE
:103570006B4658700321997000221A700121684629
:1035800000F05EF90AE00A2802D0142805D005E010
:10359000074841680220884700E06271A079411C19
:1035A000A1713C28DCD901F0B3FA38BD000000203D
:1035B00090010020FEB500260D46074600960196B4
:1035C000029601F045FD044628001E4D03D0012857
:1035D00000D1EE71FEBD6A786B4603215A7201205C
:1035E00099721872014602A800F02AF91420FDF71A
:1035F000F1FE012C02D0022C08D00EE04121032262
:103600006B46597200209A72187206E081200322DC
:103610006B46587200219A721972012102A800F0BB
:103620000FF9E879401CC0B2E8710228D2D93846B7
:1036300001F004FD582069460870684600F0C6FC99
:10364000FEBD0000000000201CB50020009001908D
:10365000002905D1552069460870684600F0B6FC7F
:103660001CBD00007FB500215A4A029103915569A3
:103670000091019158490622091802A8FCF76CFF35
:103680006846047B5548807A02281BD0042202A990
:103690002846FDF735FD00286FD0214650A0FCF7E5
:1036A000E1FD5420D42C4CD023DC0C2C37D00DDC85
:1036B000A41E230002F0CCF80A37393B2B2F09094E
:1036C0000909310902A8FFF717FE7FBDD12C30D0C0
:1036D00007DC0F2C19D0412C23D0812CF5D15020A0
:1036E00016E0D22C29D0D32CEFD1694608700920DE
:1036F0005BE0D53C230002F0ABF80C282C303438CA
:103700003C4145494D515507DFE74C2000E04D2035
:10371000694608704AE04E20FAE74A20F8E74B2055
:10372000F6E74F20F4E75120F2E75220F0E753206C
:10373000EEE769460870072037E069460870082000
:1037400033E0694608700A202FE0694608700B20B4
:103750002BE0694608700C2027E0694608700D20B0
:1037600023E0694608700E201FE0694608700F20AC
:103770001BE069460870102017E01BE069460870DE
:10378000112012E06946087012200EE069460870A8
:1037900013200AE069460870142006E069460870A4
:1037A000152002E06946087016204870084600F0AF
:1037B0000DFC7FBD042202A90B48FDF7A1FC0028E7
:1037C000F7D00F2CF5D101220421032001F072FD66
:1037D0007FBD0000000000200E02002058050020E0
:1037E0004D73673D25780A0078630000F7B50646FB
:1037F0000F4600240DA0FCF735FD0D4D05E0315DB1
:103800000CA0FCF72FFD641CE4B22878A042F6D887
:1038100009A0FCF727FD696838468847AC69297814
:10382000064B3046029AA047FEBD000054783A008D
:1038300090010020257820000A0000007017000089
:103840007CB504460F480D46416900200090019068
:1038500004226846FCF780FE607869460A4E0871CB
:103860003078401EC1B26846FDF766FC6946487173
:103870002278A1786846FFF7B9FF012D01D1F069E0
:1038800080477CBD0000002090010020F8B5002793
:1038900000970D4604460B78424E434A434944A0E4
:1038A000FCF7E0FC2878012541285DD00FDC454974
:1038B000012815D002284BD0352807D10222042137
:1038C000032001F0F7FC404825712060F8BD422834
:1038D00047D04B284BD04C28F8D125713B48F4E712
:1038E000084601F0FFF80325A5720F216B465970B9
:1038F0001F209D70187001216846FFF7A1FF0F225D
:103900006B4604215A700120997018700146684670
:10391000FFF796FF0B216B46597000209D701870C1
:1039200001216846FFF78CFF0F226B4602215A7077
:1039300099700020187001216846FFF781FFFDF79C
:10394000A1FC0023224A234901F09BFB3064F8BD0F
:10395000084600F0CFFFA772306C01F06FFB3764B0
:10396000F8BD25711C48B0E725711C48ADE7A07A69
:103970000428F5D10B226B4603215A7099701970F7
:1039800001216846FFF75CFF0220FDF723FD0622B8
:103990006B4603215A709970197001216846FFF730
:1039A0004FFFF8BD0000002005080000346400004F
:1039B0005B495D2573282564293A7369673D256451
:1039C0000A0A000000000004394B0000852F0000A7
:1039D0009534000020BF0200C9250000D528000052
:1039E0001CB5002100910191012803D0032804D1C6
:1039F0000D2000E00E2069460870684600F0E6FAE7
:103A00001CBD000070B5114D6C68FDF7B3FB0026BE
:103A1000002801D02E7070BD00F068F8802808D012
:103A2000012001F05FF828780128F4D169688870D6
:103A300070BD012000F05EFF012028706968002041
:103A4000887026808020207170BD00005C010020FD
:103A500070B5244E746800F049F80546FDF78AFBFE
:103A600000281BD02079A84210D12188FF22491CB0
:103A700089B22D32218091420FD301214006E1709D
:103A8000400E607171680020887006E0002380217C
:103A9000802D04D0238061712171257170BD228831
:103AA000921E442A17D202214006E170400E607136
:103AB000716800208870E079401CE071B06801F006
:103AC000BDFAFDF7DFFB7D210023074AC90001F0A5
:103AD000D8FAB060E1E7238061712171706883706A
:103AE000DBE700005C010020DD3C000010B5802415
:103AF0000020FDF78DFC002800D18124204610BD58
:103B000070B50D4D6C68FFF77DFF02F0E9FA0128F2
:103B100011D1A079012806D1E17808A0FCF7A2FB19
:103B2000E078FFF75DFF0020E071E0708020A07179
:103B3000A86801F083FA70BD5C0100206B657920F4
:103B4000312C2025640A000010B50D480021406882
:103B5000802201808170C171427102718271C170D5
:103B600004210020FDF794FC03210020FDF77AFCDE
:103B7000FDF788FB0023034A0A2101F082FA10BDF9
:103B80005C010020273D0000034801690422114325
:103B9000016130BF7047000000ED00E001228A4063
:103BA00002494018017891430170704700030440B6
:103BB00001228A40D1B2024A80180078084070473A
:103BC00000030440F0B501238B40D9B2294C294BA6
:103BD000403C294D203B0619264FC4184519C019F1
:103BE000130001F035FE0714051420242D3723009F
:103BF00002788A430270287808432870207C884322
:103C00002074307C084330742078884330E0027898
:103C10008A430270287808432870207C88432074E7
:103C2000307C8843EFE702780A430270F0BD0278E7
:103C30008A430270287888432870207C884307E0F4
:103C400002788A430270287888432870207C0843D1
:103C50002074F0BD02788A430270287808432870E7
:103C6000207C88432074307C88433074207808435B
:103C70002070F0BD600004402003044001228A400F
:103C80000249401801781143017070470003044055
:103C9000F8B5050020D0A868804707001CD050CD9B
:103CA00018E02568002D13D0A068B84208D3C01BC7
:103CB00001D0A0600CE0E168A1602046002106E090
:103CC000E168A16020460321A84700212046A847BB
:103CD0001034761E002EE4D1F8BD000010B50A485D
:103CE000002940680BD0012905D0022902D1022009
:103CF00000F000FE10BD022000F0F4FE10BDC179FE
:103D0000891CC17010BD00005C0100201CB50020A2
:103D100000900190002905D1052069460870684689
:103D200000F054F91CBD10B5002905D1FDF722FAA9
:103D3000002801D0FFF78CFE10BD0000044A10B52A
:103D4000D01D10230349F93001F088F910BD00009F
:103D5000E00300205D12000070B586B000200D4623
:103D600010490290039004904C690126014601908D
:103D700002230322009602A800F09CFEE079009046
:103D80000196A3796279217902A800F09CFE002DAA
:103D900001D0012D03D1002102A8FEF7BDF806B025
:103DA00070BD0000000000201CB5002000900190B4
:103DB000002905D10C2069460870684600F006F914
:103DC0001CBD000070B50E4C00252246803A00292B
:103DD00005D0012902D101206070957070BD9078E6
:103DE000411C9170022806D9606801F027F904206F
:103DF0006560607070BD01210248FEF78DF870BDEE
:103E000080000020C401002010B50446002905D020
:103E1000012902D1042000F065FE10BD042000F04D
:103E200069FD204601F00AF910BD000070B50F4A87
:103E3000002514461434002904D001290DD15570F1
:103E4000012009E05078411C5170022806D96068B1
:103E500001F0F4F804206560207070BD0348001D77
:103E600082780178407801F013FC70BD8800002052
:103E70001CB5002200920192002907D101F0DEF862
:103E8000062069460870684600F0A0F81CBD0000D6
:103E900010B50EA0FCF7E6F912A0FCF7E3F90CA0B0
:103EA000FCF7E0F915A0FCF7DDF91AA0FCF7DAF948
:103EB00007A0FCF7D7F91DA0FCF7D4F920A0FCF768
:103EC000D1F926A12FA0FCF7CDF910BD0A0A0A0AE4
:103ED000202D2D2D2D2D2D2D2D2D2D2D2D2D2D2D1F
:103EE0002D2D0A007C2020202020205A57204D43D1
:103EF0005520202020207C0A000000007C2A2A2A4D
:103F00002A2A582D53454E53452A2A2A2A2A7C0A02
:103F1000000000007C202020454E205374616E6418
:103F20006172642020207C0A000000005B487562FA
:103F30005F467265713D3836382E36354D5D0A0064
:103F40005B496E7472616E65745F467265713D386F
:103F500036392E3237354D5D0A0000005B466972F6
:103F600065416C61726D5D284E65775F447269765C
:103F700065725F33746829205665723D312E312E8B
:103F80003100000025730A0010B5044603E0014625
:103F9000204600F077F8034800F03AF80028F6D100
:103FA00010BD0000480500201CB50160044600203B
:103FB0000549207108460A22283000F043F8694676
:103FC000204600F073F81CBD2005002010B50E4CF3
:103FD000027821788B00C9180C4B5A544278C918C2
:103FE0004A7082788A70C278CA700079087118465F
:103FF0005C3000F031F82078401CC0B220700A28F4
:1040000001D90020207010BDB8010020EC04002070
:1040100070B50168002913D0037B0024002B0ED05B
:10402000827A45689600AD59521CD2B20560827200
:10403000057AAA4200D184725B1E037300E004601B
:10404000084670BD4160C2720272002141728172E5
:1040500001734173016070470268002A10D0437AEF
:1040600042689B00D150417A491CC9B24172027A20
:10407000914201D100214172017B491C01737047BB
:104080000160704770B505680446A847207900288C
:1040900009D005492046A84703492268491F204600
:1040A00090470020207170BDA069000010B5026823
:1040B00004469047226802492046904710BD000000
:1040C0009B69000010B50978194A1A4C012910D0D3
:1040D00002290DD00D290BD1907B401CC0B29073EA
:1040E000012812D0022819D0032801D100F010FDB8
:1040F00010BD00219173012181720F4A0F4910A058
:10410000FCF7B0F80720616810E00B4A0B490C324D
:1041100011A0FCF7A7F80620616807E0064A0749E6
:10412000113213A0FCF79EF861680820884710BD83
:104130000000002090010020A90C0000CF650000C5
:104140005B495D2573282564293A54657374204FB3
:104150004F4B0A0A000000005B495D257328256467
:10416000293A546573742046736B0A0A00000000F4
:104170005B495D2573282564293A54657374205280
:10418000780A0A0010B50446FCF734FEFCF7CBFDB4
:104190000020FCF771FD2020FCF74BFD0120FCF70F
:1041A000FFFD002C02D0012C05D00AE00A20FCF70C
:1041B00046FD202003E01920FCF741FD0120FCF71B
:1041C00073FD0120FCF776FDFCF7C2FC012C08D042
:1041D000042C06D0022C0FD0032C01D1FCF7A8FD33
:1041E00010BDFCF7A0FDFCF7B3FCFCF775FDFCF778
:1041F0000AFDFCF78EFD10BDFCF7E2FDEEE70000C6
:1042000001484078704700007001002001480078A4
:104210007047000070010020F8B5504C012520784F
:1042200000260927030001F013FB0A06081C2F3D96
:10423000426074878C9600258DE0FCF774FDFCF7D6
:1042400087FCFCF749FDFCF7DEFCFCF762FD00286B
:1042500005D002202070FDF7D3F8A0617BE0277025
:10426000F9E76D20FCF792FDC00701D00320207014
:104270002069401C6FD0FDF7C3F8A169401A21697D
:10428000884268D9042042E0FCF74DFD6188A068AF
:10429000FCF778FDFCF75CFC6070FCF73FFD2670D6
:1042A000022558E0FCF73AFD2670032553E0FCF7A1
:1042B0003AFDFCF74DFCFCF71BFDFCF7AFFCA188B9
:1042C000E068FCF78FFD6E20FCF760FD800700D4EE
:1042D0002770FCF72DFD002805D006202070FDF783
:1042E0008FF8E06137E02770F9E76A20FCF74EFDB0
:1042F000000701D5072020706069401C2BD0FDF716
:104300007FF8E169401A6169884224D90820207049
:1043100021E0124820304078002807D0022807D03A
:104320000120FFF72FFF2670042514E0012000E094
:104330000320FCF76BFDF6E7FCF7F0FC2670052583
:1043400009E0FCF749FD1420FDF744F80120FFF7D0
:1043500019FF267006252846F8BD000070010020D0
:1043600070B50D460646002400F0B6FB002815D0B7
:10437000FCF7C0FE6D20FCF709FDC0070ED0FCF76E
:10438000D2FC29463046FCF7FDFCFCF7E1FB044972
:104390004870FCF7C3FCFCF7BCFC0124204670BD50
:1043A0007001002070B5174CE060A18000206361AF
:1043B000FFF7E8FEFCF7B7FC0D20FCF7E7FCE52172
:1043C00001400D20FCF712FDFCF792FCFCF726FCE7
:1043D000A188E068FCF706FDFCF7BAFB6E20FCF74D
:1043E000D5FC80070925002800DB2570FCF7A0FC20
:1043F000002805D006202070FDF702F8E06170BDAE
:104400002570F9E77001002001490870704700002D
:104410007001002070B5074D00240120FCF7DAFF81
:10442000FFF7FAFE042803D0641CA4B2AC42F4D314
:1044300070BD000050140000154A11788023194304
:1044400011701449002300280AD001280AD002283C
:104450000FD003280FD0042816D0052816D00CE062
:104460000B770AE001200877D07810210843D0703C
:1044700003E0822000E0C220087707484377417FAD
:1044800008221143417770470320F5E74320F3E703
:104490002004024060040440404F044070B50024F2
:1044A000411E062901D3812413E00B4D01212970FF
:1044B0000A494A7FD208D20002434A77887FF7220E
:1044C00010408877064800260670162001F0CEF9C5
:1044D0002E70204670BD000058610040404F0440DF
:1044E000586000400E498A7F01231A438A778A7FE9
:1044F0009207FCD502788A744278CA7482780A7569
:10450000C2788A7502794A754279CA7580790876C7
:10451000887F400840008877887F8007FCD47047F8
:10452000404F044010B50E4800240470162001F0DE
:104530009DF90C4804700C48417F8022114341775B
:10454000817F012211438177817F8907FCD5817F9B
:10455000490849008177817F8907FCD410BD00009C
:104560005860004058610040404F0440F8B50025B5
:10457000664800954469FD202572A572E072657257
:10458000FF2121732574A173E1732E460421204677
:10459000FCF73FF85E49684601F0F8FB04226946E3
:1045A000201DFBF7D9FF5BA0FBF75CFE60190179CA
:1045B0005BA0FBF757FE6D1CEDB2042DF6D35AA09D
:1045C000FBF750FE52496846083101F0DFFB0098C6
:1045D0004F4DC0B22D1D6073A12817D0C22864D0E2
:1045E000B32879D0FF226673A632504950A0FBF75A
:1045F00039FE05210120FCF74BFF02210120FCF7C9
:1046000031FF5148416800208847F8BDFCF762FF40
:104610002946684601F0BAFB042269462046FBF7AA
:104620009BFF4AA0FBF71EFE0025615D3CA0FBF747
:1046300019FE6D1CEDB2042DF7D33BA0FBF712FE63
:1046400033496846183101F0A1FB0098411C05D0A0
:104650000006000E207326D0022060722C496846A6
:104660000C3101F093FB0098411C00D0E072284906
:104670006846103101F08AFB0098411C00D020727E
:1046800023496846143101F081FB0098411C00D099
:10469000A072A37A227AE17A30A0FBF7E3FD627A76
:1046A000217B36A0A3E70120D7E72946684601F021
:1046B0006DFB042269462046FBF74EFF38A0FBF74E
:1046C000D1FD0025615D16A0FBF7CCFD6D1CEDB2A0
:1046D000042DF7D315E0FFE72946684601F056FBA5
:1046E000042269462046FBF737FF31A0FBF7BAFDED
:1046F0000025615D0AA0FBF7B5FD6D1CEDB2042D30
:10470000F7D309A0FBF7AEFD73E70000000000201F
:1047100000015000554449443A2030780000000020
:104720002530327800000000200A00008A63000073
:104730005B575D2573282564293A6E6F742070617C
:10474000697265640A0A000090010020476174657F
:104750007761792049443A20307800004E756D2EFB
:1047600025642C20446576547970653D25642C20A1
:1047700050726F547970653D2564200046617468FD
:1047800065725F4E756D2E25642C204661746865D8
:10479000725F446576547970653D25640A000000B7
:1047A000496E7472616E65742049443A2030780015
:1047B00052657365742049443A2030780000000047
:1047C00010B50B4BDA699969914202D98C1A402CC9
:1047D0000DD2914202D2521A012A08D0054A9142C2
:1047E00002D31146403999610870491C996110BD86
:1047F000000000200E020020F0B585B000252C4EF0
:104800000095019502950395706A2C468047326A9F
:10481000317868469047012809D16F4604E0785DF9
:10482000FFF7CEFF6D1CEDB23078A842F7D8214ECD
:10483000214D3746288A602813D2AB69EA69934232
:104840000FD000219A4208D0B24202D31949403910
:10485000E961EA691178521CEA613954401C2882E6
:10486000E8E780B2042821D312E011490E78B04263
:1048700012DB701EC1B23819FCF75EFCA619F119E3
:104880002039C97F884202D1204600F03BF8F4B2BB
:10489000288A001B0428E8DA288A001B0204120C6C
:1048A0002A8203D039190348FBF756FE05B0F0BD44
:1048B000900100200E020020000000201CB5002402
:1048C00000940194FCF7B8FCA1280FD1084908789E
:1048D000401CC0B208700A2808D90C70072069462D
:1048E0000870022048706846FFF770FB1CBD00008E
:1048F000AC00002002490A6882430A607047000049
:10490000BC01002010B5064909780F2904D00629FA
:1049100001D1FEF7A7FE10BDFDF7F8F810BD0000AD
:1049200090010020F8B50646FF2000900D460024B7
:10493000304601F035FA3146684601F027FA009812
:10494000854200D101242046F8BD0000F7B5074696
:104950003F48002582B02E46446901F00FFA6019E5
:104960000079E90088406D1C8619EDB2042DF6D35C
:1049700031463848FFF7D6FF002824D0354D04983B
:104980002D1DB3280BD131462846FFF7CBFF002859
:1049900018D0281D0499FFF7C5FF002812D00398EE
:1049A000002812D0002108463A5CC3009A40401CFF
:1049B0005118C0B20428F7D32846FFF7B3FF0128E7
:1049C00005D027E0002005B0F0BD0120FBE721481D
:1049D000E17A0C30FFF7A6FF01281BD11D48217A90
:1049E0001030FFF79FFF012814D11A48A17A143024
:1049F000FFF798FF01280DD11648217B1830FFF7EB
:104A000091FF012806D1134804990830FFF78AFF67
:104A1000012806D0FF2226320F4910A0FBF722FC06
:104A2000D0E7042239462046FBF796FDE078009057
:104A3000A3786278217810A0FBF714FC627A217BBE
:104A400013A0FBF70FFC0520FCF7C4FCBDE700003A
:104A500000000020000150007C6300005B575D25D2
:104A600073282564293A536176652049442066619C
:104A7000696C0A0A00000000536176652049443AD7
:104A80002025782025782025782025780A00000028
:104A90004661746865725F4E756D2E25642C2046E4
:104AA00061746865725F446576547970653D25640C
:104AB0000A00000030B5049D039C017042708370B1
:104AC000C470457230BD30B5049D039C01714271C4
:104AD0008371C471057230BD0149012008707047AF
:104AE0000000002002490A6802430A607047000083
:104AF000BC01002001490120087070478800002097
:104B0000024A1218401CD170C0B270475F030020E7
:104B1000BFF34F8F04490348C860BFF34F8F00BFF6
:104B2000FDE700000400FA0500ED00E00148C06860
:104B30007047000058050020FEB50D460446FCF7FE
:104B400075FB02900020009001902B7885226D4922
:104B50006DA0FBF787FB28780126704F2C287DD0AD
:104B600010DC030000F074FE1A3C3D693C3C3CB88C
:104B700087823C3C3C3C7F3C3C3C97978C973C97E5
:104B80009797973C41286AD017DC372868D00DDC0E
:104B90002D286ED02E286DD02F2821D1AA786978A3
:104BA000032000F087FB26715D4818E0382870D09C
:104BB000392815D126715B4811E04D2806D008DC54
:104BC000432867D044287BD04C2809D12671564809
:104BD00005E04F2875D0502802D154482671206036
:104BE000FEBDFCF729FBA1285148416807D00220EF
:104BF00088470220FCF70CFC012802D004E00020CA
:104C0000F6E74C48FFF776FE00256572A57202981C
:104C1000FF21057402988173207A0128E0D1FCF706
:104C20000BFBA128DCD11120694608700B204870CD
:104C30006846FFF7CBF92572FEBDFCF7FDFAA12807
:104C40003B4841680DD0032088473B48006800F08E
:104C5000F5F901200005FFF74DFEFEBD22E044E01E
:104C60003DE00120F0E726713448B8E7267134486A
:104C7000B5E727E02BE0EB78AA78697807200EE00B
:104C8000EB78AA7869780820FDF77CF826712D4822
:104C9000A5E727E02CE0EB78AA7869780820FDF7F3
:104CA00071F819E001200005FFF71CFFFCF7EAFA94
:104CB0000023254A254900F0E4F91F490860CCE7A4
:104CC00019E01BE0EB78AA7869780520E7E7AA7875
:104CD0006978032000F0EEFA26712760BDE726719F
:104CE0001B487CE726711B4879E726711A4876E74E
:104CF00026711A4873E72671194870E7267119481A
:104D00006DE70000FF6500005B495D2573282564A1
:104D1000293A7369673D25640A0A0000394B00008F
:104D2000A51500000D320000852F00009D2C00000D
:104D300090010020FFFFFF7FA8000020C540000079
:104D40006D18000089160000713E000060EA000046
:104D50002D31000089330000D52800000128000013
:104D600029270000112E000010B5044601202072F2
:104D700000206072A072E0602061FEF7DFFFFEF7A6
:104D8000E3FE00F08DFAFFF7F1FB0148206010BD53
:104D9000394B00000248C168491CC16070470000DF
:104DA0005805002010B5FFF7F5FF02480168491CBF
:104DB000016010BDC000002000B5FBF703FE0149F3
:104DC000086000BDC001002000B5FBF7FBFD0C49E9
:104DD00008600C498020487100200B49C0430860DE
:104DE0000A4908600B490A48086048608860C86042
:104DF000086148618861C8610749AC20487000BDFE
:104E0000C00100202004024080E200E000E100E058
:104E1000C0C0C0C000E400E00010024010B502486D
:104E2000FEF736FF10BD0000E004002002494A8A68
:104E300002434A8270470000A01D044002498A8A4A
:104E400002438A8270470000A01D0440F3B5344835
:104E50000B46017881B0012211430170314DF020E1
:104E6000E8820198FFF7EAFF2E4F01265B1E0198AA
:104E7000F603203F9CB2012806D0022814D0042853
:104E800028D0082822D138E02749002008701120B6
:104E900000F004FD3E8225480483688B40084000F2
:104EA00068830020224910E01F490020091D087076
:104EB000122000F0F3FC7E821C484483688B0221A0
:104EC000884368831A490020091D08700198FFF77C
:104ED000ADFFFEBD1449002008310870132000F01A
:104EE000DDFCBE82114860308480688B04218843D9
:104EF00068830F4900200831E7E70B4900200C3197
:104F00000870142000F0CAFCFE8208486030C4809B
:104F1000688B082188436883054900200C31D4E759
:104F200020040240A01D044044600040001F0440D3
:104F30004461004002494A8A02434A8270470000A5
:104F4000A021044002498A8A02438A8270470000F5
:104F5000A0210440F3B534480B46017881B0022209
:104F600011430170314DF020E8820198FFF7EAFF0C
:104F70002E4F01265B1E0198F603203F9CB20128AC
:104F800006D0022814D0042828D0082822D138E0DE
:104F90002749002008701B2000F080FC3E82254835
:104FA0000483688B4008400068830020224910E099
:104FB0001F490020091D08701C2000F06FFC7E8234
:104FC0001C484483698B0220814369831A4900206D
:104FD000091D08700198FFF7ADFFFEBD14490020C0
:104FE000083108701D2000F059FCBE821148603065
:104FF0008480688B0421884368830F49002008312E
:10500000E7E70B4900200C3108701E2000F046FC39
:10501000FE8208486030C480688B0821884368831A
:10502000054900200C31D4E720040240A0210440AF
:105030006C600040002304406C610040002806D0F2
:105040000268002A03D00023022103601047704742
:1050500001460020002900D04868704700280ED083
:1050600000290CD0002A0AD0002B08D081600CC087
:1050700000210838116010325B1EFBD17047002000
:105080007047F8B500249C46002806D0002A04D0BA
:10509000056840682F4603460AE00020F8BD2E68E8
:1050A000964203D1002400280AD00BE0401E1035A0
:1050B0000028F4D104E03868002808D05B1E1037BF
:1050C000002BF8D1002C0FD0002905D103E0002CD3
:1050D000F8D13C46F6E70121A1602260E16060461C
:1050E00060600121204690472046F8BD38B56A46E9
:1050F00000F0A4F8002814D10A4903248C80CA883F
:1051000012091201CA80CA886B461B781A43CA80EA
:105110006B465A78044B52021A825A824A882243BA
:105120004A8038BD2011044000130440F3B53248D2
:1051300081B0007804263049304308702F4803219D
:10514000C1802E4A2221203A11822D4911836723E2
:105150002C4C5B0223822C4D2A7C01210A432A74A9
:10516000264D0722203D6A81FF2223326A82274A88
:105170006A83638202890A430281828A8A43828225
:1051800042890A43428104220020FEF71BFD204F82
:105190002C20B8701F4C2178FD20014021701E4941
:1051A0000A7C02400A741C4D203529780140297080
:1051B000012202210020FEF705FD2620387120780B
:1051C000304320702878FB2108402870029901980C
:1051D000FFF78CFF0546114800240470001D047081
:1051E0000A2000F04FFB0B2000F04CFB0C48047031
:1051F000001D04702846FEBD20040240201104401A
:1052000097800000001304406004044097400000B1
:10521000000804402003044040000440286000408F
:105220002861004003490874034801884906890F32
:10523000FBD170470013044000110440F7B58020F3
:1052400082B0154E17460025019014486900415A56
:105250000298FBF7E2F9022400906100891C009893
:10526000FBF7DBF90C49494248430399FBF7D5F9B1
:10527000801900D54042142804DA3D707C7000206B
:1052800005B0F0BD641CE4B2802CE6D36D1CEDB219
:10529000102DDAD30198F3E7F0D8FFFF166600006F
:1052A00010B504210220FCF7F3F803210220FCF7DB
:1052B000D9F810BD70B514460D4606460D4A0E4984
:1052C0000EA0FAF7CFFF22462946304600F0E0F95B
:1052D0000D4C0AE0FFF7A2FDFFF78EFA00F000FA8E
:1052E0002078032804D0042802D060680028F1D177
:1052F00070BD000002030000E865000025732C6902
:105300006E2C2025640A00009C000020FEB50027BA
:1053100015460C46064600970197FBF787FF012EBE
:1053200021D032460121032000F0A2F9FBF784FFCF
:10533000A12803D0FBF780FFC2281BD12B462246B1
:10534000314652A0FAF78EFFB11E2046CA3013270D
:10535000C6B20B0000F07CFA0B0F212638414A59E7
:1053600067737F900E004F4C6068FFF767FE032065
:1053700067602070FEBDFBF75FFFA12808D04720C3
:10538000694608700B2048708C700846CD706EE03E
:105390001520694608700220F5E716206946087056
:1053A000032060E0FBF748FFA12804D0022C04D0C2
:1053B000012C04D006E0122002E0422000E041204F
:1053C0006946087004201BE0FBF736FFA128D1D105
:1053D000182069460870052045E0FBF72DFFA1283D
:1053E000C8D117206946087006203CE0FBF724FF6F
:1053F000A12807D04320694608702B480670072073
:10540000694630E068460770F9E7FBF715FFA12809
:1054100006D0442069460870234806700820EFE74C
:1054200068460770FAE7FBF707FFA12804D045207C
:10543000694608700920E3E768460770FAE7FBF75A
:10544000FBFEA12804D04620694608700A20D7E751
:1054500068460770FAE7FBF7EFFEA1280AD047205D
:10546000694608700B2048708C70CD700846FEF7B6
:10547000ADFDFEBD1420F3E7FBF7DEFEA128F8D159
:105480001920694608700C20EDE700004669726536
:10549000416C61726D3A2025642C2025642C2025F6
:1054A000640A00009C00002001000020F8B50546B9
:1054B00000200090184844196778A678FBF7B6FEDC
:1054C000E11C32466846FBF747F8361DF6B2012F5D
:1054D00002D0032F0DD106E068468278417800782B
:1054E00000F028F805E06846827841780078FFF7F8
:1054F0000DFF0AA0FAF7B6FE0024074F06E02819B0
:10550000395C09A0FAF7AEFE641CE4B2B442F6D3EB
:1055100007A0FAF7A7FEF8BDDF02002055617274FC
:105520002052783A200000005B25785D00000000E2
:105530000A000000FEB50746002016460D46009002
:105540000190FBF773FE0446012F0DD001213A466E
:10555000084600F08DF8BF1E3B0000F079F9083CCA
:105560001B0F223021214621214C6068FFF766FD88
:1055700000206060072D13D10B200CE00820694645
:1055800008706846FEF722FD2572A672324629464B
:1055900018A011E03720694608706846FEF716FD2E
:1055A000FEBD3820694608706846FEF70FFD25727B
:1055B000A6723246294614A0FAF754FEFEBD3920E1
:1055C000694608706846FEF701FD2572A6723246EC
:1055D000294613A0F0E7B32200212046FFF7B6F9D1
:1055E0000128EBD1FFF794FAFEBD4020D3E700007D
:1055F0009C0000204465763D25642C2050726F3D50
:105600002564204875620A004465763D25642C2097
:1056100050726F3D256420536C617665720A0000FC
:105620004465763D25642C2050726F3D2564204DE5
:1056300061737465720A000010B50B4BDA689968E3
:10564000914202D98C1A602C0DD2914202D2521A88
:10565000012A08D0054A914202D311466039996067
:105660000870491C996010BD88000020DF020020EE
:1056700010B5034614460020FFF742FA2146FFF713
:105680003FFA0146184600F0B1F8012010BD0000B5
:1056900010B5044610481346447001700022837010
:1056A0001046FFF72DFA002B02D01946FFF728FA13
:1056B0000146204600F09AF8074C10346068002834
:1056C00008D1FBF7DFFD7D210023044AC900FFF765
:1056D000D8FC6060012010BD8C0000202D3E000031
:1056E000F8B5394F00243878384E2546012805D0C2
:1056F0000220FBF78DFE01280BD020E0FBF7C2FD56
:105700007D210023324AC900FFF7BBFC38613D70A0
:1057100015E03869002802D0FFF790FC3D610420B5
:10572000FFF7E8F80BE029498A4201D36039F960B4
:10573000FA681178521CFA603154401C78807888DD
:10574000802807D2BB68FA68934203D000219A42AE
:10575000F2D0E8E780B2042835D326E0315DAF29E6
:1057600002D0641CE4B220E031198978091DCDB261
:105770000F2D01D9A41CE4B2001BA84219DB681E3E
:10578000C1B23019FBF7D8FC6519A9192039C97FB6
:10579000884203D12046FFF789FE05E0FF22303220
:1057A0000C490DA0FAF75EFDECB27888011B0429C4
:1057B000D4DC7888001B0204120C7A8003D03119E3
:1057C0000248FAF7C9FEF8BD88000020DF02002079
:1057D000093E0000DC6500005B455D2573282564FB
:1057E000293A437263204572720A0A0070B5174D58
:1057F000AF222A706870A970091DCCB2601EC1B2B8
:105800002846FBF799FC29192039C877002C1BD0B2
:1058100000210220FBF73CFE00210220FBF708FEDE
:105820000220FBF7D7FD224629460020FBF7ACFEFD
:1058300001210220FBF7FCFD04210220FBF728FEDA
:1058400003210220FBF70EFE70BD00005F03002065
:1058500030B47446641E2578641CAB4200D21D46E9
:10586000635D5B00E31830BC18470000002805DBCF
:10587000C106C90E01208840014908607047000038
:1058800080E200E0002805DBC106C90E0120884047
:10589000014908607047000080E200E0002805DB55
:1058A000C106C90E01208840014908607047000008
:1058B00080E200E030380A2801D201207047002041
:1058C000704700000349002801D0034800E0012090
:1058D0000862FEE700800240AD0B000010B5084AE8
:1058E0000C21515E0823D35E9289C91A101A00B2A6
:1058F0003C225043FAF79BFE193000B210BD000065
:105900006006500010B50C49002008700B49CA7B96
:105910000B4C60680270401C6060CA89A0680280FD
:10592000801CA060E068401CE0600E20085EFFF76D
:10593000D5FF208010BD000054600040005004409E
:10594000C400002003490020087003480168491C76
:105950000160704760600040D400002003490020CF
:10596000087003484168491C41607047646000400A
:10597000D400002007200146401E80B20029FAD141
:10598000704708200146401E80B20029FAD17047B6
:1059900010B502210320FEF771F904220221032031
:1059A000FEF710F902210320FEF768F90621032013
:1059B000FEF7F4F8042206210320FEF703F906217E
:1059C0000320FEF7EBF805210320FEF757F9042228
:1059D00005210320FEF7F6F805210320FEF74EF916
:1059E00001210320FEF74AF9042201210320FEF7DA
:1059F000E9F801210320FEF741F9FFF7BBFF10BDD5
:105A000070B50D46044605210320FEF737F9042240
:105A100005210320FEF7D6F806210320FEF7BEF885
:105A2000042206210320FEF7CDF806210320FEF70D
:105A3000B5F801210320FEF721F9042201210320FA
:105A4000FEF7C0F801210320FEF718F90221032018
:105A5000FEF7A4F8FFF78EFFFFF78CFF80202043AE
:105A600000F0A8F8002205210320FEF7ABF800F0B3
:105A70007FF8287006210320FEF790F8FFF77AFFE1
:105A8000FFF778FF02210320FEF7F8F80521032035
:105A9000FEF7F4F8002205210320FEF793F8012118
:105AA0000320FEF7EBF870BD70B50D4606460121E8
:105AB0000320FEF7E3F8042201210320FEF782F819
:105AC00001210320FEF7DAF802210320FEF7D6F8C1
:105AD000042202210320FEF775F802210320FEF7BD
