:020000040000FA
:1000000058090020E1010000FB010000F120000080
:1000100000000000000000000000000000000000E0
:10002000000000000000000000000000FF010000D0
:10003000000000000000000001020000595800000C
:10004000552B00005F2B0000692B0000732B000074
:1000500005020000050200007D2B0000872B000038
:10006000912B0000050200009B2B00000502000000
:10007000A52B000005020000AF2B0000B92B0000EB
:10008000C32B0000CD2B0000D72B0000E12B00007C
:10009000EB2B0000F52B0000FF2B0000092C0000CB
:1000A000132C0000050200001D2C0000272C00006E
:1000B000312C0000050200003B2C0000452C000004
:1000C00000F002F800F044F80CA030C808382418FA
:1000D0002D18A246671EAB4654465D46AC4201D180
:1000E00000F036F87E460F3E0FCCB646012633426E
:1000F00000D0FB1AA246AB46334318474C6E0000B3
:100100006C6E00000023002400250026103A01D365
:1001100078C1FBD8520700D330C100D50B607047BF
:1001200010B5642902D100F0E7F810BD782902D19A
:1001300000F018F910BD732902D100F076FB10BD54
:10014000002010BD1FB500F0EBF91FBD10B510BDAC
:1001500000F0B4FB1146FFF7F5FF06F0A3FB00F03B
:10016000CCFB03B4FFF7F2FF03BC06F038F9000044
:1001700030B40C490C684A6823681068C0181060D5
:10018000241D121D8C4207D28A4208D20C604A609C
:1001900030BC4000400870470C00DC3CF6E70A0029
:1001A000DC3AF3E7F006002070B505460C4616462B
:1001B00002E00FCC0FC5103E102EFAD2082E02D34B
:1001C00003CC03C5083E042E07D301CC01C5361F5E
:1001D00003E021782970641C6D1C761EF9D270BD75
:1001E0000C480D4A002100A1814200D902440B486D
:1001F00002600B4880470B480047FEE7FEE7FEE73A
:10020000FEE7FEE7FEE7000007480849084A094BF9
:1002100070470000000000200000000008ED00E032
:100220007D580000C1000000580700205809002038
:100230005808002058080020704700000FB40549F6
:1002400010B503AA029800F0F5FA10BC08BC04B07F
:1002500018470000CC00002070B50446856900688E
:10026000C10601D5302600E02026C00707D070BDAA
:1002700062683046A1689047206A401C20626D1E6B
:10028000F6D570BD70B5044685690078C00707D102
:1002900070BD6268A16820209047206A401C2062DF
:1002A0006D1EF6D570BD70B50C460546012A05D009
:1002B0002878800600D5EA69002302E0012305E0E2
:1002C0005B1C934202D2E05C0028F9D1A869E618D1
:1002D000C01AA861286AC01828622846FFF7BCFF28
:1002E00004E06A682078A968641C9047B442F8D397
:1002F0002846FFF7C7FF70BDF7B5002575291068C0
:10030000009914A611D0C046C046002802DA404227
:1003100011A608E0009909688A0701D50FA602E036
:10032000490704D50EA6012501E0C046C046009F3E
:100330000024243704E000F091FA30313955641C70
:100340000028F8D12B4632462146009800F002FAE8
:10035000FEBD0000000000002D0000002B0000008A
:100360002000000070B504460D4621461068C046C6
:10037000C0462188090502D50F4A7A4402E00E4A98
:100380007A440E3223460021243305E00607000993
:10039000360F965D5E54491C0028F7D12078002363
:1003A000000705D5702D03D0002901D0022311329A
:1003B000204600F0CFF970BD8E6B0000F3B5044607
:1003C000002081B020622046E168884700287DD067
:1003D000252802D06268A16883E0454F00257F444C
:1003E0002046E16888472028064608DB312E06D2E1
:1003F000B81920380078002801D00543F0E7A80795
:1004000001D5042085430020E0610746A0612A2E23
:100410000AD0304605F0DCFF002827D0B8000019CC
:10042000303E0090866119E00298BA00121902C8A5
:10043000916102902046E1688847012F064617D156
:10044000E06900281FDA202085431CE000980A217B
:100450008069484300998019303888612046E168F6
:100460008847064605F0B4FF0028EFD1012F0AD0D7
:100470002E2E08D12046E1688847064620200543F5
:100480007F1C022FC3DBA069002803DA4042A06171
:1004900001200543E80701D010208543002E24D019
:1004A00030464138192803D80120C00205432036C0
:1004B000204625603146029A1546FFF731FE002896
:1004C0000CD0012807D0ED1DE80800E00DE0C000C9
:1004D0000830029077E72D1D029574E76268304678
:1004E000A1689047206A401C6CE7206AFEBD0000AE
:1004F000526B00000B4A30B511460B4C60310B4675
:10050000DC3B0CC1372106E0020C8D0012185A5159
:10051000064A504300190A46491E002AF4DC30BD41
:100520000120E7E790060020E119D666CD0D010015
:10053000F8B5042A2CD3830712D00B78491C03701A
:10054000401C521E83070BD00B78491C0370401CC3
:10055000521E830704D00B78491C0370401C521EA6
:100560008B079B0F05D0C91ADF002023DE1B08C9AB
:100570000AE0FFF719FEF8BD1D4608C9FD401C46FC
:10058000B4402C4310C0121F042AF5D2F308C91A34
:10059000521EF0D40B78491C0370401C521EEAD442
:1005A0000B78491C0370401C012AE4D409780170BF
:1005B000F8BD01E004C0091F0429FBD28B0701D557
:1005C0000280801CC90700D00270704700290BD040
:1005D000C30702D00270401C491E022904D38307BE
:1005E00002D50280801C891EE3E70022EEE700228C
:1005F000DFE7002203098B422CD3030A8B4211D37D
:1006000000239C464EE003460B433CD400224308A3
:100610008B4231D303098B421CD3030A8B4201D393
:1006200094463FE0C3098B4201D3CB01C01A52412B
:1006300083098B4201D38B01C01A524143098B427B
:1006400001D34B01C01A524103098B4201D30B0164
:10065000C01A5241C3088B4201D3CB00C01A524189
:1006600083088B4201D38B00C01A524143088B424E
:1006700001D34B00C01A5241411A00D201465241E7
:10068000104670475DE0CA0F00D04942031000D306
:100690004042534000229C4603098B422DD3030A5B
:1006A0008B4212D3FC22890112BA030A8B420CD36B
:1006B000890192118B4208D3890192118B4204D394
:1006C00089013AD0921100E08909C3098B4201D314
:1006D000CB01C01A524183098B4201D38B01C01A4E
:1006E000524143098B4201D34B01C01A52410309C5
:1006F0008B4201D30B01C01A5241C3088B4201D374
:10070000CB00C01A524183088B4201D38B00C01A20
:100710005241D9D243088B4201D34B00C01A5241F7
:10072000411A00D20146634652415B10104601D384
:100730004042002B00D54942704763465B1000D30E
:10074000404201B50020C046C04602BD7047704718
:1007500070477047FFB504460D4681B024300090C5
:100760002168880604D51022E0699143216000E0E9
:100770000120A84201DD471B00E000270498A16981
:100780007A191018081AA0612078C00602D42046F1
:10079000FFF762FD002608E003986268A168805DAB
:1007A0009047206A401C761C206204988642F3DB46
:1007B0002078C0060AD52046FFF74EFD06E06268A5
:1007C000A16830209047206A401C206238467F1E76
:1007D0000028F4DC07E000986268A168405D90475B
:1007E000206A401C206228466D1E0028F3DC20464B
:1007F000FFF748FD2078000602D5022005B0F0BDC5
:100800000120FBE710B54369002B02D0C046C0466B
:1008100001E0FFF748FD012010BD127801462431A8
:100820000A7000224A700122ECE711680022D243CC
:10083000E8E70000084B70B50D467B4400F027F850
:100840000446284600F036F8002802D00020C043B5
:1008500070BD204670BD00000160000001468008A8
:10086000081A02091018020A1018020C1018C00801
:10087000820012185200891A01E0401C0A390A2924
:10088000FBD2704701694A1C02610878704700B5C5
:100890008FB002910021059105490193794403919C
:1008A000114604906846FFF789FD0FB000BD0000B7
:1008B000E5FFFFFFC068802108407047754600F0E3
:1008C00025F8AE46050069465346C008C000854677
:1008D00018B020B5FFF798FC60BC00274908B64661
:1008E0000026C0C5C0C5C0C5C0C5C0C5C0C5C0C53F
:1008F000C0C5403D49008D46704710B50446C0460E
:10090000C0462046FFF72DFC10BD00000048704790
:10091000F806002070B58C180578401C6B075B0F3B
:1009200001D10378401C2A1106D10278401C03E053
:100930000678401C0E70491C5B1EF9D12B0705D4AC
:100940000023521E0DD40B70491CFAE70378401C9B
:10095000CB1A921C03E01D780D70491C5B1C521EC3
:10096000F9D5A142D8D3002070BD000070B5174C56
:10097000206A174D400707D56868002800D08047D7
:10098000606A042188436062206A800707D5A868EE
:10099000002800D08047606A022188436062206A94
:1009A000C00707D0E868002800D08047606A400888
:1009B00040006062206A000707D52868002800D040
:1009C0008047606A08218843606270BD402400400F
:1009D000B804002070B50546001F00062A49800BA8
:1009E0004418FF34013420682849C207281F000634
:1009F000800C002A06D00858002800D0804701202B
:100A0000C043606020682D1F2906204A890C80079A
:100A10008D18002806DA6868002800D08047022078
:100A2000C04360602068400706D5A868002800D051
:100A300080470420C04360602068000706D5E8684E
:100A4000002800D080470820C0436060206840062E
:100A500006D5A869002800D080474020C0436060C8
:100A60002068000606D5E869002800D0804780206D
:100A7000C04360602068C00505D5286A002800D002
:100A800080470348606070BD00300040C80400200B
:100A9000FFFEFFFF10B503F009FE0249024803F014
:100AA00091FE10BD1D5800000006002010B5042066
:100AB00000F0E0FD012000F081FD012000F0A6FD26
:100AC00001211C2000F0C0FD0E49002008600D4AE5
:100AD000403210600B4B803318600A4CC0342060E9
:100AE000886090609860A06008621062186220625E
:100AF0004B21C90101F058FA012001F027FA01F059
:100B0000FDF910BD000D024000220F4B002806D059
:100B100001280AD002280ED001221046704718681A
:100B2000000C000408431860F7E7186A000C000482
:100B300008431862F1E70448403003681B0C1B04AB
:100B40000B430360E9E70000000C004000210D4A60
:100B5000002806D0012809D002280CD0012108461F
:100B600070475069400840005061F8E7506B4008FA
:100B700040005063F3E70348403042695208520096
:100B80004261ECE7000C004001460020074A0029C2
:100B900008D0012908D0022903D104484030406818
:100BA00080B270475068FBE7506AF9E7000C0040DC
:100BB00000220F4B002806D001280AD002280ED0B0
:100BC0000122104670475868000C00040843586022
:100BD000F7E7586A000C000408435862F1E704483C
:100BE000403043681B0C1B040B434360E9E70000E3
:100BF000000C00400C4B00211A15002806D00128DB
:100C000008D002280AD0012108467047D86810434E
:100C1000D860F9E7D86A1043D862F5E70248403057
:100C2000C3681343C360EFE7000C0040F0B5504ABF
:100C300000230224551596157027002806D0012898
:100C400034D0022862D001231846F0BDD068A843F2
:100C50000D78ED07AD0D2843D060D0684D78B043D6
:100C6000ED07ED0D2843D060D0688D78B8436D074F
:100C70006D0E2843D060D0680825A843CD78ED07D5
:100C80002D0F2843D060D0680425A8430D79ED07C7
:100C90006D0F2843D060D068A0434C79E407A40FBF
:100CA0002043D060334889680160CDE7D06AA8430B
:100CB0000D78ED07AD0D2843D062D06A4D78B04372
:100CC000ED07ED0D2843D062D06A8D78B8436D07EB
:100CD0006D0E2843D062D06A0825A843CD78ED0771
:100CE0002D0F2843D062D06A0425A8430D79ED0763
:100CF0006D0F2843D062D06AA0434C79E407A40F5B
:100D00002043D0621B48C96841609DE718484030C5
:100D1000C268AA430D78ED07AD0D2A43C260C268D0
:100D20004D78B243ED07ED0D2A43C260C2688D785D
:100D3000BA436D076D0E2A43C260C2680825AA43F4
:100D4000CD78ED072D0F2A43C260C2680425AA435F
:100D50000D79ED076D0F2A43C260C268A2434C793A
:100D6000E407A40F2243C2600248096981606BE76F
:100D7000000C0040C0000020002101220B4B002885
:100D800006D0012808D002280AD001210846704761
:100D9000D8681043D860F9E7D86A1043D862F5E7FD
:100DA00002484030C3681343C360EFE7000C0040C3
:100DB00070B5054600F0C6FF0646102D0CD006DCC7
:100DC000022D0BD0042D0FD0082D10D10EE0202DB8
:100DD00006D0402D0BD105E0012408E0022406E0F6
:100DE000042404E0062402E0032400E0052429464C
:100DF000602000F075F91EE0642000F09DFF00F017
:100E0000FBF8A04215D0402D02D0082D13D108E0E8
:100E1000642000F091FF6A2000F032F900070AD543
:100E200007E0642000F088FF6D2000F029F9C0077A
:100E300001D0012070BD00F085FF801B0A28DBD3A4
:100E4000002070BDF8B500273D463C46662000F006
:100E500017F98006C10F6D20009100F011F90646C8
:100E60006A2000F00DF90099002903D0F143C04336
:100E7000CEB2C0B2F10900D0202572060121002AAD
:100E800000DA0D43B20600D50D43F20602D510225A
:100E900015431446320702D508221543144372073E
:100EA00002D5042215431443B3070222002B01DAB2
:100EB00015431443F20701D00D430C43820602D5BB
:100EC000022780221443C20602D50F4340210C435F
:100ED000000703D5042007432020044339466A2035
:100EE00000F0FEF829466B2000F0FAF80098002880
:100EF00001D0E043C4B22046F8BD10B56E2000F02A
:100F0000BFF8044602216C2000F0EAF8204610BD2C
:100F100010B56E2000F0B4F8044601216C2000F0FA
:100F2000DFF8204610BD10B50146652000F0D8F866
:100F300010BD10B50446672000F0A2F84109490130
:100F40002143672000F0CCF810BDF8B515460E46D9
:100F50000746002406E0E019315DC0B200F0C0F899
:100F6000641CE4B2AC42F6D30120F8BD10B50446CF
:100F7000662000F085F80146002C02D0012C05D037
:100F800008E080200143BF20014003E04106490EF4
:100F900040200143662000F0A3F810BD10B50146C3
:100FA000682000F09DF810BD10B504460D2000F03B
:100FB00067F8002C02D0E021014303E04106490E0E
:100FC0009F2001400D2000F08BF810BD10B5692066
:100FD00000F056F841084900FB200140692000F06C
:100FE0007FF810BD10B5692000F04AF805210143D3
:100FF000692000F075F810BD10B5612000F040F8D0
:101000000007000F10BD10B50820FFF7D1FE10BD7E
:1010100010B51020FFF7CCFE10BD10B50220FFF771
:10102000C7FE10BD10B54020FFF7C2FE10BD10B5C1
:1010300000F04CF8022000F06FFE0220FFF7B8FE2F
:10104000612000F01DF810210843DF2101406120DC
:1010500000F046F8622000F013F8202101436220DE
:1010600000F03EF80020FFF79FFFFFF7EBFE10BDFA
:1010700010B505F0C3F910BD10B505F05DFA10BD4F
:1010800008B5FF216A461170694605F0F7F96A460E
:10109000107808BD10B504466620FFF7F1FF002C5C
:1010A00002D0DF21014001E020210143662000F051
:1010B00017F810BD10B55120FFF7E2FF8108890035
:1010C00002200143512000F00BF810BD10B5FF21A4
:1010D0007F2000F005F810BD10B505F039FB10BDFC
:1010E00010B505F0DCFA10BD10B50920FFF7C8FFF8
:1010F000C108C900022001430920FFF7F1FF10BD1C
:1011000070B505460146B1A0FFF798F8B24C65707E
:10111000FFF7AEFFFFF78BFF06220F202B0005F035
:101120001BF90906284F7294B7DAFDFCFB0020700A
:101130000C22AA490020FFF708FFA8490C220C3115
:101140001046FFF702FFA549082248391820FFF78B
:10115000FCFEA249182218312020FFF7F6FE9F4915
:101160001D2230313820FFF7F0FE9C490B224D3113
:1011700021E09A4920700C2258310020FFF7E5FE4B
:1011800096490C2264311046FFF7DFFE934908228E
:1011900040391820FFF7D9FE9049182270312020DD
:1011A000FFF7D3FE8D491D2288313820FFF7CDFE91
:1011B0008A490B22A5315520FFF7C7FE012001E126
:1011C000864922700C22B0310020FFF7BEFE834911
:1011D0000C22BC311046FFF7B8FE8049082238398E
:1011E0001820FFF7B2FE7D491822C8312020FFF7F2
:1011F000ACFE7A491D22E0313820FFF7A6FE774980
:101200000B22FD31D7E722700C2275490020FFF731
:101210009CFE73490C220C311046FFF796FE6F4975
:10122000082230391820FFF790FE6D491822183136
:101230002020FFF78AFE6A491D2230313820FFF74F
:1012400084FE67490B224D31B5E7654922700C22B7
:1012500058310020FFF779FE61490C2264311046B5
:10126000FFF773FE5D49082228391820FFF76DFE4D
:101270005B49182270312020FFF767FE58491D2274
:1012800088313820FFF761FE55490B22A53192E7DE
:10129000534922700C22B0310020FFF756FE50490E
:1012A0000C22BC311046FFF750FE4C490822203971
:1012B0001820FFF74AFE4A491822C8312020FFF7BC
:1012C00044FE47491D22E0313820FFF73EFE4449E5
:1012D0000B22FD316FE722700C2242490020FFF7FC
:1012E00034FE40490C220C311046FFF72EFE3B49DC
:1012F000082218391820FFF728FE3A491822183119
:101300002020FFF722FE37491D2230313820FFF719
:101310001CFE0B22334902E056E02DE005E04D3182
:101320005520FFF712FE02204CE02E4922700C22BD
:1013300058310020FFF709FE2A490C22643110467B
:10134000FFF703FE2549082210391820FFF7FDFD9D
:101350002449182270312020FFF7F7FD21491D2272
:1013600088313820FFF7F1FD1E490B22A5315520A9
:10137000FFF7EBFD032025E01A4922700C22B03163
:101380000020FFF7E2FD17490C22BC311046FFF7A1
:10139000DCFD1249082208391820FFF7D6FD114953
:1013A0001822C8312020FFF7D0FD0E491D22E03160
:1013B0003820FFF7CAFD0B490B22FD315520FFF7FE
:1013C000C4FD042003F0ECFA70BD00005246206D0D
:1013D0006F64653D25640A0060010020E06B000039
:1013E000E86C0000F06D0000002103E00A311038C5
:1013F000C9B2C0B21028F9D20818C0B270470307AA
:101400001B0F092B07D803091B01902B03D890420F
:1014100001D8884201D201207047002070470000A7
:101420000148006800470000F0000020034802491E
:1014300081600349816070475A5A000000200040D3
:10144000A5A5000003480F220168D2029143016064
:101450007047000000200040F8B50C460646002505
:10146000FFF7E4FF002C01D0012000E00020274C12
:10147000276A002E46D0E1030423012E28D0022E35
:1014800020D0032E05D0FFF7DDFF04252762284674
:10149000F8BD226A0A4322621D49CA6810239A4392
:1014A00003011A43CA60CA6820239A4343011A43BE
:1014B000CA60A1690F221143A161216808229143EA
:1014C000C00002E021689943800001432160DDE70C
:1014D000226A0A4322620E494039CE6802229643AC
:1014E00042001643CE60CE6880009E430643CE6025
:1014F00021690F20014321612068022188431043A4
:101500002060C3E7216849084900DEE70020004069
:10151000400D02400EB51BA1096802911A49002036
:1015200006C90192194A009111688906890F06D0EF
:1015300001291ED0022915D003291ED11BE0D06835
:1015400002A94005800F085C1149484311498842AF
:1015500013D111494988D3685B055B0D8B420CD1CF
:101560000E480AE0506969468005C00F800008589F
:1015700003E00B4801E00120C0031168C905490FD1
:10158000C8400EBD040810186C6B0000002000401D
:1015900040420F0000366E01000C100040865101E1
:1015A0000048E80100B5FFF7B5FF034909684905A0
:1015B000890FC84000BD00000020004010B504465F
:1015C000102811D008DC012C0ED0022C0CD0042CD9
:1015D0000AD0082C06D107E0202C05D0402C03D0DF
:1015E000802C01D0042010BDFFF720FF204602F020
:1015F00007FF054A1168FF23C13340079943C00D17
:1016000001431160002010BD0020004010B50446C9
:10161000012807D0022C05D0042C03D0082C01D0BF
:10162000042010BDFFF702FF204602F0E9FE054A44
:10163000116803235B0280079943400D0143116049
:10164000002010BD00200040034610B500200029F6
:1016500001D0012200E000220121054C9940002A1E
:10166000226A01D00A4300E08A43226210BD0000D2
:101670000020004010B50446A41E00200D4A0E496B
:10168000230004F069FE050406080A0C15001289FF
:1016900006E0D28804E0928802E0528800E01288D6
:1016A000CB685205520DDB0ADB021343CB6010BD41
:1016B000042010BD000C10000020004000280FD0B6
:1016C0001E4A116AD30219431162017803239B0653
:1016D000002907D001292AD0022908D0032929D0BE
:1016E00004207047516B99430123DB0603E0516BE3
:1016F000994301239B06C9185163516B01235B0673
:1017000099434378DB079B091943516341680C48AF
:10171000491E41610B49CA691202120A43041A4365
:10172000CA61002181610121016100207047516B74
:101730001943E1E7516B9943DEE7000000200040C8
:1017400000E000E004ED00E001490020087070476F
:101750000000002070B50023012407E0C55CCE5CCA
:10176000B54201D0002403E05B1CDBB29342F5D309
:10177000204670BD10B5044600780A21FEF739FFF7
:101780004007400E4018207060780A21FEF731FFB4
:101790004007400E40186070A0780A21FEF729FF2C
:1017A0008007800E4018A07020790A21FEF721FFE3
:1017B0008007800E40182071E0780A214007400F12
:1017C000E0706079FEF715FFC007C00E4018607129
:1017D000A0790A21FEF70DFF00014018A07110BD8D
:1017E0000148006800470000D000002070B5C50621
:1017F000ED0E012443B2AC40002B01DB174D2C60F1
:101800008007C00EFF2585408907090E8140002B07
:1018100008DB9E081248B60030180668AE430E4337
:1018200006600AE01807000F083886080D48B60061
:101830003018C669AE430E43C661012A08D0002B9A
:1018400005DB09480460BFF34F8FBFF36F8F70BD96
:10185000002BFCDB04488038046070BD80E200E0AF
:1018600000E400E000ED00E080E100E010B500F0F1
:1018700025F9002805D100F027F9002801D102F050
:1018800005FE10BD7047704770B505461E49002023
:101890008D4201D9042070BD1C49CA6A1C4B120C30
:1018A0001204D218CA62CA6A1A4C120C1204121913
:1018B000CA620A6B184E32430A630A6AD206FCD423
:1018C000CA6A120C1204D218CA62CA6A120C120432
:1018D0001219CA620A6A92089200921C0A620022D5
:1018E0002A700A6AD206FCD4CA6A120C1204D218F0
:1018F000CA62CA6A120C12041219CA620A6B120C6A
:1019000012040A6370BD0000FF7F00000000024067
:101910005A5A0000A5A50000FFFF0000F0B51F4ABD
:101920000023904201D8820701D00420F0BD1C4A58
:10193000D46A1C4D240C24046419D462D46A1A4E4F
:10194000240C2404A419D462146B184F3C43146370
:10195000146AE406FCD4D46A240C24046419D46206
:10196000D46A240C2404A419D462146AA408A40020
:10197000641C14620160106AC006FCD4D06A000CBA
:1019800000044019D062D06A000C00048019D062B3
:10199000106B000C000410631846F0BDFF7F0000C0
:1019A000000002405A5A0000A5A50000FFFF0000F9
:1019B00070B503460020072611E01D78802204063A
:1019C00003D54006000E704001E04006000E1542AF
:1019D00000D07040D40FA2185210F0D15B1C0A4600
:1019E000491EC9B2002AE8D170BD00000148406814
:1019F000807870472C01002070B505460024012036
:101A000000F0A6F90646FEF775FD022D06D0012D61
:101A10000DD0042D14D0032D2BD033E0FEF7A8FBFE
:101A20002321FEF7F0FD64204143194828E0FEF72A
:101A30009FFB3221FEF7E7FD3220414315481FE0AE
:101A4000FEF796FBFF219131FEF7DDFD4C1C304681
:101A500000F072F9012000F07BF9FEF789FBFF210D
:101A60002D31FEF7D0FD481CA200A1180A225043D8
:101A700006E0FEF77DFBC821FEF7C5FD491C880086
:101A8000081884B2214604A0FEF7D8FB204670BD9A
:101A900044160000CA0800005427203D2025640A8F
:101AA000000000000148406970470000000000206D
:101AB00001484069407B70470000002001480068F1
:101AC000704700008C0100200148807A70470000B8
:101AD0000006002070B5002503F082FD064A11685B
:101AE000884201D3441A01E0441A641E002C01D03C
:101AF00025461060284670BDA400002000487047AD
:101B0000AC0400200246054880182038C07F022A15
:101B100003D1890701D1401CC0B270478C6B000013
:101B2000820104481018026901238B409A43026124
:101B300000207047000E024000B5012304F0DCFBDA
:101B4000002000BD034A800180184068C840C007DB
:101B5000C00F7047000D0240034A800180180068E2
:101B6000C840C007C00F7047000E024070B5164D48
:101B70000446A8780126A0420AD1E978FFF7ECFFD5
:101B8000012805D1E978A878FFF7CAFF0F48067049
:101B90002879A0420AD16979FFF7DEFF012805D133
:101BA00069792879FFF7BCFF094806702878A042B8
:101BB00008D16978FFF7D0FF012803D16978287828
:101BC000FFF7AEFF70BD0000AD0000200000002058
:101BD0008800002070B50D4614490646086A144670
:101BE000CA031043086200222946304600F06CF810
:101BF000B001AA000E4B00218218D21811600D49C5
:101C00000123AB4040180168002C01D0194300E0CB
:101C100099430160016A99430162416A99434162B3
:101C2000C16A9943C162002070BD000000200040DD
:101C3000000C0240000D0240F0B504461F480F465C
:101C4000016A1D461646C20311430162002239464D
:101C5000204600F039F8A001BA00194B0021821883
:101C6000D218116017490124BC4040180168002EA9
:101C700001D0214300E0A143016007990029C16917
:101C800001D0214300E0A143C161016A002D01D0D0
:101C9000214300E0A143016205990029416A01D076
:101CA000214300E0A143416206990029C16A01D0A5
:101CB000214300E0A143C1620020F0BD00200040AC
:101CC000000C0240000D024010B50123064C8B4071
:101CD00080010019C168002A01D0194300E099432E
:101CE000C160002010BD0000000D024010B5002AA8
:101CF00001D0012300E000230122064C8A4080012C
:101D000000198168002B01D0114300E091438160EC
:101D100010BD0000000D024010B5020008D0054CB7
:101D2000236821680120C91A00F006F89142F8D30F
:101D300010BD0000BC000020002802D000BF401EE3
:101D4000FCD170470148006870470000BC000020CB
:101D500010B50120FEF718FF10BD0000054A10B5B0
:101D6000400081184978105CFFF7ECFE012800D094
:101D7000002010BDAD000020084B420010B5D01867
:101D8000012907D0002904D14178985C0022FFF78F
:101D9000ADFF10BD4178985C0122F8E7AD0000204E
:101DA00070B50B4D4400601902290CD0032909D1EC
:101DB0004178285D0822FFF7BFFE285D012203213C
:101DC000FFF714FD70BD4178285D0422F3E70000A1
:101DD000AD0000203EB51D4B4000C218002913D0B5
:101DE000012915D000240125022917D003291CD070
:101DF000042924D0052910D101940095029451782A
:101E0000185C0023012217E05178185C002202E0E0
:101E10005178185C0122FFF7DDFE3EBD009401956C
:101E20000294185C5178002305E000940194029418
:101E30005178185C01230022FFF7FEFE3EBD00949E
:101E400001940294185C51780123DBE7AD00002077
:101E500030B58BB0142103A804F0E8FC082108A8D1
:101E600004F0E4FC03210AA804F0E0FC0721684622
:101E700004F0DCFC032102A804F0D8FC01210220BC
:101E8000FFF7EAFA01211420FFF7DEFB6946022082
:101E9000087301244C73002008720320487202A8C2
:101EA000049019208871092048710C7108208870ED
:101EB000487008700D46081D03F0AAF86946C870FE
:101EC0006846FFF757FC0B4808900B48099008A894
:101ED0000690059569460C77002003F069F900200B
:101EE00003F046F903A803F0B1F9002003F070F9FC
:101EF0000BB030BD0D500000A54F00007CB508218F
:101F0000684604F093FC0024684604700B48019076
:101F10006846FFF7D3FB01980949401E88420BD859
:101F20000849486108480722C3691B021B0A4D047F
:101F30002B43C3618C610A617CBD00007F3E0000C1
:101F4000FFFFFF0000E000E004ED00E000B585B019
:101F500001210820FFF778FB0020694600900871F6
:101F6000012048710E4803900120FEF75FFE0D49E5
:101F70000120FEF71DFE00210120FEF7C5FD012016
:101F8000FEF7E4FD0120FEF735FE012203210F20BC
:101F9000FFF72CFC0120FEF7EFFE05B000BD0000AE
:101FA000E1580000ABC1000070B592B00E460C21A4
:101FB0000FA804F03BFC03210EA804F037FC082115
:101FC0000CA804F033FC142103A804F02FFC002417
:101FD0000123009401942246194620460294FFF7FB
:101FE0002BFE00220094019401230221104602944A
:101FF000FFF722FE3348C16802239943C16032498A
:102000004A68D208D200521C4A6002681A43026031
:10201000C36804229343C3608B68DB08DB005B1C4E
:102020008B6001689143016001210820FFF70CFBE0
:1020300001210020FFF708FB24481190244810904C
:102040000F940FA80A90012508A80573057004765F
:102050000EA8099008A844740D960574FFF7A2FA1B
:1020600001460CAA002004F099F80646684645741B
:10207000047403A90020FEF7D9FD31460020FEF7C5
:1020800043FD31460020FEF793FD0020FEF774FE6D
:1020900008A9002004F016F80121002003F0B4FF85
:1020A0000121002003F068FF0121002003F09AFFC6
:1020B0000021084604F09FF80221002003F05CFF95
:1020C00012B070BD000D0240000C0240C153000070
:1020D0008518000070B515460E46002405E0315DF8
:1020E000002004F037F8641CA4B2AC42F7D370BDF2
:1020F00008B5002000900028FDD008BDF8B50C46BA
:1021000005460B78294A2A492AA0FEF797F8207835
:1021100001262D4F132836D007DC2C49012812D078
:1021200002281FD005280DD10AE0142836D019281E
:1021300022D0302806D1A2786178032003F038FC41
:102140002E712F60F8BD084603F026FA0520A8720C
:10215000FFF7D4FC00231E4A1E4903F0E9FB1E4989
:102160008862F8BD084602F039FF0020A8721A48BC
:10217000806A03F0BAFBF8BDE378A27861780820A2
:1021800000F0ACFBF8BD6E72E378A27861780820AD
:1021900000F0A4FB2E7111482860F8BDE378A27806
:1021A0006178082000F09AFBCAE700000F050000E4
:1021B0001A6900005B495D2573282564293A736913
:1021C000673D25640A0A0000ED550000000000028A
:1021D0002945000080EE360000000020E1210000CB
:1021E000F8B50C4605460B78284F294A29492AA0FC
:1021F000FEF724F820780126142836D007DC2B4976
:10220000012813D0022820D005280ED133E0284F12
:10221000152834D0192821D0312806D100220221D6
:10222000032003F0C5FB2E712F60F8BD084603F0B4
:10223000B3F90520A8726E72FFF760FC00231D4AF7
:102240001D4903F075FB7862F8BD084602F0C6FE32
:102250000020A872786A03F048FBF8BDE378A27802
:102260006178082000F03AFBF8BDE378A278617845
:10227000082000F033FB2E7110482860F8BDE37889
:10228000A2786178082000F029FBCCE7000000204C
:10229000D4040000066900005B495D2573282564AD
:1022A000293A7369673D25640A0A000000000002AC
:1022B000C12200002945000080EE3600ED550000E7
:1022C000F8B50C4605460B78304F314A314932A0FB
:1022D000FDF7B4FF20780126152826D01EDC05283E
:1022E00018D00DDC3149012830D0022807D108462A
:1022F00002F074FE0020A872386A03F0F6FAF8BD06
:10230000132831D01428FAD1E378A2786178082014
:1023100000F0E4FA26482E712860F8BD2F282DD051
:102320000ADC162801D01928F7D1E378A278617861
:10233000082000F0D3FAF8BD312801D03228FAD1B4
:10234000A2786178032003F033FBF8BD084603F060
:1023500023F90520A872FFF7D1FB0023154A16497F
:1023600003F0E6FA3862F8BD6E72E378A27861781D
:10237000082000F0B3FA2E711048CDE7A2786178FA
:10238000032003F015FB2E710D48C5E70000002067
:102390008B040000EE6800005B495D25732825640E
:1023A000293A7369673D25640A0A000000000002AB
:1023B000ED5500002945000080EE3600E1210000C7
:1023C000FD200000F0B53D4E054685B00020746943
:1023D0000290039004900F460B78394A39493AA08D
:1023E000FDF72CFF387801270A284AD018DC01288D
:1023F00027D0022840D0092821D1F06A03F075FACD
:1024000000200323014601901A46009702A803F01A
:10241000ABF8E07901970090A3796279217944E0E3
:102420000B2834D00C2801D0402808D1F06A03F0E2
:102430005CFA306B03F059FA2F712848286005B018
:10244000F0BD27484168012088470120400503F07E
:10245000A3F80220A872FFF751FB0023214A22496A
:1024600003F066FAF062FFF749FB00231F4A204998
:1024700003F05EFA3063E2E70120400502F0AEFDB2
:10248000DDE700220721012003F092FAD7E70025BB
:1024900005230322294602A80097019503F064F85A
:1024A00001970095A17A00231A4602A803F065F867
:1024B000012102A800F0DCFAC1E7000000000020C2
:1024C00076050000276900005B495D2573282564B7
:1024D000293A7369673D25640A0A0000ED5500003A
:1024E0006001002075450000B80B0000C5450000E4
:1024F00060EA0000FEB5047A05461A4800264769DE
:1025000000960196012C05D0287923460122052149
:1025100000F07EFA134920468031032401280BD0B5
:10252000022808D1052048702D20694608704C709B
:10253000684602F059F9FEBD0B488278A87A8242BB
:10254000F9D10D46486803F0D0F96E606C70A12295
:102550000021384602F054FF0028ECD003F02CF89C
:10256000FEBD00000000002090010020FEB5077AAB
:10257000054600263848009601964469A87A012845
:1025800001D1042F15D0012F08D0687AC00705D0DB
:1025900028793B460122082100F03AFA2F203B001F
:1025A00003F0DAFE0C1D102A2C1E1D1D333A414883
:1025B0004F1D2A48416801208847FF202D30FFF732
:1025C000ABFBE2E72648A97A8078884207D1224C03
:1025D0008034606803F089F9032066606070FEBD96
:1025E000607BA12806D12E2069460870042048701F
:1025F00001208870684605E0312000E032206946FD
:10260000087026E002F0F0F8FEBD617BA129FBD145
:102610006946087007201BE0617BA129F4D1694657
:102620000870082014E0617BA129EDD1694608708B
:1026300009200DE0617BA129E6D1694608700A20D6
:1026400006E0607BA128DFD13020694608700B20AE
:1026500048700846D6E70000000000206001002016
:10266000900100207FB5014600200090019002906B
:1026700003901E480F2245691D4841186846FDF722
:1026800057FF6846C4791B48817A022916D0042274
:1026900069462846FFF75EF8002812D0684641795F
:1026A000E87A814201D0FD290BD1230003F054FECA
:1026B00009090A0909090E12161A0900684600F0EC
:1026C00035F87FBD684600F04BF97FBD6846FFF7DF
:1026D00011FF7FBD684600F0B1F87FBD684600F08D
:1026E0000BF87FBD6846FFF741FF7FBD000000206B
:1026F000DA0100200006002010B5037A012B05D076
:1027000000790122072100F083F910BD807A0228A8
:10271000FBD1054C606803F0E8F8002060600320FE
:1027200060700120207010BD80000020FEB50446BE
:102730000F4600203B490290267A4D690090019097
:102740002078002808D16078002805D1A0780028DA
:1027500002D1E07800282CD0214604220A3102A8B8
:10276000FDF7E6FE012E28D0032E43D0052E1FD103
:10277000022F1DD1042221462846FEF7EBFF002838
:1027800016D0042202A9281DFEF7E4FF00280FD06E
:10279000334601220321002000F03AF92079287302
:1027A000012068720A2069460870684602F01CF829
:1027B000FEBD1DA0FDF742FDFEBD1F48A17A807839
:1027C0008842F9D1174D8035686803F08EF80020F3
:1027D000686003206870A07A0528EDD1022FEBD144
:1027E000A1220121204602F00BFE0028E4D002F0D5
:1027F000E3FEFEBD022FFCD1042202A9281DFEF734
:10280000A9FF0028F5D0042221462846FDF790FEB6
:102810006079E872334601220321002000F0F8F8C5
:102820000920C0E700000020487562204944206963
:102830007320300A0000000090010020FEB504461D
:10284000067A24480027456900970197A079012856
:1028500001D002281CD1012E05D020793346012257
:10286000062100F0D5F8012E05D0042E11D0052E3A
:102870000ED129201BE01848A17A8078884207D120
:10288000144C8034606803F030F803206760607097
:10289000FEBD2079002810D0287302206872A12282
:1028A0000121204602F0ACFD0028F1D02820694625
:1028B0000870684601F098FFFEBD01202F73687212
:1028C0000146A122204602F09BFD0028F4D02720DB
:1028D000EDE700000000002090010020FFB51E463B
:1028E0000B461D4985B00024496902940394049461
:1028F0004F7A01222546022F01D1CC7A0322009281
:1029000001950246097B02A802F02EFE01200190EB
:1029100023463246009502A8079902F02EFE0121B7
:1029200002A800F0A5F80C4C80340BE002F0C0FFC8
:1029300002F0D6FA03F068FA084801F033FF607835
:10294000052804D060680028F0D109B0F0BD6068A7
:1029500002F0CBFF6560F8E70000002000060020D1
:102960007CB5144A017A002452690094019401292B
:1029700016D0022913D14079FD2810D1107A0328EE
:1029800003D0042801D0072809D10B484168012051
:1029900088472C2069460870684601F025FF7CBDF9
:1029A000044D8035686802F0A0FF03206C606870F9
:1029B0007CBD00000000002060010020F7B5064645
:1029C0000F4600240DA0FDF739FC0D4D05E0315DEB
:1029D0000CA0FDF733FC641CE4B22878A042F6D8C2
:1029E00009A0FDF72BFC696838468847AC6929784F
:1029F000064B3046029AA047FEBD000054783A00CC
:102A000060010020257820000A00000070170000F7
:102A1000FFB5154885B04569002416460F46009459
:102A2000019402940422294668460394FDF780FD30
:102A3000E87A6946087105984871287A8871CF71DB
:102A40000E720898887209484C720078401EC1B214
:102A50006846FEF7ADFF694688730022012168468B
:102A6000FFF7ACFF09B0F0BD0000002060010020BE
:102A7000F0B50446304885B0456900200E46009008
:102A80000190029007460390042229466846FDF70C
:102A90004FFDE87A6946087120784871287A887174
:102AA0006078C871A0780872E078487220798872DE
:102AB0006079C872A0790873E079204D487328784E
:102AC000401EC1B26846FEF773FF694688730A224A
:102AD00021461B48FDF72CFD627A217A6846FFF7F4
:102AE0006DFFE8698047207A002802D0012802D0D3
:102AF00002E0022700E00127012E19D16846407A42
:102B0000C00715D00C4D80356868002810D13846B4
:102B1000FEF772FF0446FEF7F1FF0646002C09D0CF
:102B2000204601460023074A304602F001FF686054
:102B300005B0F0BD0120F4E7000000206001002096
:102B400090010020E14500000148006800470000B6
:102B5000D400002010B50020FFF708F810BD10B514
:102B60000120FFF703F810BD10B50220FEF7FEFFAD
:102B700010BD10B50320FEF7F9FF10BD10B5002001
:102B800003F077FA10BD10B5012003F072FA10BD02
:102B900010B5002001F044FC10BD10B5002002F07B
:102BA00019FD10BD10B50020FFF7CEFF10BD10B508
:102BB000002002F085FE10BD10B5012002F080FE5D
:102BC00010BD10B5022002F07BFE10BD10B5002034
:102BD00001F020FC10BD10B50420FDF7FBFE10BD78
:102BE00010B50520FDF7F6FE10BD10B50620FDF767
:102BF000F1FE10BD10B5002001F052FC10BD10B563
:102C0000002003F05DFB10BD10B5002002F000FBBA
:102C100010BD10B50020FDF7A9FE10BD10B50020B5
:102C200003F02CFB10BD10B5012003F027FB10BDF5
:102C300010B5002001F01AFC10BD10B50020FEF701
:102C4000CFFD10BD10B50020FEF7EAFB10BD00005F
:102C500070B50E4604460B781B4D1C4A1C491DA03E
:102C6000FDF7ECFA3078012147282AD009DC1E4A0A
:102C700001280ED002281AD0352809D121711B480D
:102C800005E048281DD0512802D119482171206043
:102C900070BD104602F080FC0520A072FEF72EFFEA
:102CA0000023144A144902F043FE686670BD1046C2
:102CB00002F094F90026A672686E02F016FE6E66A7
:102CC00070BD21710D48E2E700000020010A0000FC
:102CD000726A00005B495D2573282564293A73698F
:102CE000673D25640A0A000000000002ED5500005F
:102CF00041320000193D000080EE3600012D000039
:102D0000F8B5002700970D4604460B78364A374938
:102D100037A0FDF793FA28783A4E012543285BD077
:102D200009DC394901282CD0022849D0412846D154
:102D30002571364855E0442851D04C2849D05A28AE
:102D40003DD10B226B4603215A70997019700121F5
:102D5000684601F099F90220FEF7DEFF02226B4679
:102D600003215A700120997018700146684601F0DD
:102D70008BF9B07A411CB172022820D92571244800
:102D80002FE0084602F008FC0820A072B77202206B
:102D90006B465870032207219A701970012168460A
:102DA00001F072F90320FEF727FE0446FEF7A6FEA7
:102DB00019490023174A611802F0BAFDF065F8BD01
:102DC000084602F00BF9A772F06D02F08EFDF76570
:102DD000F8BD2571114804E02571114801E0114842
:102DE00025712060F8BD000055090000296A000027
:102DF0005B495D2573282564293A7369673D25641D
:102E00000A0A000000000020000000085D310000F8
:102E1000ED550000E53C0000501400000D380000A6
:102E200075300000892F0000F8B5002700970D4687
:102E300004460B78444A454945A0FDF7FFF9287838
:102E4000484E0125412853D00BDC474901281DD0AD
:102E5000022844D0382872D039283FD12571434800
:102E60006FE0434F4B284CD04C2844D0572835D1E5
:102E700006226B4603215A70997019700121684629
:102E800001F002F9307A411C317254E037727772E6
:102E9000084602F081FB0420A0720B216B4659709A
:102EA00003221F209A7018700121684601F0ECF887
:102EB0000220FEF731FF06226B4603205A709870FD
:102EC0000F2119700121684601F0DEF8FEF716FEA9
:102ED0000023284A284902F02BFDB064F8BD0846BB
:102EE00002F07CF8A772B06C02F0FFFCB764F8BD8A
:102EF0002571224825E02571214822E025712760AF
:102F0000F8BD0B226B4603215A709970197001218C
:102F1000684601F0B9F80220FEF7FEFE06226B4675
:102F200003215A70997019700121684601F0ACF8BC
:102F3000707A411C71720228E0D8F8BDFFE7114891
:102F400025712060F9E700008B080000BD690000D2
:102F50005B495D2573282564293A7369673D2564BB
:102F60000A0A00000000002000000008953A000056
:102F7000ED550000FF3C0000881300005D310000AB
:102F80000D3800000D3C0000F8B5002600960D46F7
:102F900004460B78294A2A492AA0FDF74FF92878D8
:102FA00001272D4D352841D00DDC2C49012811D0A9
:102FB000022807D1084602F011F8A672686D02F0E7
:102FC00094FC6E65F8BD472801D04828FAD12771D6
:102FD000234831E0084602F0DFFA0520A072812183
:102FE0006B465970022200209A70187001216846C1
:102FF00001F04AF86A786B4603215A7001209970F3
:1030000018700146684601F03FF8FEF777FD02238D
:10301000144AC82102F08CFC6865FEF76FFD00239E
:10302000114A124902F084FCA865F8BDA86D02F0AF
:103030005CFCAE650E4827712060F8BD1A090000DF
:10304000076A00005B495D2573282564293A736986
:10305000673D25640A0A000000000020000000020D
:10306000012D0000393E0000193D000080EE3600C1
:10307000ED550000F8B5002600960D4604460B7885
:10308000284A294929A0FDF7D9F8287801272C4D8D
:1030900035283FD00CDC2B49012810D0022806D15E
:1030A000084601F09BFFA672E86C02F01EFCF8BD1A
:1030B000472801D04828FAD12771234830E0084634
:1030C00002F06AFA0520A07241226B4602215A7072
:1030D0009970002018700121684600F0D5FF6A78C9
:1030E0006B4603205A70987001211970684600F0F1
:1030F000CBFFFEF703FD0123144AC82102F018FCA0
:10310000E864FEF7FBFC0023114A124902F010FCB0
:103110002865F8BD286D02F0E8FB2E650E48277182
:103120002060F8BDDF080000E26900005B495D2512
:1031300073282564293A7369673D25640A0A0000EB
:103140000000002000000002012D0000393E0000B8
:10315000193D000080EE3600ED550000F8B5002660
:1031600000960D4604460B78274A284928A0FDF70B
:1031700065F828787D27FF002A4D0121422825D0B7
:1031800009DC294A01280ED0022816D0412809D18D
:103190002171264805E04E281BD0552802D124482D
:1031A00021712060F8BD104602F0F6F90320A072EC
:1031B00020484168032088471DE0104601F00EFFBB
:1031C000A672686C02F091FB6E64F8BD21711A481A
:1031D000E7E70C226B4603215A7099701F20187084
:1031E0000121684600F050FF3846FEF795FD686CF7
:1031F00002F07BFB6E64FEF781FC00230F4A394628
:1032000002F096FB6864F8BD4D0800009E6900005E
:103210005B495D2573282564293A7369673D2564F8
:103220000A0A000000000020000000045D310000D8
:10323000D540000060010020292E0000A13E0000C2
:10324000F8B5002700970D4604460B78474E484ACC
:10325000484949A0FCF7F2FF28780125442855D0B9
:103260000BDC4A49012837D0022840D0412847D0FA
:10327000432830D1257146482CE04A2849D04B28B4
:1032800059D04C283FD05A2825D1F06E02F02DFBA2
:103290000B216A46F7665170032090701770012168
:1032A000684600F0F1FE02236A46032153700120B4
:1032B000917010700146684600F0E6FE0C236A46E5
:1032C00003205370907001211170684600F0DCFEFD
:1032D000304825712060F8BD084602F05DF90820ED
:1032E000A07200220B21032002F062FB15E00846C9
:1032F00001F074FEA772F06E02F0F7FAF766F8BDFF
:1033000025712548E6E725712448E3E7257124481F
:10331000E0E7F06E02F0E9FAF7660420FEF76CFBD6
:103320000446FEF7EBFB214600231E4A193102F04A
:10333000FFFAF066F8BD0320FEF75EFBFEF7ECFC3B
:103340000B226B4603215A7099701970012168464F
:1033500000F09AFE0220FEF7DFFC022203206B46FB
:103360005A709870187001216846AFE7000000207D
:103370009A0A0000A96A00005B495D25732825644C
:10338000293A7369673D25640A0A000000000008B5
:1033900075300000ED5500005D3100000D38000073
:1033A000892F0000E53C0000F8B5002700970D4686
:1033B00004460B784C4E4D4A4D494EA0FCF73EFF5B
:1033C000287801254A2863D00BDC4F4901282AD0F0
:1033D000022847D0352852D0412823D125714B48A7
:1033E0001FE04B2866D04C284FD057281AD10B220B
:1033F0006B4603215A7099700020187001216846AD
:1034000000F042FE0220FEF787FC06226B460321F5
:103410005A70997019700121184600F035FE3C4829
:1034200025712060F8BD084602F0B6F80320A072AE
:103430000222042102F0BCFA0420FEF7DDFA044661
:10344000FEF75CFB21460023324A193102F070FA84
:103450003067FEF753FB00232F4A304902F068FA29
:103460007067F8BD084601F0B9FDA772306F02F031
:103470003CFA3767706F02F038FA7767F8BD0222BE
:103480000421032002F094FAC9E725712448C8E713
:10349000306F02F02AFA04203767FEF7ADFA0446CF
:1034A000FEF72CFB214600231A4A193102F040FA9C
:1034B0003067F8BD0320FEF79FFAFEF72DFC0B22C4
:1034C0006B4603205A70987018700121684600F00E
:1034D000DBFD0220FEF720FC06226B4603205A701B
:1034E0009870187097E7000000000020FC0A0000A8
:1034F000CD6A00005B495D2573282564293A73690C
:10350000673D25640A0A0000000000085D310000E4
:10351000ED550000FF3C0000193D000020BF0200F7
:103520000D380000F3B581B00446002602980096DD
:103530000378484D484A494949A0FCF77FFE029864
:1035400001270078482815D017DC43285FD00DDC10
:10355000484901284BD0022807D1084601F03EFD1A
:10356000A672A86E02F0C1F9AE66FEBD442851D025
:103570004728FAD12771404837E04A2850D05128CF
:103580004BD054285ED05928EFD1A86E02F0ADF987
:103590000B216A46AE6651700320907016700121AF
:1035A000684600F071FD81216A46517002209070DA
:1035B00016700121684600F067FD0C236A4603215E
:1035C00053700120917010700146684600F05CFD58
:1035D0002B7B6A46032153700120917010700146C5
:1035E000684600F051FD254827712060FEBD2E730E
:1035F000084601F0D1FF0520A07221484168032050
:10360000884700220821032002F0D2F90CE027713C
:103610001C48EAE727711C48E7E727711B48E4E7E5
:10362000A86E02F062F9AE660420FEF7E5F90446E2
:10363000FEF764FA17490023154A611802F078F979
:10364000A866FEBD0298072142782A73032002F083
:10365000AFF9FEBD00000020370A0000896A0000B3
:103660005B495D2573282564293A7369673D2564A4
:103670000A0A000000000002012D0000512C000089
:103680006001002075300000892F000041320000E9
:10369000333D000050140000F3B581B0044600260D
:1036A0000298009603784D22484D5201484949A09E
:1036B000FCF7C4FD029801270078482815D017DCD4
:1036C00043285FD00DDC484901284BD0022807D1A0
:1036D000084601F083FCA672286E02F006F92E66F9
:1036E000FEBD442851D04728FAD127713F4837E022
:1036F0004A2850D051284BD054285ED05928EFD1B9
:10370000286E02F0F2F80B216A462E6651700320F3
:10371000907016700121684600F0B6FC41216A469F
:1037200051700220907016700121684600F0ACFCC8
:103730000C236A46032153700120917010700146DA
:10374000684600F0A1FCEB7A6A4603215370012021
:10375000917010700146684600F096FC244827716D
:103760002060FEBDEE72084601F016FF0520A07233
:10377000204841680320884700220721032002F0E7
:1037800017F90CE027711C48EAE727711B48E7E7A7
:1037900027711B48E4E7286E02F0A7F82E66042084
:1037A000FEF72AF90446FEF7A9F917490023154A3E
:1037B000611802F0BDF82866FEBD02980721427824
:1037C000EA72032002F0F4F8FEBD000000000020C1
:1037D0004F6A00005B495D2573282564293A7369A7
:1037E000673D25640A0A000000000002012D000068
:1037F000512C00006001002075300000892F00006E
:1038000041320000333D000050140000F8B500279D
:1038100000970D4604460B78544E554A554956A01C
:10382000FCF70CFD287801254A2877D00BDC574996
:10383000012841D0022864D0352870D041283AD1DF
:103840002571534890E04C286FD04E286AD05628F6
:1038500031D1A07A03282ED17773B06F02F045F8EA
:103860000B226B46B76703215A70997002201870BB
:103870000121684600F008FC05216B4659700320C1
:1038800098701F700121684600F0FEFB05216B4611
:103890005970022098701F700121684600F0F4FBF7
:1038A0000C226B4603215A70012099701870014652
:1038B000684600F0E9FBF8BD084601F06DFE032004
:1038C000A07234487573416803208847012204219F
:1038D000032002F06DF80420FEF78EF80446FEF790
:1038E0000DF92E4900232C4A611802F021F8B06727
:1038F000FEF704F900232A4A2A4902F019F8F06772
:10390000F8BD084601F06AFBA772B06F01F0EDFF49
:10391000B767F06F01F0E9FFF767F8BD08E01CE05A
:1039200003E0FFE7257120481EE025711F481BE0DA
:10393000707B0128F1D1B06F01F0D7FF0420B76789
:10394000FEF75AF80446FEF7D9F814490023124A44
:10395000611801F0EDFFB067DFE7022204210320C8
:1039600002F026F8124825712060D6E700000020FA
:103970005E0B0000F06A00005B495D25732825643A
:10398000293A7369673D25640A0A000000000004B3
:103990005D310000600100204D3D0000501400002A
:1039A000193D000020BF0200A93300000D380000BF
:1039B000ED550000FEB52B4D0446686900260190C8
:1039C00000960F460B78284A284929A0FCF736FCB8
:1039D00039780B292ED008DC2A48012912D0022977
:1039E00002D101F0FBFAA672FEBD3D291CD0402990
:1039F000FAD1686B01F079FF01206E6320712248D3
:103A00002060FEBD01F0C8FD0220A0721F48416881
:103A100005208847FEF772F87D2100231C4AC90063
:103A200001F086FF6863FEBD00220721012001F03E
:103A3000BFFFFEBDC2220121019801F0E1FC012877
:103A4000F7D10E226B4605215A709970002018702C
:103A50000121684600F018FB3220FEF75DF901F005
:103A6000ABFDFEBD000000204E07000033690000E2
:103A70005B495D2573282564293A7369673D256490
:103A80000A0A000000002000ED550000600100203F
:103A9000693D0000F3B52F4E81B0044600277569DB
:103AA000029800970378F122D2002B492BA0FCF753
:103AB000C5FB029801210078490501280ED0022893
:103AC0001FD03C2822D0402807D1B06B01F00DFF59
:103AD0000120B763207126482060FEBD084601F032
:103AE0005BFD0220A0722348416803208847FEF74F
:103AF00005F87D210023204AC90001F019FFB063B9
:103B0000FEBD084601F06AFAA772FEBD687B002878
:103B100004D10422291D2846FCF70AFD12226B4617
:103B200003215A709970002018700121684600F036
:103B3000ABFAC2220121284601F062FC012806D11D
:103B40000022072101F034FF3220FEF7E5F801F0F2
:103B500033FDFEBD00000020506900005B495D257B
:103B600073282564293A7369673D25640A0A0000B1
:103B7000ED55000060010020A93D00001CB50021AA
:103B80000091019119494B69017908290ED0122938
:103B90000CD00E290AD0112921D007291ED10146A7
:103BA00004221846FCF7C4FC3B2019E001780029E8
:103BB00008D14178002905D18178002902D1C17846
:103BC000002906D0014604221846FCF7B1FC3D202E
:103BD00006E0074A074908A0FCF730FB1CBD3C2063
:103BE00069460870684600F0FFFD1CBD000000201B
:103BF000CA0B00000D6B00005B495D25732825642E
:103C0000293A494420697320300A0A00FEB52A4D3A
:103C1000044668690026019000960F460B78274AF3
:103C2000274928A0FCF70AFB39783B293ED01EDC47
:103C30002948012928D0022934D00B2916D1C222C3
:103C40000121019801F0DCFB01280FD108226B460D
:103C500003215A709970002018700121684600F005
:103C600013FA3220FEF758F801F0A6FCFEBD3D29FC
:103C70001CD04029FAD1E86B01F037FE0120EE6339
:103C8000207116482060FEBD01F086FC0220A07263
:103C9000FDF734FF7D210023114AC90001F048FEE1
:103CA000E863FEBD01F09AF9A672FEBD002207216D
:103CB000012001F07DFEFEBD00000020C4070000D1
:103CC0006C6900005B495D2573282564293A736996
:103CD000673D25640A0A000000002000ED55000041
:103CE000D13D00001CB5002000900190002905D1B5
:103CF0005A2069460870684600F076FD1CBD1CB568
:103D0000002000900190002905D1572069460870D5
:103D1000684600F069FD1CBD1CB5002000900190B4
:103D2000002905D1352069460870684600F05CFD21
:103D30001CBD1CB5002000900190002905D1592020
:103D400069460870684600F04FFD1CBD1CB5002098
:103D500000900190002905D15620694608706846F8
:103D600000F042FD1CBD000008B500200D4A009087
:103D7000002903D0012900D1D07008BDD078411CA2
:103D8000D1700A2802D901F017FC08BD0D216B463D
:103D900059700520987000221A700121684600F0C1
:103DA00073F908BD0000002010B5084A002904D0AE
:103DB000012901D10020107110BD1079401CC0B242
:103DC00010713C28F8D901F0F7FB10BD000000206D
:103DD00038B50022164C0092002904D0012901D1E7
:103DE0006271A27138BD6079401CC0B260710A284E
:103DF0000BD211206B4658700321997000221A7063
:103E00000121684600F040F90AE00A2802D014288F
:103E100005D005E0074841680220884700E062714C
:103E2000A079411CA1713C28DCD901F0C5FB38BD4B
:103E30000000002060010020FEB500240E46074669
:103E400000940194029401F05AFD144D002E03D009
:103E5000012E00D1EC71FEBD012802D0022802D053
:103E600008E0412200E0812203216B465A720020C3
:103E700099721872012102A800F006F9E879401C35
:103E8000C0B2E8710228E6D9384601F02EFD58206C
:103E900069460870684600F0A7FCFEBD00000020DF
:103EA0001CB5002000900190002905D155206946DD
:103EB0000870684600F098FC1CBD00007FB500212A
:103EC000584A029103915569009101915649062281
:103ED000091802A8FCF72CFB6846047B5348807A3B
:103EE000022817D0042202A92846FDF733FC002837
:103EF0006FD05420D42C4CD023DC0C2C37D00DDCCC
:103F0000A41E230002F028FA0A37393B2B2F090997
:103F10000909310902A8FFF731FE7FBDD12C30D04D
:103F200007DC0F2C19D0412C23D0812CF5D1502047
:103F300016E0D22C29D0D32CEFD169460870092085
:103F40005BE0D53C230002F007FA0C282C30343813
:103F50003C4045494D515507DFE74C2000E04D20DE
:103F6000694608704AE04E20FAE74A20F8E74B20FD
:103F7000F6E74F20F4E75120F2E75220F0E7532014
:103F8000EEE769460870072037E0694608700820A8
:103F900033E0694608700A202FE0694608700B205C
:103FA0002BE0694608700C2027E0694608700D2058
:103FB00023E0694608700E201FE0694608700F2054
:103FC0001BE069460870102017E069460870112050
:103FD00013E017E06946087012200EE06946087089
:103FE00013200AE069460870142006E0694608704C
:103FF000152002E06946087016204870084600F057
:10400000F3FB7FBD042202A90948FDF7A3FB0028AA
:10401000F7D00F2CF5D101220421032001F0C8FCB8
:104020007FBD000000000020DA0100200006002013
:10403000CC680000F7B506460F4600240DA0FCF73B
:10404000FDF80D4D05E0315D0CA0FCF7F7F8641CA0
:10405000E4B22878A042F6D809A0FCF7EFF8696826
:1040600038468847AC692978064B3046029AA04703
:10407000FEBD000054783A00600100202578200041
:104080000A000000701700007CB504460F480D467A
:10409000416900200090019004226846FCF748FA2C
:1040A000607869460A4E08713078401EC1B2684691
:1040B000FDF77EFC694648712278A1786846FFF7D3
:1040C000B9FF012D01D1F06980477CBD00000020BF
:1040D00060010020F8B5002700970D4604460B78D4
:1040E000424E434A434944A0FCF7A8F828780125EA
:1040F00041285DD00FDC4549012815D002284BD05E
:10410000352807D102220421032001F051FC404848
:1041100025712060F8BD422847D04B284BD04C2851
:10412000F8D125713B48F4E7084601F035FA03253C
:10413000A5720F216B4659701F209D7018700121C8
:104140006846FFF7A1FF0F226B4604215A70012039
:104150009970187001466846FFF796FF0B216B4671
:10416000597000209D70187001216846FFF78CFF80
:104170000F226B4602215A7099700020187001219D
:104180006846FFF781FFFDF7B9FC0023224A234967
:1041900001F0CEFB3064F8BD084600F01FFFA772A7
:1041A000306C01F0A2FB3764F8BD25711C48B0E704
:1041B00025711C48ADE7A07A0428F5D10B226B4687
:1041C00003215A709970197001216846FFF75CFF4E
:1041D0000220FDF7A1FD06226B4603215A7099705B
:1041E000197001216846FFF74FFFF8BD000000205D
:1041F000FF070000886900005B495D25732825647E
:10420000293A7369673D25640A0A0000000000042A
:10421000ED5500000D380000193D000020BF0200E0
:10422000292E00005D3100001CB500210091019194
:10423000012803D0032804D10D2000E00E20694698
:104240000870684600F0D0FA1CBD000070B5114D32
:104250006C68FDF7CBFB0026002801D02E7070BDE6
:1042600000F068F8802808D0012001F095F928783E
:104270000128F4D16968887070BD012000F0AEFE9D
:1042800001202870696800208870268080202071B5
:1042900070BD00002C01002070B5244E746800F041
:1042A00049F80546FDF7A2FB00281BD02079A8425B
:1042B00010D12188FF22491C89B22D3221809142E0
:1042C0000FD301214006E170400E6071716800203B
:1042D000887006E000238021802D04D02380617146
:1042E0002171257170BD2288921E442A17D20221A5
:1042F0004006E170400E6071716800208870E079BE
:10430000401CE071B06801F0F0FAFDF7F7FB7D2189
:104310000023074AC90001F00BFBB060E1E72380EE
:104320006171217170688370DBE700002C0100204F
:10433000F944000010B580240020FDF70FFD00288F
:1043400000D18124204610BD70B50D4D6C68FFF77B
:104350007DFF02F097FA012811D1A079012806D13A
:10436000E17808A0FBF76AFFE078FFF75DFF002027
:10437000E071E0708020A071A86801F0B6FA70BD0D
:104380002C0100206B657920312C2025640A000067
:1043900010B50D4800214068802201808170C171F4
:1043A000427102718271C17004210020FDF712FD7B
:1043B00003210020FDF7F4FCFDF7A0FB0023034AD6
:1043C0000A2101F0B5FA10BD2C0100204345000080
:1043D0000A49002805D0022806D003280AD0042064
:1043E00070474869042207E0486940084000486176
:1043F00000207047486902229043F8E7000200401D
:104400000021002805D001E04008491C0128FBD804
:10441000084670470148006800470000D8000020A7
:1044200070B5114D0F4C2869400706D50020FFF7E5
:10443000CFFF6068002800D080472869C00706D0F9
:104440000220FFF7C5FFA068002800D08047286938
:10445000800706D50320FFF7BBFF2068002800D0A7
:10446000804770BD88050020000200400548C16AF1
:1044700049084900C16204480068002800D000478C
:104480007047000000240040DC0000200348016960
:1044900004221143016130BF7047000000ED00E0CD
:1044A0000148006800470000E0000020F8B5050062
:1044B00020D0A868804707001CD050CD18E02568A0
:1044C000002D13D0A068B84208D3C01B01D0A06053
:1044D0000CE0E168A1602046002106E0E168A160EF
:1044E00020460321A84700212046A8471034761E05
:1044F000002EE4D1F8BD000010B50A48002940683C
:104500000BD0012905D0022902D1022000F066FD5E
:1045100010BD022001F040F810BDC179891CC170A6
:1045200010BD00002C0100201CB50020009001905F
:10453000002905D1052069460870684600F054F945
:104540001CBD10B5002905D1FDF750FA002801D097
:10455000FFF7A2FE10BD0000044A10B5D01D1023C5
:104560000349F93001F0D1F910BD0000AC0300207F
:10457000D51A000070B586B000200D461049029093
:10458000039004904C690126014601900223032206
:10459000009602A800F0E8FFE07900900196A37968
:1045A0006279217902A800F0E8FF002D01D0012DE9
:1045B00003D1002102A8FEF75BFA06B070BD00002F
:1045C000000000201CB5002000900190002905D1BA
:1045D0000C2069460870684600F006F91CBD000012
:1045E00070B50E4C00252246803A002905D00129DD
:1045F00002D101206070957070BD9078411C91705F
:10460000022806D9606801F070F9042065606070C6
:1046100070BD01210248FEF72BFA70BD800000201A
:104620009001002010B50446002905D0012902D1CF
:10463000042000F0B1FF10BD042000F0CFFC2046A4
:1046400001F053F910BD000070B50F4A0025144663
:104650001434002904D001290DD15570012009E03E
:104660005078411C5170022806D9606801F03DF96C
:1046700004206560207070BD0348001D82780178B9
:10468000407801F099FB70BD880000201CB5002225
:1046900000920192002907D101F027F9062069460E
:1046A0000870684600F0A0F81CBD000010B50EA010
:1046B000FBF7C4FD12A0FBF7C1FD0CA0FBF7BEFD8C
:1046C00015A0FBF7BBFD1AA0FBF7B8FD07A0FBF791
:1046D000B5FD1DA0FBF7B2FD20A0FBF7AFFD26A1A5
:1046E0002FA0FBF7ABFD10BD0A0A0A0A202D2D2DC5
:1046F0002D2D2D2D2D2D2D2D2D2D2D2D2D2D0A003A
:104700007C2020202020204844204D43552020207C
:1047100020207C0A000000007C2A2A2A2A2A582D00
:1047200053454E53452A2A2A2A2A7C0A00000000B3
:104730007C202020454E205374616E646172642099
:1047400020207C0A000000005B4875625F467265AD
:10475000713D3836382E36354D5D0A005B496E7432
:1047600072616E65745F467265713D3836392E32FE
:1047700037354D5D0A0000005B46697265416C612A
:10478000726D5D284E65775F4472697665725F333E
:10479000746829205665723D312E302E3900000094
:1047A00025730A0010B5044603E00146204600F0D8
:1047B00077F8034800F03AF80028F6D110BD000061
:1047C000F00500201CB50160044600200549207159
:1047D00008460A22283000F043F86946204600F0D7
:1047E00073F81CBDC805002010B50E4C0278217866
:1047F0008B00C9180C4B5A544278C9184A708278F9
:104800008A70C278CA700079087118465C3000F06E
:1048100031F82078401CC0B220700A2801D900204D
:10482000207010BD880100209405002070B501683B
:10483000002913D0037B0024002B0ED0827A456818
:104840009600AD59521CD2B205608272057AAA4216
:1048500000D184725B1E037300E00460084670BDE3
:104860004160C27202720021417281720173417310
:10487000016070470268002A10D0437A42689B00AA
:10488000D150417A491CC9B24172027A914201D198
:1048900000214172017B491C017370470160704720
:1048A00070B505680446A8472079002809D0054955
:1048B0002046A84703492268491F20469047002008
:1048C000207170BD026F000010B502680446904769
:1048D000226802492046904710BD0000FD6E00008E
:1048E00010B50978194A1A4C012910D002290DD0A7
:1048F0000D290BD1907B401CC0B29073012812D0BF
:10490000022819D0032801D100F056FE10BD002165
:104910009173012181720F4A0F4910A0FBF78EFCA1
:104920000720616810E00B4A0B490C3211A0FBF71D
:1049300085FC0620616807E0064A0749113213A08A
:10494000FBF77CFC61680820884710BD0000002050
:1049500060010020AC0C0000236B00005B495D256A
:1049600073282564293A54657374204F4F4B0A0A03
:10497000000000005B495D2573282564293A5465D1
:1049800073742046736B0A0A000000005B495D25C2
:1049900073282564293A546573742052780A0A00F2
:1049A00010B50446FCF7A0FBFCF737FB0020FCF732
:1049B000DDFA2020FCF7B7FA0120FCF76BFB002C96
:1049C00002D0012C05D00AE00A20FCF7B2FA202020
:1049D00003E01920FCF7ADFA0120FCF7DFFA012013
:1049E000FCF7E2FAFCF72EFA012C08D0042C06D0D2
:1049F000022C0FD0032C01D1FCF714FB10BDFCF7E7
:104A00000CFBFCF71FFAFCF7E1FAFCF776FAFCF76F
:104A1000FAFA10BDFCF74EFBEEE7000001484078C3
:104A200070470000400100200148007870470000F6
:104A300040010020F8B5504C0125207800260927B8
:104A4000030001F089FC0A06081C2F3D42607487B0
:104A50008C9600258DE0FCF7E0FAFCF7F3F9FCF703
:104A6000B5FAFCF74AFAFCF7CEFA002805D0022086
:104A70002070FDF767F9A0617BE02770F9E76D20F2
:104A8000FCF7FEFAC00701D0032020702069401C0B
:104A90006FD0FDF757F9A169401A2169884268D99A
:104AA000042042E0FCF7B9FA6188A068FCF7E4FA58
:104AB000FCF7C8F96070FCF7ABFA2670022558E0E5
:104AC000FCF7A6FA2670032553E0FCF7A6FAFCF7DC
:104AD000B9F9FCF787FAFCF71BFAA188E068FCF744
:104AE000FBFA6E20FCF7CCFA800700D42770FCF7A5
:104AF00099FA002805D006202070FDF723F9E0611F
:104B000037E02770F9E76A20FCF7BAFA000701D509
:104B1000072020706069401C2BD0FDF713F9E16974
:104B2000401A6169884224D90820207021E0124887
:104B300020304078002807D0022807D00120FFF756
:104B40002FFF2670042514E0012000E00320FCF76D
:104B5000D7FAF6E7FCF75CFA2670052509E0FCF7C2
:104B6000B5FA1420FDF7D8F80120FFF719FF2670D9
:104B700006252846F8BD00004001002070B50D460E
:104B80000646002400F002FD002815D0FCF7DCFDED
:104B90006D20FCF775FAC0070ED0FCF73EFA2946E7
:104BA0003046FCF769FAFCF74DF904494870FCF708
:104BB0002FFAFCF728FA0124204670BD400100209E
:104BC00070B5174CE060A18000206361FFF7E8FE3C
:104BD000FCF723FA0D20FCF753FAE52101400D20E4
:104BE000FCF77EFAFCF7FEF9FCF792F9A188E06881
:104BF000FCF772FAFCF726F96E20FCF741FA800701
:104C00000925002800DB2570FCF70CFA002805D0E8
:104C100006202070FDF796F8E06170BD2570F9E779
:104C20004001002001490870704700004001002049
:104C300070B5074D00240120FDF76EF8FFF7FAFE6E
:104C4000042803D0641CA4B2AC42F4D370BD0000AD
:104C500050140000F8B50025654800954469FD2012
:104C60002572A572E0726572FF2121732574A1730C
:104C7000E1732E4604212046FBF7B7FC5D496846E8
:104C800001F0ECFD04226946201DFBF751FC5AA0FF
:104C9000FBF7D4FA601901795AA0FBF7CFFA6D1C23
:104CA000EDB2042DF6D359A0FBF7C8FA584968466F
:104CB00001F0D4FD00983F25C0B26D026073A128B9
:104CC00017D0C22864D0B32879D0FF226673A632E9
:104CD000504951A0FBF7B2FA05210120FDF77AF8FF
:104CE00002210120FDF75CF8514841680020884707
:104CF000F8BDFDF7ADF82946684601F0AFFD042286
:104D000069462046FBF714FC4AA0FBF797FA0025FA
:104D1000615D3CA0FBF792FA6D1CEDB2042DF7D358
:104D20003AA0FBF78BFA3A496846103101F096FD3C
:104D30000098411C05D00006000E207326D00220EA
:104D4000607233496846091D01F088FD0098411CD6
:104D500000D0E0722E496846083101F07FFD0098CE
:104D6000411C00D020722A4968460C3101F076FDC2
:104D70000098411C00D0A072A37A227AE17A31A077
:104D8000FBF75CFA627A217B36A0A3E70120D7E724
:104D90002946684601F062FD042269462046FBF779
:104DA000C7FB39A0FBF74AFA0025615D15A0FBF7A8
:104DB00045FA6D1CEDB2042DF7D315E0FFE7294647
:104DC000684601F04BFD042269462046FBF7B0FB24
:104DD00031A0FBF733FA0025615D0AA0FBF72EFA3C
:104DE0006D1CEDB2042DF7D308A0FBF727FA73E78B
:104DF00000000020F47F0000554449443A203078F8
:104E0000000000002530327800000000200A000079
:104E1000047E0000DE6800005B575D257328256472
:104E2000293A6E6F74207061697265640A0A000025
:104E300060010020476174657761792049443A2018
:104E4000307800004E756D2E25642C204465765414
:104E50007970653D25642C2050726F547970653DE2
:104E6000256420004661746865725F4E756D2E255D
:104E7000642C204661746865725F4465765479706D
:104E8000653D25640A000000496E7472616E6574A8
:104E90002049443A203078005265736574204944B3
:104EA0003A2030780000000010B50B4BDA699969A0
:104EB000914202D98C1A402C0DD2914202D2521A40
:104EC000012A08D0054A914202D31146403999611E
:104ED0000870491C996110BD00000020DA01002013
:104EE000F0B585B000252C4E0095019502950395EF
:104EF000706A2C468047326A3178684690470128AC
:104F000009D16F4604E0785DFFF7CEFF6D1CEDB26E
:104F10003078A842F7D8214E214D3746288A60289C
:104F200013D2AB69EA6993420FD000219A4208D0AC
:104F3000B24202D319494039E961EA691178521C39
:104F4000EA613954401C2882E8E780B2042821D362
:104F500012E011490E78B04212DB701EC1B238194E
:104F6000FCF726FDA619F1192039C97F884202D124
:104F7000204600F03BF8F4B2288A001B0428E8DA47
:104F8000288A001B0204120C2A8203D03919034814
:104F9000FBF7CEFA05B0F0BD60010020DA01002079
:104FA000000000201CB5002400940194FCF780FD53
:104FB000A1280FD108490878401CC0B208700A28FF
:104FC00008D90C70072069460870022048706846AE
:104FD000FFF70AFC1CBD0000AC00002002490A6873
:104FE00082430A60704700008C01002010B506491A
:104FF00009780F2904D0062901D1FEF75FFF10BD03
:10500000FDF730FB10BD000060010020704700007C
:1050100010B502468078FCF7E7F900F08FF8012818
:10502000507818D0FCF7E0F90D4940182038C37FBC
:105030009078FCF7D9F91B189078FCF7D5F984081B
:105040001078FCF7D1F9201818180721801CFBF7FD
:10505000D0FA084610BDFCF7C7F901490C39E4E75E
:10506000806B000078B5044600250E460120002E16
:1050700037D00121A94034D02B0001F06DF907058C
:1050800005081417202931002078592207E02A4802
:1050900000680007207801D4122200E024220021B9
:1050A000FCF7ADF91CE020780622F8E720783122E1
:1050B0000021FCF7A4F921786A46117010E02078ED
:1050C00012220021FCF79BF921786A46517007E013
:1050D000207899220021FCF792F921786A46917094
:1050E000641C002824D16D1CEDB2072DBFD3F0063F
:1050F0001FD5B00617D57006684609D58078FCF72D
:1051000073F9024668464078FCF76EF9114603E0F1
:105110004078FCF769F90121FCF7F4FC694609784D
:10512000814204D805E068460078282801D901208A
:1051300078BD002078BD000000140040810889007F
:10514000884201D10120704700207047074900289C
:1051500006D0012801D0042070474868082201E0E9
:1051600048681022904348600020704700140040B7
:105170000E498022002807D0012807D0022809D034
:1051800003280DD00420704708680BE0486890435E
:10519000486009E0086B0122D2039043086303E0F2
:1051A00008682022904308600020704700140040E7
:1051B00000B5064A51684023C0079943400E014399
:1051C00051600020FFF7C2FF002000BD0014004026
:1051D0000E498022002807D0012807D0022809D0D4
:1051E00003280DD00420704708680BE0486810437E
:1051F000486009E0086B0122D2031043086303E012
:105200000868202210430860002070470014004006
:1052100070B50D4D0B4C6868C00607D56868102145
:10522000884368602068002800D0804768680007CD
:1052300007D568680821884368606068002800D046
:10524000804770BDE40000200014004070B50400E9
:1052500018D0174D207800F02DF8607800F038F85D
:10526000060010D16068002803D000F043F8002841
:1052700008D1A068002807D00122114600F05AF892
:10528000002801D0012070BDE068002804D000682B
:105290002860E06840686860207C012806D0002211
:1052A00003211720FCF7A2FA304670BD0122F7E770
:1052B000E400002005494A6807231B0240079A437F
:1052C000400D02434A600020704700000014004077
:1052D000002803D0012801D00420704704490A683F
:1052E0000823C0079A43000F02430A60002070475A
:1052F000001400400E490A680B149A430378DB0738
:105300005B0C1A430A600278002A0A6806D03F2321
:1053100080781B029A438006800C04E04078D20813
:10532000D2004007400F02430A600020704700008F
:1053300000140040F0B5214D1746044600207D22A0
:105340002B68D2001B060CD56B68012633436B60BB
:1053500002E06B689B0702D4521EFAD104E0002AD7
:1053600002D0012902D00DE00920F0BD072120461E
:10537000FFF778FE0028F8D12178A9606178E9600C
:10538000A1782961012F0DD178212046FFF76AFE0F
:105390000028EAD12179A9616179E961A1792962BD
:1053A000E178696169684908490069602968090606
:1053B000DBD569688907FCD4F0BD0000001400400B
:1053C00010B5012080070068C0B200F0C9FC0121BF
:1053D000002000F0D1FD10BDF8B50646FF2000907A
:1053E0000D460024304601F043FA3146684601F08C
:1053F00035FA0098854200D101242046F8BD00000E
:10540000F7B507463E48002582B02E46446901F0B4
:105410001EFA60190079E90088406D1C8619EDB20A
:10542000042DF6D331463748FFF7D6FF002824D0A5
:105430003F2504986D02B3280BD131462846FFF76B
:10544000CBFF002818D0281D0499FFF7C5FF0028BE
:1054500012D00398002812D0002108463A5CC300FD
:105460009A40401C5118C0B20428F7D32846FFF7D1
:10547000B3FF012805D026E0002005B0F0BD0120D3
:10548000FBE7E17A2048FFF7A7FF01281BD11E4860
:10549000217A001DFFF7A0FF012814D11A48A17A34
:1054A0000830FFF799FF01280DD11748217B0C30F8
:1054B000FFF792FF012806D113480499001FFFF758
:1054C0008BFF012806D0FF222632104910A0FAF7E0
:1054D000B5FED1E7042239462046FBF729F8E078EB
:1054E0000090A3786278217810A0FAF7A7FE627A7C
:1054F000217B14A0FAF7A2FE0520FCF70DFCBEE705
:1055000000000020F47F0000087E0000D06800004A
:105510005B575D2573282564293A536176652049D8
:1055200044206661696C0A0A0000000053617665D8
:105530002049443A20257820257820257820257890
:105540000A0000004661746865725F4E756D2E2515
:10555000642C204661746865725F44657654797086
:10556000653D25640A00000030B5049D039C017070
:1055700042708370C470457230BD30B5049D039C89
:10558000017142718371C471057230BD01490120FE
:10559000087070470000002002490A6802430A6050
:1055A000704700008C010020024A1218401CD17084
:1055B000C0B270472B030020BFF34F8F044903484C
:1055C000C860BFF34F8F00BFFDE700000400FA057D
:1055D00000ED00E00148006800470000EC000020FA
:1055E0000148C0687047000000060020FEB50D4667
:1055F0000446FCF757FA02900020009001902B78A7
:1056000085226D496DA0FAF719FE28780126704FA2
:105610002C287DD010DC030000F09EFE1A3C3D6972
:105620003C3C3CB887823C3C3C3C7F3C3C3C9797B4
:105630008C973C979797973C41286AD017DC37287E
:1056400068D00DDC2D286ED02E286DD02F2821D1CA
:10565000AA786978032000F0ABF926715D4818E05C
:10566000382870D0392815D126715B4811E04D28B3
:1056700006D008DC432867D044287BD04C2809D1C9
:105680002671564805E04F2875D0502802D154485D
:1056900026712060FEBDFCF70BFAA1285148416835
:1056A00007D0022088470220FCF758FB012802D0CF
:1056B00004E00020F6E74C48FFF790FC00256572F7
:1056C000A5720298FF21057402988173207A01283F
:1056D000E0D1FCF7EDF9A128DCD111206946087072
:1056E0000B2048706846FFF77FF82572FEBDFCF777
:1056F000DFF9A1283B4841680DD0032088473B488B
:10570000006800F0F2F801200005FFF767FCFEBD1D
:1057100022E044E03DE00120F0E726713448B8E79C
:1057200026713448B5E727E02BE0EB78AA78697852
:1057300007200EE0EB78AA7869780820FDF7CEF80C
:1057400026712D48A5E727E02CE0EB78AA78697848
:105750000820FDF7C3F819E001200005FFF71CFF42
:10576000FCF7CCF90023254A254900F0E1F81F4950
:105770000860CCE719E01BE0EB78AA78697805208F
:10578000E7E7AA786978032000F012F9267127600C
:10579000BDE726711B487CE726711B4879E7267117
:1057A0001A4876E726711A4873E72671194870E798
:1057B000267119486DE70000536B00005B495D25B9
:1057C00073282564293A7369673D25640A0A000035
:1057D000ED550000FD200000953A00000D38000056
:1057E0002535000060010020FFFFFF7FA80000209A
:1057F000E1480000C5230000E12100008D460000C3
:1058000060EA0000B53900000D3C00005D31000089
:1058100075300000892F00009936000010B504464D
:105820000120207200206072A072E0602061FEF70B
:1058300093FEFEF7ADFD00F0B0F8FFF70BFA01485C
:10584000206010BDED5500000248C168491CC160D0
:10585000704700000006002010B5FFF7F5FF024872
:105860000168491C016010BDBC00002010B5FBF7A9
:1058700051FE0149086010BD280100201CB502201E
:10588000FBF7F8FE01210020FBF7E6FDFFF7EEFF36
:105890000821684600F0CAFF0120694648700348A5
:1058A00001906846FBF70AFF1CBD0000FFFFFF00E8
:1058B00010B50248FEF7FAFD10BD0000AC04002050
:1058C0000649002805D0012805D0022805D188689E
:1058D00000470868FCE74868FAE77047C000002006
:1058E00010B50120FBF732F910BD002806D0026880
:1058F000002A03D0002302210360104770470146AD
:105900000020002900D04868704700280ED00029E8
:105910000CD0002A0AD0002B08D081600CC00021D6
:105920000838116010325B1EFBD1704700207047B1
:10593000F8B500249C46002806D0002A04D005684B
:1059400040682F4603460AE00020F8BD2E689642C4
:1059500003D1002400280AD00BE0401E1035002897
:10596000F4D104E03868002808D05B1E1037002B03
:10597000F8D1002C0FD0002905D103E0002CF8D17C
:105980003C46F6E70121A1602260E160604660606C
:105990000121204690472046F8BD10B50421022081
:1059A000FCF718FA03210220FCF7FAF910BD0000F9
:1059B00070B514460D4606460D4A0E490EA0FAF77C
:1059C0003DFC22462946304600F0F6F90D4C0AE02F
:1059D000FFF76EFFFFF784FA00F016FA207803282D
:1059E00004D0042802D060680028F1D170BD000006
:1059F000020300003C6B000025732C696E2C2025EF
:105A0000640A00009C000020FEB5064600201F46E8
:105A100015460C4600900190FCF744F8012E1ED06C
:105A200032460121032000F0B7F9FCF741F8A12824
:105A300003D0FCF73DF8C22819D12B462246314647
:105A400050A0FAF7FBFBB01E1326030000F084FC05
:105A50000B10222739424B5A687480910F004F4C2B
:105A60006068FFF742FF0020606003202070FEBDE9
:105A7000FCF71EF8A12808D04720694608700B20C3
:105A800048708C700846CD706EE01520694608702D
:105A90000220F5E7162069460870032060E0FCF755
:105AA00007F8A12804D0022C04D0012C04D006E071
:105AB000122002E0422000E04120694608700420E4
:105AC0001BE0FBF7F5FFA128D1D11820694608702B
:105AD000052045E0FBF7ECFFA128C8D11720694657
