:020000040000FA
:1000000058090020E1010000FB010000F120000080
:1000100000000000000000000000000000000000E0
:10002000000000000000000000000000FF010000D0
:100030000000000000000000010200002157000045
:10004000552B00005F2B0000692B0000732B000074
:1000500005020000050200007D2B0000872B000038
:10006000912B0000050200009B2B00000502000000
:10007000A52B000005020000AF2B0000B92B0000EB
:10008000C32B0000CD2B0000D72B0000E12B00007C
:10009000EB2B0000F52B0000FF2B0000092C0000CB
:1000A000132C0000050200001D2C0000272C00006E
:1000B000312C0000050200003B2C0000452C000004
:1000C00000F002F800F044F80CA030C808382418FA
:1000D0002D18A246671EAB4654465D46AC4201D180
:1000E00000F036F87E460F3E0FCCB646012633426E
:1000F00000D0FB1AA246AB4633431847006D000000
:10010000206D00000023002400250026103A01D3B2
:1001100078C1FBD8520700D330C100D50B607047BF
:1001200010B5642902D100F0E7F810BD782902D19A
:1001300000F018F910BD732902D100F076FB10BD54
:10014000002010BD1FB500F0EBF91FBD10B510BDAC
:1001500000F0B4FB1146FFF7F5FF06F0FDFA00F0E2
:10016000CCFB03B4FFF7F2FF03BC06F092F80000EB
:1001700030B40C490C684A6823681068C0181060D5
:10018000241D121D8C4207D28A4208D20C604A609C
:1001900030BC4000400870470C00DC3CF6E70A0029
:1001A000DC3AF3E7EC06002070B505460C4616462F
:1001B00002E00FCC0FC5103E102EFAD2082E02D34B
:1001C00003CC03C5083E042E07D301CC01C5361F5E
:1001D00003E021782970641C6D1C761EF9D270BD75
:1001E0000C480D4A002100A1814200D902440B486D
:1001F00002600B4880470B480047FEE7FEE7FEE73A
:10020000FEE7FEE7FEE7000007480849084A094BF9
:1002100070470000000000200000000008ED00E032
:1002200045570000C1000000580700205809002071
:100230005808002058080020704700000FB40549F6
:1002400010B503AA029800F0F5FA10BC08BC04B07F
:1002500018470000C800002070B504468569006892
:10026000C10601D5302600E02026C00707D070BDAA
:1002700062683046A1689047206A401C20626D1E6B
:10028000F6D570BD70B5044685690078C00707D102
:1002900070BD6268A16820209047206A401C2062DF
:1002A0006D1EF6D570BD70B50C460546012A05D009
:1002B0002878800600D5EA69002302E0012305E0E2
:1002C0005B1C934202D2E05C0028F9D1A869E618D1
:1002D000C01AA861286AC01828622846FFF7BCFF28
:1002E00004E06A682078A968641C9047B442F8D397
:1002F0002846FFF7C7FF70BDF7B5002575291068C0
:10030000009914A611D0C046C046002802DA404227
:1003100011A608E0009909688A0701D50FA602E036
:10032000490704D50EA6012501E0C046C046009F3E
:100330000024243704E000F091FA30313955641C70
:100340000028F8D12B4632462146009800F002FAE8
:10035000FEBD0000000000002D0000002B0000008A
:100360002000000070B504460D4621461068C046C6
:10037000C0462188090502D50F4A7A4402E00E4A98
:100380007A440E3223460021243305E00607000993
:10039000360F965D5E54491C0028F7D12078002363
:1003A000000705D5702D03D0002901D0022311329A
:1003B000204600F0CFF970BD426A0000F3B5044654
:1003C000002081B020622046E168884700287DD067
:1003D000252802D06268A16883E0454F00257F444C
:1003E0002046E16888472028064608DB312E06D2E1
:1003F000B81920380078002801D00543F0E7A80795
:1004000001D5042085430020E0610746A0612A2E23
:100410000AD0304605F036FF002827D0B800001972
:10042000303E0090866119E00298BA00121902C8A5
:10043000916102902046E1688847012F064617D156
:10044000E06900281FDA202085431CE000980A217B
:100450008069484300998019303888612046E168F6
:100460008847064605F00EFF0028EFD1012F0AD07D
:100470002E2E08D12046E1688847064620200543F5
:100480007F1C022FC3DBA069002803DA4042A06171
:1004900001200543E80701D010208543002E24D019
:1004A00030464138192803D80120C00205432036C0
:1004B000204625603146029A1546FFF731FE002896
:1004C0000CD0012807D0ED1DE80800E00DE0C000C9
:1004D0000830029077E72D1D029574E76268304678
:1004E000A1689047206A401C6CE7206AFEBD0000AE
:1004F000066A00000B4A30B511460B4C60310B46C2
:10050000DC3B0CC1372106E0020C8D0012185A5159
:10051000064A504300190A46491E002AF4DC30BD41
:100520000120E7E78C060020E119D666CD0D010019
:10053000F8B5042A2CD3830712D00B78491C03701A
:10054000401C521E83070BD00B78491C0370401CC3
:10055000521E830704D00B78491C0370401C521EA6
:100560008B079B0F05D0C91ADF002023DE1B08C9AB
:100570000AE0FFF719FEF8BD1D4608C9FD401C46FC
:10058000B4402C4310C0121F042AF5D2F308C91A34
:10059000521EF0D40B78491C0370401C521EEAD442
:1005A0000B78491C0370401C012AE4D409780170BF
:1005B000F8BD01E004C0091F0429FBD28B0701D557
:1005C0000280801CC90700D00270704700290BD040
:1005D000C30702D00270401C491E022904D38307BE
:1005E00002D50280801C891EE3E70022EEE700228C
:1005F000DFE7002203098B422CD3030A8B4211D37D
:1006000000239C464EE003460B433CD400224308A3
:100610008B4231D303098B421CD3030A8B4201D393
:1006200094463FE0C3098B4201D3CB01C01A52412B
:1006300083098B4201D38B01C01A524143098B427B
:1006400001D34B01C01A524103098B4201D30B0164
:10065000C01A5241C3088B4201D3CB00C01A524189
:1006600083088B4201D38B00C01A524143088B424E
:1006700001D34B00C01A5241411A00D201465241E7
:10068000104670475DE0CA0F00D04942031000D306
:100690004042534000229C4603098B422DD3030A5B
:1006A0008B4212D3FC22890112BA030A8B420CD36B
:1006B000890192118B4208D3890192118B4204D394
:1006C00089013AD0921100E08909C3098B4201D314
:1006D000CB01C01A524183098B4201D38B01C01A4E
:1006E000524143098B4201D34B01C01A52410309C5
:1006F0008B4201D30B01C01A5241C3088B4201D374
:10070000CB00C01A524183088B4201D38B00C01A20
:100710005241D9D243088B4201D34B00C01A5241F7
:10072000411A00D20146634652415B10104601D384
:100730004042002B00D54942704763465B1000D30E
:10074000404201B50020C046C04602BD7047704718
:1007500070477047FFB504460D4681B024300090C5
:100760002168880604D51022E0699143216000E0E9
:100770000120A84201DD471B00E000270498A16981
:100780007A191018081AA0612078C00602D42046F1
:10079000FFF762FD002608E003986268A168805DAB
:1007A0009047206A401C761C206204988642F3DB46
:1007B0002078C0060AD52046FFF74EFD06E06268A5
:1007C000A16830209047206A401C206238467F1E76
:1007D0000028F4DC07E000986268A168405D90475B
:1007E000206A401C206228466D1E0028F3DC20464B
:1007F000FFF748FD2078000602D5022005B0F0BDC5
:100800000120FBE710B54369002B02D0C046C0466B
:1008100001E0FFF748FD012010BD127801462431A8
:100820000A7000224A700122ECE711680022D243CC
:10083000E8E70000084B70B50D467B4400F027F850
:100840000446284600F036F8002802D00020C043B5
:1008500070BD204670BD0000B55E000001468008F6
:10086000081A02091018020A1018020C1018C00801
:10087000820012185200891A01E0401C0A390A2924
:10088000FBD2704701694A1C02610878704700B5C5
:100890008FB002910021059105490193794403919C
:1008A000114604906846FFF789FD0FB000BD0000B7
:1008B000E5FFFFFFC068802108407047754600F0E3
:1008C00025F8AE46050069465346C008C000854677
:1008D00018B020B5FFF798FC60BC00274908B64661
:1008E0000026C0C5C0C5C0C5C0C5C0C5C0C5C0C53F
:1008F000C0C5403D49008D46704710B50446C0460E
:10090000C0462046FFF72DFC10BD00000048704790
:10091000F406002070B58C180578401C6B075B0F3F
:1009200001D10378401C2A1106D10278401C03E053
:100930000678401C0E70491C5B1EF9D12B0705D4AC
:100940000023521E0DD40B70491CFAE70378401C9B
:10095000CB1A921C03E01D780D70491C5B1C521EC3
:10096000F9D5A142D8D3002070BD000070B5174C56
:10097000206A174D400707D56868002800D08047D7
:10098000606A042188436062206A800707D5A868EE
:10099000002800D08047606A022188436062206A94
:1009A000C00707D0E868002800D08047606A400888
:1009B00040006062206A000707D52868002800D040
:1009C0008047606A08218843606270BD402400400F
:1009D000B404002070B50546001F00062A49800BAC
:1009E0004418FF34013420682849C207281F000634
:1009F000800C002A06D00858002800D0804701202B
:100A0000C043606020682D1F2906204A890C80079A
:100A10008D18002806DA6868002800D08047022078
:100A2000C04360602068400706D5A868002800D051
:100A300080470420C04360602068000706D5E8684E
:100A4000002800D080470820C0436060206840062E
:100A500006D5A869002800D080474020C0436060C8
:100A60002068000606D5E869002800D0804780206D
:100A7000C04360602068C00505D5286A002800D002
:100A800080470348606070BD00300040C40400200F
:100A9000FFFEFFFF10B503F06DFD0249024803F0B1
:100AA000F5FD10BDE5560000FC05002010B5042042
:100AB00000F0E0FD012000F081FD012000F0A6FD26
:100AC00001211C2000F0C0FD0E49002008600D4AE5
:100AD000403210600B4B803318600A4CC0342060E9
:100AE000886090609860A06008621062186220625E
:100AF0004B21C90101F058FA012001F027FA01F059
:100B0000FDF910BD000D024000220F4B002806D059
:100B100001280AD002280ED001221046704718681A
:100B2000000C000408431860F7E7186A000C000482
:100B300008431862F1E70448403003681B0C1B04AB
:100B40000B430360E9E70000000C004000210D4A60
:100B5000002806D0012809D002280CD0012108461F
:100B600070475069400840005061F8E7506B4008FA
:100B700040005063F3E70348403042695208520096
:100B80004261ECE7000C004001460020074A0029C2
:100B900008D0012908D0022903D104484030406818
:100BA00080B270475068FBE7506AF9E7000C0040DC
:100BB00000220F4B002806D001280AD002280ED0B0
:100BC0000122104670475868000C00040843586022
:100BD000F7E7586A000C000408435862F1E704483C
:100BE000403043681B0C1B040B434360E9E70000E3
:100BF000000C00400C4B00211A15002806D00128DB
:100C000008D002280AD0012108467047D86810434E
:100C1000D860F9E7D86A1043D862F5E70248403057
:100C2000C3681343C360EFE7000C0040F0B5504ABF
:100C300000230224551596157027002806D0012898
:100C400034D0022862D001231846F0BDD068A843F2
:100C50000D78ED07AD0D2843D060D0684D78B043D6
:100C6000ED07ED0D2843D060D0688D78B8436D074F
:100C70006D0E2843D060D0680825A843CD78ED07D5
:100C80002D0F2843D060D0680425A8430D79ED07C7
:100C90006D0F2843D060D068A0434C79E407A40FBF
:100CA0002043D060334889680160CDE7D06AA8430B
:100CB0000D78ED07AD0D2843D062D06A4D78B04372
:100CC000ED07ED0D2843D062D06A8D78B8436D07EB
:100CD0006D0E2843D062D06A0825A843CD78ED0771
:100CE0002D0F2843D062D06A0425A8430D79ED0763
:100CF0006D0F2843D062D06AA0434C79E407A40F5B
:100D00002043D0621B48C96841609DE718484030C5
:100D1000C268AA430D78ED07AD0D2A43C260C268D0
:100D20004D78B243ED07ED0D2A43C260C2688D785D
:100D3000BA436D076D0E2A43C260C2680825AA43F4
:100D4000CD78ED072D0F2A43C260C2680425AA435F
:100D50000D79ED076D0F2A43C260C268A2434C793A
:100D6000E407A40F2243C2600248096981606BE76F
:100D7000000C0040BC000020002101220B4B002889
:100D800006D0012808D002280AD001210846704761
:100D9000D8681043D860F9E7D86A1043D862F5E7FD
:100DA00002484030C3681343C360EFE7000C0040C3
:100DB00070B5054600F0C6FF0646102D0CD006DCC7
:100DC000022D0BD0042D0FD0082D10D10EE0202DB8
:100DD00006D0402D0BD105E0012408E0022406E0F6
:100DE000042404E0062402E0032400E0052429464C
:100DF000602000F075F91EE0642000F09DFF00F017
:100E0000FBF8A04215D0402D02D0082D13D108E0E8
:100E1000642000F091FF6A2000F032F900070AD543
:100E200007E0642000F088FF6D2000F029F9C0077A
:100E300001D0012070BD00F085FF801B0A28DBD3A4
:100E4000002070BDF8B500273D463C46662000F006
:100E500017F98006C10F6D20009100F011F90646C8
:100E60006A2000F00DF90099002903D0F143C04336
:100E7000CEB2C0B2F10900D0202572060121002AAD
:100E800000DA0D43B20600D50D43F20602D510225A
:100E900015431446320702D508221543144372073E
:100EA00002D5042215431443B3070222002B01DAB2
:100EB00015431443F20701D00D430C43820602D5BB
:100EC000022780221443C20602D50F4340210C435F
:100ED000000703D5042007432020044339466A2035
:100EE00000F0FEF829466B2000F0FAF80098002880
:100EF00001D0E043C4B22046F8BD10B56E2000F02A
:100F0000BFF8044602216C2000F0EAF8204610BD2C
:100F100010B56E2000F0B4F8044601216C2000F0FA
:100F2000DFF8204610BD10B50146652000F0D8F866
:100F300010BD10B50446672000F0A2F84109490130
:100F40002143672000F0CCF810BDF8B515460E46D9
:100F50000746002406E0E019315DC0B200F0C0F899
:100F6000641CE4B2AC42F6D30120F8BD10B50446CF
:100F7000662000F085F80146002C02D0012C05D037
:100F800008E080200143BF20014003E04106490EF4
:100F900040200143662000F0A3F810BD10B50146C3
:100FA000682000F09DF810BD10B504460D2000F03B
:100FB00067F8002C02D0E021014303E04106490E0E
:100FC0009F2001400D2000F08BF810BD10B5692066
:100FD00000F056F841084900FB200140692000F06C
:100FE0007FF810BD10B5692000F04AF805210143D3
:100FF000692000F075F810BD10B5612000F040F8D0
:101000000007000F10BD10B50820FFF7D1FE10BD7E
:1010100010B51020FFF7CCFE10BD10B50220FFF771
:10102000C7FE10BD10B54020FFF7C2FE10BD10B5C1
:1010300000F04CF8022000F06FFE0220FFF7B8FE2F
:10104000612000F01DF810210843DF2101406120DC
:1010500000F046F8622000F013F8202101436220DE
:1010600000F03EF80020FFF79FFFFFF7EBFE10BDFA
:1010700010B505F01DF910BD10B505F0B7F910BD9C
:1010800008B5FF216A461170694605F051F96A46B4
:10109000107808BD10B504466620FFF7F1FF002C5C
:1010A00002D0DF21014001E020210143662000F051
:1010B00017F810BD10B55120FFF7E2FF8108890035
:1010C00002200143512000F00BF810BD10B5FF21A4
:1010D0007F2000F005F810BD10B505F093FA10BDA3
:1010E00010B505F036FA10BD10B50920FFF7C8FF9E
:1010F000C108C900022001430920FFF7F1FF10BD1C
:1011000070B505460146B1A0FFF798F8B24C65707E
:10111000FFF7AEFFFFF78BFF06220F202B0005F035
:1011200075F80906284F7294B7DAFDFCFB002070B1
:101130000C22AA490020FFF708FFA8490C220C3115
:101140001046FFF702FFA549082248391820FFF78B
:10115000FCFEA249182218312020FFF7F6FE9F4915
:101160001D2230313820FFF7F0FE9C490B224D3113
:1011700021E09A4920700C2258310020FFF7E5FE4B
:1011800096490C2264311046FFF7DFFE934908228E
:1011900040391820FFF7D9FE9049182270312020DD
:1011A000FFF7D3FE8D491D2288313820FFF7CDFE91
:1011B0008A490B22A5315520FFF7C7FE012001E126
:1011C000864922700C22B0310020FFF7BEFE834911
:1011D0000C22BC311046FFF7B8FE8049082238398E
:1011E0001820FFF7B2FE7D491822C8312020FFF7F2
:1011F000ACFE7A491D22E0313820FFF7A6FE774980
:101200000B22FD31D7E722700C2275490020FFF731
:101210009CFE73490C220C311046FFF796FE6F4975
:10122000082230391820FFF790FE6D491822183136
:101230002020FFF78AFE6A491D2230313820FFF74F
:1012400084FE67490B224D31B5E7654922700C22B7
:1012500058310020FFF779FE61490C2264311046B5
:10126000FFF773FE5D49082228391820FFF76DFE4D
:101270005B49182270312020FFF767FE58491D2274
:1012800088313820FFF761FE55490B22A53192E7DE
:10129000534922700C22B0310020FFF756FE50490E
:1012A0000C22BC311046FFF750FE4C490822203971
:1012B0001820FFF74AFE4A491822C8312020FFF7BC
:1012C00044FE47491D22E0313820FFF73EFE4449E5
:1012D0000B22FD316FE722700C2242490020FFF7FC
:1012E00034FE40490C220C311046FFF72EFE3B49DC
:1012F000082218391820FFF728FE3A491822183119
:101300002020FFF722FE37491D2230313820FFF719
:101310001CFE0B22334902E056E02DE005E04D3182
:101320005520FFF712FE02204CE02E4922700C22BD
:1013300058310020FFF709FE2A490C22643110467B
:10134000FFF703FE2549082210391820FFF7FDFD9D
:101350002449182270312020FFF7F7FD21491D2272
:1013600088313820FFF7F1FD1E490B22A5315520A9
:10137000FFF7EBFD032025E01A4922700C22B03163
:101380000020FFF7E2FD17490C22BC311046FFF7A1
:10139000DCFD1249082208391820FFF7D6FD114953
:1013A0001822C8312020FFF7D0FD0E491D22E03160
:1013B0003820FFF7CAFD0B490B22FD315520FFF7FE
:1013C000C4FD042003F050FA70BD00005246206DA9
:1013D0006F64653D25640A005C010020946A00008A
:1013E0009C6B0000A46C0000002103E00A3110385F
:1013F000C9B2C0B21028F9D20818C0B270470307AA
:101400001B0F092B07D803091B01902B03D890420F
:1014100001D8884201D201207047002070470000A7
:101420000148006800470000EC0000200348024922
:1014300081600349816070475A5A000000200040D3
:10144000A5A5000003480F220168D2029143016064
:101450007047000000200040F8B50C460646002505
:10146000FFF7E4FF002C01D0012000E00020274C12
:10147000276A002E46D0E1030423012E28D0022E35
:1014800020D0032E05D0FFF7DDFF04252762284674
:10149000F8BD226A0A4322621D49CA6810239A4392
:1014A00003011A43CA60CA6820239A4343011A43BE
:1014B000CA60A1690F221143A161216808229143EA
:1014C000C00002E021689943800001432160DDE70C
:1014D000226A0A4322620E494039CE6802229643AC
:1014E00042001643CE60CE6880009E430643CE6025
:1014F00021690F20014321612068022188431043A4
:101500002060C3E7216849084900DEE70020004069
:10151000400D02400EB51BA1096802911A49002036
:1015200006C90192194A009111688906890F06D0EF
:1015300001291ED0022915D003291ED11BE0D06835
:1015400002A94005800F085C1149484311498842AF
:1015500013D111494988D3685B055B0D8B420CD1CF
:101560000E480AE0506969468005C00F800008589F
:1015700003E00B4801E00120C0031168C905490FD1
:10158000C8400EBD04081018206A0000002000406A
:1015900040420F0000366E01000C100040865101E1
:1015A0000048E80100B5FFF7B5FF034909684905A0
:1015B000890FC84000BD00000020004010B504465F
:1015C000102811D008DC012C0ED0022C0CD0042CD9
:1015D0000AD0082C06D107E0202C05D0402C03D0DF
:1015E000802C01D0042010BDFFF720FF204602F020
:1015F0006BFE054A1168FF23C13340079943C00DB4
:1016000001431160002010BD0020004010B50446C9
:10161000012807D0022C05D0042C03D0082C01D0BF
:10162000042010BDFFF702FF204602F04DFE054AE0
:10163000116803235B0280079943400D0143116049
:10164000002010BD00200040034610B500200029F6
:1016500001D0012200E000220121054C9940002A1E
:10166000226A01D00A4300E08A43226210BD0000D2
:101670000020004010B50446A41E00200D4A0E496B
:10168000230004F0C3FD050406080A0C15001289A6
:1016900006E0D28804E0928802E0528800E01288D6
:1016A000CB685205520DDB0ADB021343CB6010BD41
:1016B000042010BD000C10000020004000280FD0B6
:1016C0001E4A116AD30219431162017803239B0653
:1016D000002907D001292AD0022908D0032929D0BE
:1016E00004207047516B99430123DB0603E0516BE3
:1016F000994301239B06C9185163516B01235B0673
:1017000099434378DB079B091943516341680C48AF
:10171000491E41610B49CA691202120A43041A4365
:10172000CA61002181610121016100207047516B74
:101730001943E1E7516B9943DEE7000000200040C8
:1017400000E000E004ED00E001490020087070476F
:101750000000002070B50023012407E0C55CCE5CCA
:10176000B54201D0002403E05B1CDBB29342F5D309
:10177000204670BD10B5044600780A21FEF739FFF7
:101780004007400E4018207060780A21FEF731FFB4
:101790004007400E40186070A0780A21FEF729FF2C
:1017A0008007800E4018A07020790A21FEF721FFE3
:1017B0008007800E40182071E0780A214007400F12
:1017C000E0706079FEF715FFC007C00E4018607129
:1017D000A0790A21FEF70DFF00014018A07110BD8D
:1017E0000148006800470000CC00002070B5C50625
:1017F000ED0E012443B2AC40002B01DB174D2C60F1
:101800008007C00EFF2585408907090E8140002B07
:1018100008DB9E081248B60030180668AE430E4337
:1018200006600AE01807000F083886080D48B60061
:101830003018C669AE430E43C661012A08D0002B9A
:1018400005DB09480460BFF34F8FBFF36F8F70BD96
:10185000002BFCDB04488038046070BD80E200E0AF
:1018600000E400E000ED00E080E100E010B500F0F1
:1018700025F9002805D100F027F9002801D102F050
:1018800069FD10BD7047704770B505461E490020C0
:101890008D4201D9042070BD1C49CA6A1C4B120C30
:1018A0001204D218CA62CA6A1A4C120C1204121913
:1018B000CA620A6B184E32430A630A6AD206FCD423
:1018C000CA6A120C1204D218CA62CA6A120C120432
:1018D0001219CA620A6A92089200921C0A620022D5
:1018E0002A700A6AD206FCD4CA6A120C1204D218F0
:1018F000CA62CA6A120C12041219CA620A6B120C6A
:1019000012040A6370BD0000FF7F00000000024067
:101910005A5A0000A5A50000FFFF0000F0B51F4ABD
:101920000023904201D8820701D00420F0BD1C4A58
:10193000D46A1C4D240C24046419D462D46A1A4E4F
:10194000240C2404A419D462146B184F3C43146370
:10195000146AE406FCD4D46A240C24046419D46206
:10196000D46A240C2404A419D462146AA408A40020
:10197000641C14620160106AC006FCD4D06A000CBA
:1019800000044019D062D06A000C00048019D062B3
:10199000106B000C000410631846F0BDFF7F0000C0
:1019A000000002405A5A0000A5A50000FFFF0000F9
:1019B00070B503460020072611E01D78802204063A
:1019C00003D54006000E704001E04006000E1542AF
:1019D00000D07040D40FA2185210F0D15B1C0A4600
:1019E000491EC9B2002AE8D170BD00000148406814
:1019F000807870472801002070B50546002401203A
:101A000000F0A6F90646FEF775FD022D06D0012D61
:101A10000DD0042D14D0032D2BD033E0FEF7A8FBFE
:101A20002321FEF7F0FD64204143194828E0FEF72A
:101A30009FFB3221FEF7E7FD3220414315481FE0AE
:101A4000FEF796FBFF219131FEF7DDFD4C1C304681
:101A500000F072F9012000F07BF9FEF789FBFF210D
:101A60002D31FEF7D0FD481CA200A1180A225043D8
:101A700006E0FEF77DFBC821FEF7C5FD491C880086
:101A8000081884B2214604A0FEF7D8FB204670BD9A
:101A900044160000CA0800005427203D2025640A8F
:101AA00000000000014800697047000000000020AD
:101AB00001480069407B7047000000200148006831
:101AC00070470000880100200148807A70470000BC
:101AD000FC05002070B5002503F0E6FC064A1168FD
:101AE000884201D3441A01E0441A641E002C01D03C
:101AF00025461060284670BDA000002000487047B1
:101B0000A80400200246054880182038C07F022A19
:101B100003D1890701D1401CC0B27047406A000060
:101B2000820104481018026901238B409A43026124
:101B300000207047000E024000B5012304F036FB80
:101B4000002000BD034A800180184068C840C007DB
:101B5000C00F7047000D0240034A800180180068E2
:101B6000C840C007C00F7047000E024070B5164D48
:101B70000446A8780126A0420AD1E978FFF7ECFFD5
:101B8000012805D1E978A878FFF7CAFF0F48067049
:101B90002879A0420AD16979FFF7DEFF012805D133
:101BA00069792879FFF7BCFF094806702878A042B8
:101BB00008D16978FFF7D0FF012803D16978287828
:101BC000FFF7AEFF70BD0000A9000020000000205C
:101BD0008400002070B50D4614490646086A144674
:101BE000CA031043086200222946304600F06CF810
:101BF000B001AA000E4B00218218D21811600D49C5
:101C00000123AB4040180168002C01D0194300E0CB
:101C100099430160016A99430162416A99434162B3
:101C2000C16A9943C162002070BD000000200040DD
:101C3000000C0240000D0240F0B504461F480F465C
:101C4000016A1D461646C20311430162002239464D
:101C5000204600F039F8A001BA00194B0021821883
:101C6000D218116017490124BC4040180168002EA9
:101C700001D0214300E0A143016007990029C16917
:101C800001D0214300E0A143C161016A002D01D0D0
:101C9000214300E0A143016205990029416A01D076
:101CA000214300E0A143416206990029C16A01D0A5
:101CB000214300E0A143C1620020F0BD00200040AC
:101CC000000C0240000D024010B50123064C8B4071
:101CD00080010019C168002A01D0194300E099432E
:101CE000C160002010BD0000000D024010B5002AA8
:101CF00001D0012300E000230122064C8A4080012C
:101D000000198168002B01D0114300E091438160EC
:101D100010BD0000000D024010B5020008D0054CB7
:101D2000236821680120C91A00F006F89142F8D30F
:101D300010BD0000B8000020002802D000BF401EE7
:101D4000FCD170470148006870470000B8000020CF
:101D500010B50120FEF718FF10BD0000054A10B5B0
:101D6000400081184978105CFFF7ECFE012800D094
:101D7000002010BDA9000020084B420010B5D0186B
:101D8000012907D0002904D14178985C0022FFF78F
:101D9000ADFF10BD4178985C0122F8E7A900002052
:101DA00070B50B4D4400601902290CD0032909D1EC
:101DB0004178285D0822FFF7BFFE285D012203213C
:101DC000FFF714FD70BD4178285D0422F3E70000A1
:101DD000A90000203EB51D4B4000C218002913D0B9
:101DE000012915D000240125022917D003291CD070
:101DF000042924D0052910D101940095029451782A
:101E0000185C0023012217E05178185C002202E0E0
:101E10005178185C0122FFF7DDFE3EBD009401956C
:101E20000294185C5178002305E000940194029418
:101E30005178185C01230022FFF7FEFE3EBD00949E
:101E400001940294185C51780123DBE7A90000207B
:101E500030B58BB0142103A804F042FC082108A877
:101E600004F03EFC03210AA804F03AFC072168466E
:101E700004F036FC032102A804F032FC0121022008
:101E8000FFF7EAFA01211420FFF7DEFB6946022082
:101E9000087301244C73002008720320487202A8C2
:101EA000049019208871092048710C7108208870ED
:101EB000487008700D46081D03F00EF86946C8709A
:101EC0006846FFF757FC0B4808900B48099008A894
:101ED0000690059569460C77002003F0CDF80020A8
:101EE00003F0AAF803A803F015F9002003F0D4F8D2
:101EF0000BB030BDD54E00006D4E00007CB5082102
:101F0000684604F0EDFB0024684604700B4801901D
:101F10006846FFF7D3FB01980949401E88420BD859
:101F20000849486108480722C3691B021B0A4D047F
:101F30002B43C3618C610A617CBD00007F3E0000C1
:101F4000FFFFFF0000E000E004ED00E000B585B019
:101F500001210820FFF778FB0020694600900871F6
:101F6000012048710E4803900120FEF75FFE0D49E5
:101F70000120FEF71DFE00210120FEF7C5FD012016
:101F8000FEF7E4FD0120FEF735FE012203210F20BC
:101F9000FFF72CFC0120FEF7EFFE05B000BD0000AE
:101FA000A9570000ABC1000070B592B00E460C21DD
:101FB0000FA804F095FB03210EA804F091FB082163
:101FC0000CA804F08DFB142103A804F089FB002465
:101FD0000123009401942246194620460294FFF7FB
:101FE0002BFE00220094019401230221104602944A
:101FF000FFF722FE3348C16802239943C16032498A
:102000004A68D208D200521C4A6002681A43026031
:10201000C36804229343C3608B68DB08DB005B1C4E
:102020008B6001689143016001210820FFF70CFBE0
:1020300001210020FFF708FB24481190244810904C
:102040000F940FA80A90012508A80573057004765F
:102050000EA8099008A844740D960574FFF7A2FA1B
:1020600001460CAA002003F0F3FF064668464574BB
:10207000047403A90020FEF7D9FD31460020FEF7C5
:1020800043FD31460020FEF793FD0020FEF774FE6D
:1020900008A9002003F070FF0121002003F00EFFCB
:1020A0000121002003F0C2FE0121002003F0F4FE14
:1020B0000021084603F0F9FF0221002003F0B6FEDC
:1020C00012B070BD000D0240000C024089520000A9
:1020D0008518000070B515460E46002405E0315DF8
:1020E000002003F091FF641CA4B2AC42F7D370BD92
:1020F00008B5002000900028FDD008BDF8B50C46BA
:1021000005460B78294A2A492AA0FEF797F8207835
:1021100001262D4F132836D007DC2C49012812D078
:1021200002281FD005280DD10AE0142836D019281E
:1021300022D0302806D1A2786178032003F09CFBDE
:102140002E712F60F8BD084603F08AF90520A872A9
:10215000FFF7D4FC00231E4A1E4903F04DFB1E4925
:102160004862F8BD084602F09DFE0020A8721A4899
:10217000406A03F01EFBF8BDE378A278617808207E
:1021800000F0ACFBF8BD6E72E378A27861780820AD
:1021900000F0A4FB2E7111482860F8BDE378A27806
:1021A0006178082000F09AFBCAE7000006050000ED
:1021B000CE6700005B495D2573282564293A736961
:1021C000673D25640A0A0000B554000000000002C3
:1021D000F143000080EE360000000020E121000005
:1021E000F8B50C4605460B78284F294A29492AA0FC
:1021F000FEF724F820780126142836D007DC2B4976
:10220000012813D0022820D005280ED133E0284F12
:10221000152834D0192821D0312806D100220221D6
:10222000032003F029FB2E712F60F8BD084603F050
:1022300017F90520A8726E72FFF760FC00231D4A93
:102240001D4903F0D9FA3862F8BD084602F02AFEAB
:102250000020A872386A03F0ACFAF8BDE378A278DF
:102260006178082000F03AFBF8BDE378A278617845
:10227000082000F033FB2E7110482860F8BDE37889
:10228000A2786178082000F029FBCCE7000000204C
:10229000CB040000BA6700005B495D257328256404
:1022A000293A7369673D25640A0A000000000002AC
:1022B000C1220000F143000080EE3600B55400005A
:1022C000F8B50C4605460B78304F314A314932A0FB
:1022D000FDF7B4FF20780126152826D01EDC05283E
:1022E00018D00DDC3149012830D0022807D108462A
:1022F00002F0D8FD0020A872F86903F05AFAF8BD80
:10230000132831D01428FAD1E378A2786178082014
:1023100000F0E4FA26482E712860F8BD2F282DD051
:102320000ADC162801D01928F7D1E378A278617861
:10233000082000F0D3FAF8BD312801D03228FAD1B4
:10234000A2786178032003F097FAF8BD084603F0FD
:1023500087F80520A872FFF7D1FB0023154A16491C
:1023600003F04AFAF861F8BD6E72E378A2786178FA
:10237000082000F0B3FA2E711048CDE7A2786178FA
:10238000032003F079FA2E710D48C5E70000002004
:1023900082040000A26700005B495D257328256464
:1023A000293A7369673D25640A0A000000000002AB
:1023B000B5540000F143000080EE3600E12100003A
:1023C000FD200000F0B53D4E054685B00020346983
:1023D0000290039004900F460B78394A39493AA08D
:1023E000FDF72CFF387801270A284AD018DC01288D
:1023F00027D0022840D0092821D1B06A03F0D9F9AA
:1024000000200323014601901A46009702A803F01A
:102410000FF8E07901970090A3796279217944E07F
:102420000B2834D00C2801D0402808D1B06A03F022
:10243000C0F9F06A03F0BDF92F712848286005B093
:10244000F0BD27484168012088470120400503F07E
:1024500007F80220A872FFF751FB0023214A224906
:1024600003F0CAF9B062FFF749FB00231F4A204975
:1024700003F0C2F9F062E2E70120400502F012FD2C
:10248000DDE700220721012003F0F6F9D7E7002558
:1024900005230322294602A80097019502F0C8FFF0
:1024A00001970095A17A00231A4602A802F0C9FFFD
:1024B000012102A800F0DCFAC1E7000000000020C2
:1024C0006D050000DB6700005B495D25732825640E
:1024D000293A7369673D25640A0A0000B554000073
:1024E0005C0100203D440000B80B00008D4400005A
:1024F00060EA0000FEB5047A05461A48002607691E
:1025000000960196012C05D0287923460122052149
:1025100000F07EFA134920467C31032401280BD0B9
:10252000022808D1052048702D20694608704C709B
:10253000684602F0BDF8FEBD0B488278A87A824258
:10254000F9D10D46486803F034F96E606C70A12231
:102550000021384602F0B8FE0028ECD002F090FFCF
:10256000FEBD0000000000208C010020FEB5077AAF
:10257000054600263848009601960469A87A012885
:1025800001D1042F15D0012F08D0687AC00705D0DB
:1025900028793B460122082100F03AFA2F203B001F
:1025A00003F034FE0C1D102A2C1E1D1D333A414829
:1025B0004F1D2A48416801208847FF202D30FFF732
:1025C000ABFBE2E72648A97A8078884207D1224C03
:1025D0007C34606803F0EDF8032066606070FEBD37
:1025E000607BA12806D12E2069460870042048701F
:1025F00001208870684605E0312000E032206946FD
:10260000087026E002F054F8FEBD617BA129FBD1E1
:102610006946087007201BE0617BA129F4D1694657
:102620000870082014E0617BA129EDD1694608708B
:1026300009200DE0617BA129E6D1694608700A20D6
:1026400006E0607BA128DFD13020694608700B20AE
:1026500048700846D6E70000000000205C0100201A
:102660008C0100207FB5014600200090019002906F
:1026700003901E480F2205691D4841186846FDF762
:1026800057FF6846C4791B48817A022916D0042274
:1026900069462846FFF75EF8002812D0684641795F
:1026A000E87A814201D0FD290BD1230003F0AEFD71
:1026B00009090A0909090E12161A0900684600F0EC
:1026C00035F87FBD684600F04BF97FBD6846FFF7DF
:1026D00011FF7FBD684600F0B1F87FBD684600F08D
:1026E0000BF87FBD6846FFF741FF7FBD000000206B
:1026F000D6010020FC05002010B5037A012B05D07F
:1027000000790122072100F083F910BD807A0228A8
:10271000FBD1054C606803F04CF80020606003209A
:1027200060700120207010BD7C000020FEB50446C2
:102730000F4600203B490290267A0D6900900190D7
:102740002078002808D16078002805D1A0780028DA
:1027500002D1E07800282CD0214604220A3102A8B8
:10276000FDF7E6FE012E28D0032E43D0052E1FD103
:10277000022F1DD1042221462846FEF7EBFF002838
:1027800016D0042202A9281DFEF7E4FF00280FD06E
:10279000334601220321002000F03AF92079287302
:1027A000012068720A2069460870684601F080FFBF
:1027B000FEBD1DA0FDF742FDFEBD1F48A17A807839
:1027C0008842F9D1174D7C35686802F0F2FF00208D
:1027D000686003206870A07A0528EDD1022FEBD144
:1027E000A1220121204602F06FFD0028E4D002F072
:1027F00047FEFEBD022FFCD1042202A9281DFEF7D0
:10280000A9FF0028F5D0042221462846FDF790FEB6
:102810006079E872334601220321002000F0F8F8C5
:102820000920C0E700000020487562204944206963
:102830007320300A000000008C010020FEB5044621
:10284000067A24480027056900970197A079012896
:1028500001D002281CD1012E05D020793346012257
:10286000062100F0D5F8012E05D0042E11D0052E3A
:102870000ED129201BE01848A17A8078884207D120
:10288000144C7C34606802F094FF03206760607031
:10289000FEBD2079002810D0287302206872A12282
:1028A0000121204602F010FD0028F1D028206946C1
:1028B0000870684601F0FCFEFEBD01202F736872AF
:1028C0000146A122204602F0FFFC0028F4D0272078
:1028D000EDE70000000000208C010020FFB51E463F
:1028E0000B461D4985B000240969029403940494A1
:1028F0004F7A01222546022F01D1CC7A0322009281
:1029000001950246097B02A802F092FD0120019088
:1029100023463246009502A8079902F092FD012154
:1029200002A800F0A5F80C4C7C340BE002F024FF68
:1029300002F03AFA03F0C2F9084801F097FE607815
:10294000052804D060680028F0D109B0F0BD6068A7
:1029500002F02FFF6560F8E700000020FC05002072
:102960007CB5144A017A002412690094019401296B
:1029700016D0022913D14079FD2810D1107A0328EE
:1029800003D0042801D0072809D10B484168012051
:1029900088472C2069460870684601F089FE7CBD96
:1029A000044D7C35686802F004FF03206C60687099
:1029B0007CBD0000000000205C010020F7B5064649
:1029C0000F4600240DA0FDF739FC0D4D05E0315DEB
:1029D0000CA0FDF733FC641CE4B22878A042F6D8C2
:1029E00009A0FDF72BFC696838468847AC6929784F
:1029F000064B3046029AA047FEBD000054783A00CC
:102A00005C010020257820000A00000070170000FB
:102A1000FFB5154885B00569002416460F46009499
:102A2000019402940422294668460394FDF780FD30
:102A3000E87A6946087105984871287A8871CF71DB
:102A40000E720898887209484C720078401EC1B214
:102A50006846FEF7ADFF694688730022012168468B
:102A6000FFF7ACFF09B0F0BD000000205C010020C2
:102A7000F0B50446304885B0056900200E46009048
:102A80000190029007460390042229466846FDF70C
:102A90004FFDE87A6946087120784871287A887174
:102AA0006078C871A0780872E078487220798872DE
:102AB0006079C872A0790873E079204D487328784E
:102AC000401EC1B26846FEF773FF694688730A224A
:102AD00021461B48FDF72CFD627A217A6846FFF7F4
:102AE0006DFFE8698047207A002802D0012802D0D3
:102AF00002E0022700E00127012E19D16846407A42
:102B0000C00715D00C4D7C356868002810D13846B8
:102B1000FEF772FF0446FEF7F1FF0646002C09D0CF
:102B2000204601460023074A304602F065FE6860F1
:102B300005B0F0BD0120F4E7000000205C0100209A
:102B40008C010020A94400000148006800470000F3
:102B5000D000002010B50020FFF708F810BD10B518
:102B60000120FFF703F810BD10B50220FEF7FEFFAD
:102B700010BD10B50320FEF7F9FF10BD10B5002001
:102B800003F0D1F910BD10B5012003F0CCF910BD50
:102B900010B5002001F0A8FB10BD10B5002002F018
:102BA0007DFC10BD10B50020FFF7CEFF10BD10B5A5
:102BB000002002F0E9FD10BD10B5012002F0E4FD97
:102BC00010BD10B5022002F0DFFD10BD10B50020D1
:102BD00001F084FB10BD10B50420FDF7FBFE10BD15
:102BE00010B50520FDF7F6FE10BD10B50620FDF767
:102BF000F1FE10BD10B5002001F0B6FB10BD10B500
:102C0000002003F0B7FA10BD10B5002002F064FAFE
:102C100010BD10B50020FDF7A9FE10BD10B50020B5
:102C200003F086FA10BD10B5012003F081FA10BD43
:102C300010B5002001F07EFB10BD10B50020FEF79E
:102C4000CFFD10BD10B50020FEF7EAFB10BD00005F
:102C500070B50E4604460B781B4D1C4A1C491DA03E
:102C6000FDF7ECFA3078012147282AD009DC1E4A0A
:102C700001280ED002281AD0352809D121711B480D
:102C800005E048281DD0512802D119482171206043
:102C900070BD104602F0E4FB0520A072FEF72EFF87
:102CA0000023144A144902F0A7FD286670BD10469F
:102CB00002F0F8F80026A672286E02F07AFD2E6661
:102CC00070BD21710D48E2E700000020DA09000024
:102CD000266900005B495D2573282564293A7369DC
:102CE000673D25640A0A000000000002B554000098
:102CF00019320000953C000080EE3600012D0000E6
:102D0000F8B5002700970D4604460B78364A374938
:102D100037A0FDF793FA28783A4E012543285BD077
:102D200009DC394901282CD0022849D0412846D154
:102D30002571364855E0442851D04C2849D05928AF
:102D40003DD10B226B4603215A70997019700121F5
:102D5000684601F0FDF80220FEF7DEFF02226B4616
:102D600003215A700120997018700146684601F0DD
:102D7000EFF8707A411C7172022820D9257124481D
:102D80002FE0084602F06CFB0820A0727772022048
:102D90006B465870032207219A701970012168460A
:102DA00001F0D6F80320FEF727FE0446FEF7A6FE44
:102DB00019490023174A611802F01EFDB065F8BDDD
:102DC000084602F06FF8A772B06D02F0F2FCB7652A
:102DD000F8BD2571114804E02571114801E0114842
:102DE00025712060F8BD00003F090000DD6800008B
:102DF0005B495D2573282564293A7369673D25641D
:102E00000A0A000000000020000000083531000020
:102E1000B5540000613C00005014000085370000EC
:102E200061300000892F0000F8B5002700970D469B
:102E300004460B78444A454945A0FDF7FFF9287838
:102E4000484E0125412853D00BDC474901281DD0AD
:102E5000022844D0382872D039283FD12571434800
:102E60006FE0434F4B284CD04C2844D0562835D1E6
:102E700006226B4603215A70997019700121684629
:102E800001F066F8F079411CF17154E0F771377286
:102E9000084602F0E5FA0420A0720B216B46597037
:102EA00003221F209A7018700121684601F050F823
:102EB0000220FEF731FF06226B4603205A709870FD
:102EC0000F2119700121684601F042F8FEF716FE45
:102ED0000023284A284902F08FFC7064F8BD084698
:102EE00001F0E0FFA772706C02F063FC7764F8BD3C
:102EF0002571224825E02571214822E025712760AF
:102F0000F8BD0B226B4603215A709970197001218C
:102F1000684601F01DF80220FEF7FEFE06226B4611
:102F200003215A70997019700121684601F010F858
:102F3000307A411C31720228E0D8F8BDFFE7114811
:102F400025712060F9E700007F080000716800002B
:102F50005B495D2573282564293A7369673D2564BB
:102F60000A0A000000000020000000080D3A0000DE
:102F7000B55400007B3C0000881300003531000090
:102F800085370000893B0000F8B5002600960D4605
:102F900004460B78244A254925A0FDF74FF92878E7
:102FA0000127284D352836D00DDC2749012811D0BE
:102FB000022807D1084601F075FFA672286D02F0BD
:102FC000F8FB2E65F8BD472801D04828FAD12771B3
:102FD0001E4826E0084602F043FA0520A07281222E
:102FE0006B4602215A7099700020187001216846C2
:102FF00000F0AEFFFEF782FD0223154AC82102F061
:10300000FBFB2865FEF77AFD0023124A124902F005
:10301000F3FB6865F8BD686D02F0CBFB6E650F4889
:1030200027712060F8BD000009090000BB6800009E
:103030005B495D2573282564293A7369673D2564DA
:103040000A0A00000000002000000002012D00001C
:10305000B53D0000953C000080EE3600B554000000
:10306000F8B5002600960D4604460B78234A2449FD
:1030700024A0FDF7E3F828780127274D352835D01F
:103080000CDC2649012810D0022806D1084601F0A0
:1030900009FFA672A86C02F08CFBF8BD472801D08E
:1030A0004828FAD127711E4826E0084602F0D8F9D0
:1030B0000520A07241226B4602205A7098700021B0
:1030C00019700121684600F043FFFEF717FD012348
:1030D000144AC82102F090FBA864FEF70FFD0023FC
:1030E000114A124902F088FBE864F8BDE86C02F06E
:1030F00060FBEE640E4827712060F8BDD308000025
:10310000966800005B495D2573282564293A736938
:10311000673D25640A0A000000000020000000024C
:10312000012D0000B53D0000953C000080EE36000A
:10313000B5540000F8B5002600960D4604460B78FD
:10314000274A284928A0FDF779F828787D27FF002D
:103150002A4D0121422825D009DC294A01280ED018
:10316000022816D0412809D12171264805E04E28B1
:103170001BD0542802D1244821712060F8BD10468C
:1031800002F06EF90320A0722048416803208847AE
:103190001DE0104601F086FEA672286C02F009FBC5
:1031A0002E64F8BD21711A48E7E70C226B46032113
:1031B0005A7099701F2018700121684600F0C8FEEF
:1031C0003846FEF7A9FD286C02F0F3FA2E64FEF7EC
:1031D00095FC00230F4A394602F00EFB2864F8BD27
:1031E00041080000526800005B495D257328256492
:1031F000293A7369673D25640A0A0000000000202F
:1032000000000004353100009D3F00005C010020FB
:10321000292E00001D3E0000F8B5002700970D463E
:1032200004460B78474E484A484949A0FDF706F83E
:1032300028780125442855D00BDC4A49012837D08D
:10324000022840D0412847D0432830D12571464834
:103250002CE04A2849D04B2859D04C283FD0592837
:1032600025D1B06E02F0A5FA0B216A46B7665170FF
:103270000320907017700121684600F069FE022358
:103280006A46032153700120917010700146684610
:1032900000F05EFE0C236A460320537090700121FB
:1032A0001170684600F054FE304825712060F8BD6A
:1032B000084602F0D5F80820A07200220B21032056
:1032C00002F0DAFA15E0084601F0ECFDA772B06EE4
:1032D00002F06FFAB766F8BD25712548E6E725715B
:1032E0002448E3E725712448E0E7B06E02F061FA74
:1032F000B7660420FEF780FB0446FEF7FFFB21467D
:1033000000231E4A193102F077FAB066F8BD032097
:10331000FEF772FBFEF700FD0B226B4603215A708D
:10332000997019700121684600F012FE0220FEF724
:10333000F3FC022203206B465A709870187001212A
:103340006846AFE700000020610A00005D690000E8
:103350005B495D2573282564293A7369673D2564B7
:103360000A0A00000000000861300000B5540000A7
:103370003531000085370000892F0000613C0000D6
:10338000F8B5002700970D4604460B784C4E4D4A81
:103390004D494EA0FCF752FF287801254A2863D0FA
:1033A0000BDC4F4901282AD0022847D0352852D0BB
:1033B000412823D125714B481FE04B2866D04C286B
:1033C0004FD056281AD10B226B4603215A709970A0
:1033D000002018700121684600F0BAFD0220FEF7B7
:1033E0009BFC06226B4603215A70997019700121CB
:1033F000184600F0ADFD3C4825712060F8BD084638
:1034000002F02EF80320A0720222042102F034FA06
:103410000420FEF7F1FA0446FEF770FB2146002374
:10342000324A193102F0E8F9F066FEF767FB002333
:103430002F4A304902F0E0F93067F8BD084601F044
:1034400031FDA772F06E02F0B4F9F766306F02F04A
:10345000B0F93767F8BD02220421032002F00CFA0C
:10346000C9E725712448C8E7F06E02F0A2F90420EC
:10347000F766FEF7C1FA0446FEF740FB214600233B
:103480001A4A193102F0B8F9F066F8BD0320FEF7C8
:10349000B3FAFEF741FC0B226B4603205A7098707A
:1034A00018700121684600F053FD0220FEF734FC3D
:1034B00006226B4603205A709870187097E7000038
:1034C00000000020C30A0000816900005B495D25FF
:1034D00073282564293A7369673D25640A0A000048
:1034E0000000000835310000B55400007B3C0000AE
:1034F000953C000020BF020085370000F8B500278A
:1035000000970D4604460B783C4E3D4A3D493EA08F
:10351000FCF794FE28780125472856D00BDC3F495C
:10352000012837D0022844D043284BD0442830D13A
:1035300025713B482CE0482847D04A284BD05128D9
:1035400046D0582825D1706E02F033F90B216B4616
:1035500077665970032098701F700121684600F04B
:10356000F7FC81216B465970022098701F70012171
:10357000684600F0EDFC0C226B4603215A700120D6
:10358000997018700146684600F0E2FC25482571E4
:103590002060F8BD084601F063FF0520A0722248B4
:1035A00041680320884700220821032002F064F9C3
:1035B00015E0084601F076FCA772706E02F0F9F88B
:1035C0007766F8BD25711948E2E725711848DFE7ED
:1035D00025711848DCE7706E02F0EBF8776604207E
:1035E000FEF70AFA0446FEF789FA14490023124A44
:1035F000611802F001F97066F8BD000000000020BB
:103600000D0A00003D6900005B495D2573282564B3
:10361000293A7369673D25640A0A00000000000228
:10362000892F0000512C00005C0100206130000057
:10363000012D000019320000AF3C000050140000C2
:10364000F8B5002700970D4604460B783C4E3D4ADE
:103650003D493EA0FCF7F2FD28780125472856D0C9
:103660000BDC3F49012837D0022844D043284BD0F7
:10367000442830D125713B482CE0482847D04A28BF
:103680004BD0512846D0582825D1F06D02F091F842
:103690000B216B46F7655970032098701F7001214C
:1036A000684600F055FC41216B4659700220987025
:1036B0001F700121684600F04BFC0C226B46032171
:1036C0005A700120997018700146684600F040FC5D
:1036D000254825712060F8BD084601F0C1FE05208F
:1036E000A072224841680320884700220721032056
:1036F00002F0C2F815E0084601F0D4FBA772F06DA5
:1037000002F057F8F765F8BD25711948E2E7257111
:103710001848DFE725711848DCE7F06D02F049F83A
:10372000F7650420FEF768F90446FEF7E7F9144947
:103730000023124A611802F05FF8F065F8BD00003E
:103740000000002087090000036900005B495D2537
:1037500073282564293A7369673D25640A0A0000C5
:1037600000000002892F0000512C00005C010020A5
:1037700061300000012D000019320000AF3C000054
:1037800050140000F8B5002700970D4604460B784A
:10379000544E554A554956A0FCF750FD287801254E
:1037A0004A2877D00BDC5749012841D0022864D041
:1037B000352870D041283AD12571534890E04C28E3
:1037C0006FD04E286AD0552831D1A07A03282ED147
:1037D000B772706F01F0EDFF0B226B467767032124
:1037E0005A709970022018700121684600F0B0FBF1
:1037F00005216B465970032098701F70012168469F
:1038000000F0A6FB05216B465970022098701F70CE
:103810000121684600F09CFB0C226B4603215A7084
:103820000120997018700146684600F091FBF8BDC0
:10383000084601F015FE0320A0723448B5724168B5
:103840000320884701220421032002F015F80420F8
:10385000FEF7D2F80446FEF751F92E4900232C4A10
:10386000611801F0C9FF7067FEF748F900232A4A82
:103870002A4901F0C1FFB067F8BD084601F012FB0C
:10388000A772706F01F095FF7767B06F01F091FF3D
:10389000B767F8BD08E01CE003E0FFE725712048AA
:1038A0001EE025711F481BE0B07A0128F1D1706F2E
:1038B00001F07FFF04207767FEF79EF80446FEF7CD
:1038C0001DF914490023124A611801F095FF706731
:1038D000DFE702220421032001F0CEFF1248257108
:1038E0002060D6E700000020250B0000A46900003E
:1038F0005B495D2573282564293A7369673D256412
:103900000A0A000000000004353100005C010020BC
:10391000C93C000050140000953C000020BF02008C
:103920008133000085370000B5540000FEB52B4DF3
:10393000044628690026019000960F460B78284A15
:10394000284929A0FCF77AFC39780B292ED008DC0D
:103950002A48012912D0022902D101F0A3FAA67245
:10396000FEBD3D291CD04029FAD1286B01F021FF72
:1039700001202E63207122482060FEBD01F070FD01
:103980000220A0721F48416805208847FEF7B6F85C
:103990007D2100231C4AC90001F02EFF2863FEBDD3
:1039A00000220721012001F067FFFEBDC222012194
:1039B000019801F089FC0128F7D10E226B46052100
:1039C0005A709970002018700121684600F0C0FA02
:1039D0003220FEF7A1F901F053FDFEBD00000020EA
:1039E00042070000E76700005B495D2573282564F6
:1039F000293A7369673D25640A0A00000000200027
:103A0000B55400005C010020E53C0000F3B52F4EEA
:103A100081B00446002735690298009703782C4A44
:103A20002C492DA0FCF70AFC0298012100784905D9
:103A300001280ED002281FD03C2822D0402807D1D0
:103A4000706B01F0B6FE012077632071274820607B
:103A5000FEBD084601F004FD0220A0722448416822
:103A600003208847FEF74AF87D210023214AC90038
:103A700001F0C2FE7063FEBD084601F013FAA772A2
:103A8000FEBD687B002804D10422291D2846FCF7CE
:103A90004FFD12226B4603215A7099700020187056
:103AA0000121684600F054FAC2220121284601F0A3
:103AB0000BFC012806D10022072101F0DDFE322097
:103AC000FEF72AF901F0DCFCFEBD0000000000203A
:103AD0007C070000046800005B495D2573282564AD
:103AE000293A7369673D25640A0A0000B55400004D
:103AF0005C010020253D00001CB5002100910191D2
:103B000019490B69017908290ED012290CD00E2908
:103B10000AD0112921D007291ED1014604221846B6
:103B2000FCF706FD3B2019E00178002908D1417817
:103B3000002905D18178002902D1C178002906D059
:103B4000014604221846FCF7F3FC3D2006E0074A34
:103B5000074908A0FCF772FB1CBD3C2069460870B1
:103B6000684600F0A5FD1CBD00000020910B000080
:103B7000C16900005B495D2573282564293A4944E1
:103B800020697320300A0A00FEB52B4D04462869CF
:103B90000026019000960F460B78F722D2002749A5
:103BA00027A0FCF74BFB39783B293ED01EDC294887
:103BB000012928D0022934D00B2916D1C222012193
:103BC000019801F081FB01280FD108226B460321E7
:103BD0005A709970002018700121684600F0B8F9F9
:103BE0003220FEF799F801F04BFCFEBD3D291CD0B8
:103BF0004029FAD1A86B01F0DCFD0120AE632071F1
:103C000015482060FEBD01F02BFC0220A072FDF7DC
:103C100075FF7D210023114AC90001F0EDFDA86365
:103C2000FEBD01F03FF9A672FEBD00220721012072
:103C300001F022FEFEBD0000000000202068000010
:103C40005B495D2573282564293A7369673D2564BE
:103C50000A0A000000002000B55400004D3D00009D
:103C60001CB5002000900190002905D1592069461B
:103C70000870684600F01CFD1CBD1CB500200090BB
:103C80000190002905D1562069460870684600F069
:103C90000FFD1CBD1CB5002000900190002905D12E
:103CA000352069460870684600F002FD1CBD1CB551
:103CB000002000900190002905D158206946087025
:103CC000684600F0F5FC1CBD1CB50020009001907A
:103CD000002905D1552069460870684600F0E8FCC7
:103CE0001CBD000008B500200D4A0090002903D03B
:103CF000012900D1907008BD9078411C91700A286C
:103D000002D901F0BDFB08BD0D216B46597005209D
:103D1000987000221A700121684600F019F908BD58
:103D20000000002010B5084A002904D0012901D163
:103D30000020D07010BDD078401CC0B2D0703C289C
:103D4000F8D901F09DFB10BD0000002038B500221D
:103D5000164C0092002904D0012901D12271627110
:103D600038BD2079401CC0B220710A280BD2112026
:103D70006B4658700321997000221A700121684621
:103D800000F0E6F80AE00A2802D0142805D005E081
:103D9000074841680220884700E022716079411C91
:103DA00061713C28DCD901F06BFB38BD00000020BC
:103DB0005C010020FEB500240E46074600940194E5
:103DC000029401F000FD144D002E03D0012E00D10D
:103DD000AC71FEBD012802D0022802D008E04122C9
:103DE00000E0812203216B465A72002099721872FA
:103DF000012102A800F0ACF8A879401CC0B2A8715B
:103E00000228E6D9384601F0D4FC572069460870EC
:103E1000684600F04DFCFEBD000000201CB50020EF
:103E200000900190002905D1542069460870684629
:103E300000F03EFC1CBD00007FB500212B4A029122
:103E4000039115690091019129490622091802A8D8
:103E5000FCF76EFB6846047B2648807A022811D066
:103E6000042202A92846FDF775FC00282FD00B2C50
:103E70001CD00BDCA41E230002F0C8F9051E202272
:103E80001416070002A8FFF737FE7FBD0C2C0FD0D9
:103E90000F2C05D0412C0DD0812CF6D1502010E0F4
:103EA0004C200EE04D200CE04E200AE04A2008E0B5
:103EB0004B2006E04F2004E0512002E0522000E0B9
:103EC000532069460870684600F0F2FB7FBD04226B
:103ED00002A90948FDF73EFC0028F7D00F2CF5D1C8
:103EE00001220421032001F0C7FC7FBD0000002057
:103EF000D6010020FC05002080670000F7B50646CB
:103F00000F4600240DA0FCF799F90D4D05E0315D39
:103F10000CA0FCF793F9641CE4B22878A042F6D810
:103F200009A0FCF78BF9696838468847AC6929789D
:103F3000064B3046029AA047FEBD000054783A0076
:103F40005C010020257820000A00000070170000A6
:103F50007CB504460F480D46016900200090019091
:103F600004226846FCF7E4FA607869460A4E087154
:103F70003078401EC1B26846FDF71AFD69464871A7
:103F80002278A1786846FFF7B9FF012D01D1F069C9
:103F900080477CBD000000205C010020F8B50027B0
:103FA00000970D4604460B78424E434A434944A0CD
:103FB000FCF744F92878012541285DD00FDC4549FC
:103FC000012815D002284BD0352807D10222042120
:103FD000032001F051FC404825712060F8BD4228C3
:103FE00047D04B284BD04C28F8D125713B48F4E7FB
:103FF000084601F035FA0325A5720F216B4659706A
:104000001F209D70187001216846FFF7A1FF0F2245
:104010006B4604215A700120997018700146684659
:10402000FFF796FF0B216B46597000209D701870AA
:1040300001216846FFF78CFF0F226B4602215A7060
:1040400099700020187001216846FFF781FFFDF785
:1040500055FD0023224A234901F0CEFBF063F8BD51
:10406000084600F01FFFA772F06B01F0A2FBF76398
:10407000F8BD25711C48B0E725711C48ADE7A07A52
:104080000428F5D10B226B4603215A7099701970E0
:1040900001216846FFF75CFF0220FDF73DFE062286
:1040A0006B4603215A709970197001216846FFF719
:1040B0004FFFF8BD00000020F30700003C6800003F
:1040C0005B495D2573282564293A7369673D25643A
:1040D0000A0A000000000004B55400008537000003
:1040E000953C000020BF0200292E00003531000061
:1040F0001CB5002100910191012803D0032804D1AF
:104100000D2000E00E2069460870684600F0D0FAE5
:104110001CBD000070B5114D6C68FDF767FC0026F2
:10412000002801D02E7070BD00F068F8802808D0FB
:10413000012001F095F928780128F4D16968887088
:1041400070BD012000F0AEFE0120287069680020DB
:10415000887026808020207170BD0000280100201A
:1041600070B5244E746800F049F80546FDF73EFC32
:1041700000281BD02079A84210D12188FF22491C99
:1041800089B22D32218091420FD301214006E17086
:10419000400E607171680020887006E00023802165
:1041A000802D04D0238061712171257170BD22881A
:1041B000921E442A17D202214006E170400E60711F
:1041C000716800208870E079401CE071B06801F0EF
:1041D000F0FAFDF793FC7D210023074AC90001F0A6
:1041E0000BFBB060E1E7238061712171706883701F
:1041F000DBE7000028010020C143000010B5802447
:104200000020FDF7ABFD002800D18124204610BD21
:1042100070B50D4D6C68FFF77DFF02F08DFA012837
:1042200011D1A079012806D1E17808A0FCF706F8A1
:10423000E078FFF75DFF0020E071E0708020A07162
:10424000A86801F0B6FA70BD280100206B657920DE
:10425000312C2025640A000010B50D48002140686B
:10426000802201808170C171427102718271C170BE
:1042700004210020FDF7AEFD03210020FDF790FD95
:10428000FDF73CFC0023034A0A2101F0B5FA10BDFA
:10429000280100200B4400000A49002805D002280C
:1042A00006D003280AD0042070474869042207E09A
:1042B0004869400840004861002070474869022270
:1042C0009043F8E7000200400021002805D001E0FB
:1042D0004008491C0128FBD808467047014800687F
:1042E00000470000D400002070B5114D0F4C286924
:1042F000400706D50020FFF7CFFF6068002800D0F8
:1043000080472869C00706D00220FFF7C5FFA068D4
:10431000002800D080472869800706D50320FFF7D2
:10432000BBFF2068002800D0804770BD84050020B6
:10433000000200400548C16A49084900C1620448BA
:104340000068002800D000477047000000240040AB
:10435000D80000200348016904221143016130BFE5
:104360007047000000ED00E00148006800470000D1
:10437000DC000020F8B5050020D0A86880470700C1
:104380001CD050CD18E02568002D13D0A068B8428D
:1043900008D3C01B01D0A0600CE0E168A1602046FA
:1043A000002106E0E168A16020460321A847002122
:1043B0002046A8471034761E002EE4D1F8BD000038
:1043C00010B50A48002940680BD0012905D0022900
:1043D00002D1022000F066FD10BD022001F040F87D
:1043E00010BDC179891CC17010BD000028010020DA
:1043F0001CB5002000900190002905D105206946D8
:104400000870684600F054F91CBD10B5002905D1AC
:10441000FDF7ECFA002801D0FFF7A2FE10BD000066
:10442000044A10B5D01D10230349F93001F0D1F929
:1044300010BD0000A8030020D51A000070B586B09A
:1044400000200D4610490290039004900C6901264B
:104450000146019002230322009602A800F0E8FF23
:10446000E07900900196A3796279217902A800F0A1
:10447000E8FF002D01D0012D03D1002102A8FEF795
:10448000F7FA06B070BD0000000000201CB5002047
:1044900000900190002905D10C20694608706846FB
:1044A00000F006F91CBD000070B50E4C0025224638
:1044B0007C3A002905D0012902D101206070557095
:1044C00070BD5078411C5170022806D9606801F017
:1044D00070F904206560607070BD01210248FEF72C
:1044E000C7FA70BD7C0000208C01002010B5044686
:1044F000002905D0012902D1042000F0B1FF10BD30
:10450000042000F0CFFC204601F053F910BD00005C
:1045100070B50F4A002514461434002904D001292F
:104520000DD15570012009E05078411C51700228CE
:1045300006D9606801F03DF904206560207070BD07
:104540000348001D82780178407801F08FFB70BD30
:10455000840000201CB5002200920192002907D19E
:1045600001F027F9062069460870684600F0A0F8B7
:104570001CBD000010B50EA0FBF760FE12A0FBF7FB
:104580005DFE0CA0FBF75AFE15A0FBF757FE1AA024
:10459000FBF754FE07A0FBF751FE1DA0FBF74EFEF4
:1045A00020A0FBF74BFE26A12FA0FBF747FE10BD76
:1045B0000A0A0A0A202D2D2D2D2D2D2D2D2D2D2DC4
:1045C0002D2D2D2D2D2D0A007C202020202020484F
:1045D00044204D435520202020207C0A000000006C
:1045E0007C2A2A2A2A2A582D53454E53452A2A2AFC
:1045F0002A2A7C0A000000007C202020454E2053FF
:1046000074616E646172642020207C0A00000000E6
:104610005B4875625F467265713D3836382E3635B7
:104620004D5D0A005B496E7472616E65745F46721F
:1046300065713D3836392E3237354D5D0A00000040
:104640005B46697265416C61726D5D284E65775F8E
:104650004472697665725F33746829205665723DCD
:10466000312E302E3700000025730A0010B50446A5
:1046700003E00146204600F077F8034800F03AF8DE
:104680000028F6D110BD0000EC0500201CB501602B
:10469000044600200549207108460A22283000F00F
:1046A00043F86946204600F073F81CBDC40500209D
:1046B00010B50E4C027821788B00C9180C4B5A5457
:1046C0004278C9184A7082788A70C278CA700079B4
:1046D000087118465C3000F031F82078401CC0B2F8
:1046E00020700A2801D90020207010BD840100200C
:1046F0009005002070B50168002913D0037B0024C9
:10470000002B0ED0827A45689600AD59521CD2B269
:1047100005608272057AAA4200D184725B1E03731F
:1047200000E00460084670BD4160C2720272002160
:104730004172817201734173016070470268002AFF
:1047400010D0437A42689B00D150417A491CC9B2CB
:104750004172027A914201D100214172017B491CD0
:10476000017370470160704770B505680446A8473B
:104770002079002809D005492046A8470349226826
:10478000491F204690470020207170BDB66D000083
:1047900010B50268044690472268024920469047B7
:1047A00010BD0000B16D000010B50978194A1A4C0F
:1047B000012910D002290DD00D290BD1D07A401C2F
:1047C000C0B2D072012812D0022819D0032801D11A
:1047D00000F056FE10BD0021D172012181720F4AF6
:1047E0000F4910A0FBF72AFD0720616810E00B4A73
:1047F0000B490C3211A0FBF721FD0620616807E090
:10480000064A0749113213A0FBF718FD616808201A
:10481000884710BD000000205C010020110C000042
:10482000D76900005B495D2573282564293A5465E2
:104830007374204F4F4B0A0A000000005B495D254E
:1048400073282564293A546573742046736B0A0AE9
:10485000000000005B495D2573282564293A5465F2
:1048600073742052780A0A0010B50446FCF73CFC29
:10487000FCF7D3FB0020FCF779FB2020FCF753FB6F
:104880000120FCF707FC002C02D0012C05D00AE027
:104890000A20FCF74EFB202003E01920FCF749FB1F
:1048A0000120FCF77BFB0120FCF77EFBFCF7CAFA3A
:1048B000012C08D0042C06D0022C0FD0032C01D1DF
:1048C000FCF7B0FB10BDFCF7A8FBFCF7BBFAFCF74C
:1048D0007DFBFCF712FBFCF796FB10BDFCF7EAFB37
:1048E000EEE7000001484078704700003C010020DE
:1048F00001480078704700003C010020F8B5504C9A
:104900000125207800260927030001F07FFC0A0614
:10491000081C2F3D426074878C9600258DE0FCF7C3
:104920007CFBFCF78FFAFCF751FBFCF7E6FAFCF78F
:104930006AFB002805D002202070FDF703FAA06171
:104940007BE02770F9E76D20FCF79AFBC00701D0E8
:10495000032020702069401C6FD0FDF7F3F9A16996
:10496000401A2169884268D9042042E0FCF755FBCF
:104970006188A068FCF780FBFCF764FA6070FCF7C4
:1049800047FB2670022558E0FCF742FB2670032502
:1049900053E0FCF742FBFCF755FAFCF723FBFCF76E
:1049A000B7FAA188E068FCF797FB6E20FCF768FB7C
:1049B000800700D42770FCF735FB002805D00620BF
:1049C0002070FDF7BFF9E06137E02770F9E76A2052
:1049D000FCF756FB000701D5072020706069401CDA
:1049E0002BD0FDF7AFF9E169401A6169884224D9FB
:1049F0000820207021E0124820304078002807D09D
:104A0000022807D00120FFF72FFF2670042514E0AD
:104A1000012000E00320FCF773FBF6E7FCF7F8FA4F
:104A20002670052509E0FCF751FB1420FDF774F909
:104A30000120FFF719FF267006252846F8BD000063
:104A40003C01002070B50D460646002400F002FD32
:104A5000002815D0FCF778FE6D20FCF711FBC0078D
:104A60000ED0FCF7DAFA29463046FCF705FBFCF7D6
:104A7000E9F904494870FCF7CBFAFCF7C4FA0124C1
:104A8000204670BD3C01002070B5174CE060A1804D
:104A900000206361FFF7E8FEFCF7BFFA0D20FCF78A
:104AA000EFFAE52101400D20FCF71AFBFCF79AFA1A
:104AB000FCF72EFAA188E068FCF70EFBFCF7C2F9C0
:104AC0006E20FCF7DDFA80070925002800DB257041
:104AD000FCF7A8FA002805D006202070FDF732F96F
:104AE000E06170BD2570F9E73C01002001490870C4
:104AF000704700003C01002070B5074D00240120E4
:104B0000FDF70AF9FFF7FAFE042803D0641CA4B2EB
:104B1000AC42F4D370BD000050140000F8B500257D
:104B2000654800950469FD202572A572E0726572E2
:104B3000FF2121732574A173E1732E4604212046C1
:104B4000FBF753FD5D49684601F0E2FD042269462A
:104B5000201DFBF7EDFC5AA0FBF770FB60190179F3
:104B60005AA0FBF76BFB6D1CEDB2042DF6D359A0D8
:104B7000FBF764FB5849684601F0CAFD00983F25E1
:104B8000C0B26D026073A12817D0C22864D0B328C8
:104B900079D0FF226673A632504951A0FBF74EFB35
:104BA00005210120FDF716F902210120FDF7F8F893
:104BB0005148416800208847F8BDFDF749F929466A
:104BC000684601F0A5FD042269462046FBF7B0FCCB
:104BD0004AA0FBF733FB0025615D3CA0FBF72EFBF1
:104BE0006D1CEDB2042DF7D33AA0FBF727FB3A4931
:104BF0006846103101F08CFD0098411C05D000067C
:104C0000000E207326D00220607233496846091DC9
:104C100001F07EFD0098411C00D0E0722E496846EC
:104C2000083101F075FD0098411C00D020722A491E
:104C300068460C3101F06CFD0098411C00D0A07258
:104C4000A37A227AE17A31A0FBF7F8FA627A217B23
:104C500036A0A3E70120D7E72946684601F058FDB2
:104C6000042269462046FBF763FC39A0FBF7E6FA0D
:104C70000025615D15A0FBF7E1FA6D1CEDB2042D76
:104C8000F7D315E0FFE72946684601F041FD04220D
:104C900069462046FBF74CFC31A0FBF7CFFA002514
:104CA000615D0AA0FBF7CAFA6D1CEDB2042DF7D3C3
:104CB00008A0FBF7C3FA73E700000020F47F0000B0
:104CC000554449443A2030780000000025303278BD
:104CD00000000000200A0000047E0000926700002F
:104CE0005B575D2573282564293A6E6F74207061C7
:104CF000697265640A0A00005C01002047617465FE
:104D00007761792049443A20307800004E756D2E45
:104D100025642C20446576547970653D25642C20EB
:104D200050726F547970653D256420004661746847
:104D300065725F4E756D2E25642C20466174686522
:104D4000725F446576547970653D25640A00000001
:104D5000496E7472616E65742049443A203078005F
:104D600052657365742049443A2030780000000091
:104D700010B50B4B9A695969914202D98C1A402C93
:104D80000DD2914202D2521A012A08D0054A91420C
:104D900002D31146403959610870491C596110BD50
:104DA00000000020D6010020F0B585B000252C4E73
:104DB0000095019502950395706A2C468047326AEA
:104DC000317868469047012809D16F4604E0785D44
:104DD000FFF7CEFF6D1CEDB23078A842F7D8214E18
:104DE000214D3746A889602813D26B69AA6993427E
:104DF0000FD000219A4208D0B24202D3194940395B
:104E0000A961AA691178521CAA613954401CA88171
:104E1000E8E780B2042821D312E011490E78B042AD
:104E200012DB701EC1B23819FCF7C2FDA619F119C8
:104E30002039C97F884202D1204600F03BF8F4B205
:104E4000A889001B0428E8DAA889001B0204120CB8
:104E5000AA8103D039190348FBF76AFB05B0F0BDFE
:104E60005C010020D6010020000000201CB50024B9
:104E700000940194FCF71CFEA1280FD10849087882
:104E8000401CC0B208700A2808D90C700720694677
:104E90000870022048706846FFF70AFC1CBD00003D
:104EA000A800002002490A6882430A607047000097
:104EB0008801002010B5064909780F2904D0062979
:104EC00001D1FEF7B9FF10BDFDF7CCFB10BD00000E
:104ED0005C0100207047000010B502468078FCF7A6
:104EE00083FA00F08FF80128507818D0FCF77CFA8C
:104EF0000D4940182038C37F9078FCF775FA1B18CD
:104F00009078FCF771FA84081078FCF76DFA201895
:104F100018180721801CFBF76CFB084610BDFCF736
:104F200063FA01490C39E4E7346A000078B50446B5
:104F300000250E460120002E37D00121A94034D093
:104F40002B0001F063F9070505081417202931002B
:104F50002078592207E02A4800680007207801D409
:104F6000122200E024220021FCF749FA1CE02078FC
:104F70000622F8E7207831220021FCF740FA217858
:104F80006A46117010E0207812220021FCF737FAEF
:104F900021786A46517007E0207899220021FCF7B9
:104FA0002EFA21786A469170641C002824D16D1C69
:104FB000EDB2072DBFD3F0061FD5B00617D570068A
:104FC000684609D58078FCF70FFA024668464078B3
:104FD000FCF70AFA114603E04078FCF705FA0121D4
:104FE000FCF790FD69460978814204D805E06846DF
:104FF0000078282801D9012078BD002078BD000064
:105000000014004081088900884201D101207047C6
:10501000002070470749002806D0012801D004204D
:1050200070474868082201E04868102290434860B1
:1050300000207047001400400E498022002807D04D
:10504000012807D0022809D003280DD0042070477A
:1050500008680BE048689043486009E0086B01224B
:10506000D2039043086303E008682022904308605D
:10507000002070470014004000B5064A51684023E4
:10508000C0079943400E014351600020FFF7C2FF63
:10509000002000BD001400400E498022002807D0E7
:1050A000012807D0022809D003280DD0042070471A
:1050B00008680BE048681043486009E0086B01226B
:1050C000D2031043086303E00868202210430860FD
:1050D000002070470014004070B50D4D0B4C6868FF
:1050E000C00607D5686810218843686020680028DA
:1050F00000D080476868000707D5686808218843A2
:1051000068606068002800D0804770BDE000002023
:105110000014004070B5040018D0174D207800F03E
:105120002DF8607800F038F8060010D1606800288B
:1051300003D000F043F8002808D1A068002807D069
:105140000122114600F05AF8002801D0012070BD5C
:10515000E068002804D000682860E0684068686063
:10516000207C012806D0002203211720FCF73EFBFB
:10517000304670BD0122F7E7E000002005494A688B
:1051800007231B0240079A43400D02434A60002058
:105190007047000000140040002803D0012801D00F
:1051A0000420704704490A680823C0079A43000F87
:1051B00002430A6000207047001400400E490A684C
:1051C0000B149A430378DB075B0C1A430A600278DE
:1051D000002A0A6806D03F2380781B029A43800683
:1051E000800C04E04078D208D2004007400F024310
:1051F0000A6000207047000000140040F0B5214D07
:105200001746044600207D222B68D2001B060CD5D1
:105210006B68012633436B6002E06B689B0702D426
:10522000521EFAD104E0002A02D0012902D00DE07A
:105230000920F0BD07212046FFF778FE0028F8D1AD
:105240002178A9606178E960A1782961012F0DD1E9
:1052500078212046FFF76AFE0028EAD12179A9616A
:105260006179E961A1792962E17869616968490830
:105270004900696029680906DBD569688907FCD49B
:10528000F0BD00000014004010B501208007006848
:10529000C0B200F0BFFC0121002000F0C7FD10BD2E
:1052A000F8B50646FF2000900D460024304601F078
:1052B00039FA3146684601F02BFA0098854200D150
:1052C00001242046F8BD0000F7B507463E480025FA
:1052D00082B02E46046901F014FA60190079E900E1
:1052E00088406D1C8619EDB2042DF6D3314637483F
:1052F000FFF7D6FF002824D03F2504986D02B3287D
:105300000BD131462846FFF7CBFF002818D0281DC7
:105310000499FFF7C5FF002812D00398002812D087
:10532000002108463A5CC3009A40401C5118C0B2A4
:105330000428F7D32846FFF7B3FF012805D026E05D
:10534000002005B0F0BD0120FBE7E17A2048FFF71F
:10535000A7FF01281BD11E48217A001DFFF7A0FFDF
:10536000012814D11A48A17A0830FFF799FF0128C3
:105370000DD11748217B0C30FFF792FF012806D191
:1053800013480499001FFFF78BFF012806D0FF2266
:105390002632104910A0FAF751FFD1E7042239460E
:1053A0002046FBF7C5F8E0780090A3786278217872
:1053B00010A0FAF743FF627A217B14A0FAF73EFFB0
:1053C0000520FCF7A9FCBEE700000020F47F0000E8
:1053D000087E0000846700005B575D257328256404
:1053E000293A53617665204944206661696C0A0A4E
:1053F00000000000536176652049443A202578205A
:1054000025782025782025780A00000046617468F8
:1054100065725F4E756D2E25642C2046617468653B
:10542000725F446576547970653D25640A0000001A
:1054300030B5049D039C017042708370C470457246
:1054400030BD30B5049D039C017142718371C471FC
:10545000057230BD0149012008707047000000202E
:1054600002490A6802430A60704700008801002070
:10547000024A1218401CD170C0B2704727030020A6
:10548000BFF34F8F04490348C860BFF34F8F00BF7D
:10549000FDE700000400FA0500ED00E001480068A7
:1054A00000470000E80000200148C0687047000085
:1054B000FC050020FEB50D460446FCF7F3FA029009
:1054C0000020009001902B7885226D496DA0FAF79D
:1054D000B5FE28780126704F2C287DD010DC030003
:1054E00000F094FE1A3C3D693C3C3CB887823C3C51
:1054F0003C3C7F3C3C3C97978C973C979797973CDC
:1055000041286AD017DC372868D00DDC2D286ED0F2
:105510002E286DD02F2821D1AA786978032000F099
:10552000ABF926715D4818E0382870D0392815D1BC
:1055300026715B4811E04D2806D008DC432867D06F
:1055400044287BD04C2809D12671564805E04F28C5
:1055500075D0502802D1544826712060FEBDFCF75A
:10556000A7FAA1285148416807D0022088470220A5
:10557000FCF7F4FB012802D004E00020F6E74C48D9
:10558000FFF790FC00256572A5720298FF21057453
:1055900002988173207A0128E0D1FCF789FAA128CA
:1055A000DCD11120694608700B2048706846FFF76F
:1055B0007FF82572FEBDFCF77BFAA1283B484168C5
:1055C0000DD0032088473B48006800F0F2F8012026
:1055D0000005FFF767FCFEBD22E044E03DE001204E
:1055E000F0E726713448B8E726713448B5E727E07C
:1055F0002BE0EB78AA78697807200EE0EB78AA78A0
:1056000069780820FDF76AF926712D48A5E727E09B
:105610002CE0EB78AA7869780820FDF75FF919E0AB
:1056200001200005FFF71CFFFCF768FA0023254A5C
:10563000254900F0E1F81F490860CCE719E01BE0BC
:10564000EB78AA7869780520E7E7AA7869780320DB
:1056500000F012F926712760BDE726711B487CE730
:1056600026711B4879E726711A4876E726711A4891
:1056700073E72671194870E7267119486DE7000035
:10568000076A00005B495D2573282564293A736920
:10569000673D25640A0A0000B5540000FD200000A3
:1056A0000D3A000085370000FD3400005C01002049
:1056B000FFFFFF7FA4000020A9470000C5230000D2
:1056C000E12100005545000060EA00002D3900008E
:1056D000893B00003531000061300000892F000057
:1056E0004136000010B5044601202072002060728F
:1056F000A072E0602061FEF793FEFEF7ADFD00F0C2
:10570000B0F8FFF70BFA0148206010BDB554000057
:105710000248C168491CC16070470000FC050020B8
:1057200010B5FFF7F5FF02480168491C016010BD84
:10573000B800002010B5FBF7EDFE0149086010BD70
:10574000240100201CB50220FBF794FF012100205A
:10575000FBF782FEFFF7EEFF0821684600F0C0FF6E
:10576000012069464870034801906846FBF7A6FF90
:105770001CBD0000FFFFFF0010B50248FEF7FAFD58
:1057800010BD0000A80400200649002805D001280B
:1057900005D0022805D1886800470868FCE74868FA
:1057A000FAE77047BC00002010B50120FBF7CEF9E6
:1057B00010BD002806D00268002A03D00023022171
:1057C00003601047704701460020002900D0486858
:1057D000704700280ED000290CD0002A0AD0002BD8
:1057E00008D081600CC000210838116010325B1EA7
:1057F000FBD1704700207047F8B500249C46002874
:1058000006D0002A04D0056840682F4603460AE007
:105810000020F8BD2E68964203D1002400280AD04B
:105820000BE0401E10350028F4D104E03868002851
:1058300008D05B1E1037002BF8D1002C0FD00029A8
:1058400005D103E0002CF8D13C46F6E70121A16028
:105850002260E1606046606001212046904720465A
:10586000F8BD10B504210220FCF7B4FA0321022090
:10587000FCF796FA10BD000070B514460D460646BA
:105880005F22D2000C490DA0FAF7D8FC2246294627
:10589000304600F0EBF90C4C0AE0FFF76DFFFFF724
:1058A00083FA00F00BFA2078032804D0042802D0F1
:1058B00060680028F1D170BDF069000025732C6983
:1058C0006E2C2025640A000098000020FEB50027F9
:1058D00015460C46064600970197FCF7E3F8012EA3
:1058E0001FD032460121032000F0B0F9FCF7E0F8A8
:1058F000A12803D0FCF7DCF8C22819D12B46224698
:1059000031464FA0FAF79AFCB01E47271326030032
:1059100000F07CFC0B0F202537404955616D798CD8
:105920000E004D4C6068FFF744FF03206760207055
:10593000FEBDFCF7BDF8A12807D069460F700B200B
:1059400048708C700846CD7069E015206946087073
:105950000220F5E716206946087003205BE0FCF79B
:10596000A7F8A12804D0022C04D0012C04D006E012
:10597000122002E0422000E0412069460870042025
:1059800048E0FCF795F8A128D2D1182069460870A4
:10599000052040E0FCF78CF8A128C9D11720694602
:1059A0000870062037E0FCF783F8A12804D04320D4
:1059B0006946087007202DE068460670FAE7FCF794
:1059C00077F8A12804D0442069460870082021E017
:1059D00068460670FAE7FCF76BF8A12804D045206A
:1059E00069460870092015E068460670FAE7FCF77A
:1059F0005FF8A12804D04620694608700A2009E013
:105A000068460670FAE7FCF753F8A1280AD0684602
:105A100007700B20694648708C70CD700846FEF701
:105A200047FEFEBD142069460870F2E7FCF740F817
:105A3000A128F6D11920694608700C20EBE7000078
:105A400046697265416C61726D3A2025642C20258F
:105A5000642C2025640A00009800002010B5002462
:105A6000084A214614234B43D358834203D11420C0
:105A700041438C1803E0491CC9B20229F2D32046E5
:105A800010BD0000F0000020F8B505460020009091
:105A9000184844196778A678FCF704F8E11C3246E8
:105AA0006846FAF745FD361DF6B2012F02D0032FE6
:105AB0000DD106E0684682784178007800F028F839
:105AC00005E06846827841780078FFF7FFFE0AA07B
:105AD000FAF7B4FB0024074F06E02819395C09A047
